:1000000000000120750300005D0300005F03000095
:1000100061030000630300006503000000000000AE
:100020000000000000000000000000006703000066
:1000300069030000000000006B0300006D03000076
:10004000456600006F030000915500006F0300003B
:100050006F0300006F0300006F0300006F030000D8
:100060004D7900006F0300006F030000357300003E
:100070006F0300006F0300006F0300006F030000B8
:100080006F030000792B00006F0300006F03000076
:100090006F0300006F0300006F0300006F03000098
:1000A0006F0300006F0300006F0300006F03000088
:1000B0006F0300006F03000000000000000000005C
:1000C0006F0300006F0300006F0300006F03000068
:1000D0006F0300006F0300006F03000000000000CA
:1000E0000000000000000000000000000000000010
:1000F0000000000000000000000000000000000000
:1001000000000000000000000000000000000000EF
:1001100000000000000000000000000000000000DF
:1001200000000000000000000000000000000000CF
:1001300000000000000000000000000000000000BF
:1001400000000000000000000000000000000000AF
:10015000000000000000000000000000000000009F
:10016000000000000000000000000000000000008F
:10017000000000000000000000000000000000007F
:10018000000000000000000000000000000000006F
:10019000000000000000000000000000000000005F
:1001A000000000000000000000000000000000004F
:1001B000000000000000000000000000000000003F
:1001C000000000000000000000000000000000002F
:1001D000000000000000000000000000000000001F
:1001E000000000000000000000000000000000000F
:1001F00000000000000000000000000000000000FF
:10020000354936480A1A02D0072291438D463449AF
:1002100034480A1A06D00722914381F30988022242
:1002200082F3148830483149314A00F044F83148AB
:100230003149324A00F03FF831483249324A00F041
:100240003AF832483249334A00F035F832483349F7
:10025000334A00F030F833483349344A00F02BF881
:1002600033483449344A00F026F8344834490022EF
:1002700000F02CF833483449002200F027F83348C6
:100280003349091A082902DB002202604160314A21
:1002900090471F481F49884205D00268043003B4C4
:1002A000904703BCF7E700208646EC46002000217B
:1002B000294A9047FEE7884207D0521A05D00378B2
:1002C00001300B700131013AF9D17047884202D0F8
:1002D00002700130FAE770470000012000E00020C2
:1002E0000000012000000120D428030000000020AD
:1002F00020010020D0030000D003000004A402006D
:10030000D42803000000002000000020B4A4020054
:10031000B4A40200B4A40200B4A40200B4A4020075
:10032000B4A40200B4A40200B4A40200D4280300C0
:10033000F4290300200100202001002020010020DA
:10034000C8240020C8240020D0240020D02400206D
:10035000D04400209D030000697C0000FEE7FEE71A
:10036000FEE7FEE7FEE7FEE7FEE7FEE7FEE7FEE765
:1003700000F002B8FFF7FCBF0F484FF007018843B9
:1003800085460E4880470E48016841F470010160BF
:10039000BFF34F8FBFF36F8FFFF732BF09480A4992
:1003A0000A4A884207D0521A05D0037801300B70F0
:1003B0000131013AF9D17047000001207584020033
:1003C00088ED00E0B4A4020000000020000000203E
:1003D00000487047C0240020FEE7000000B585B04B
:1003E0000190019B002B0AD0074B43F001030393BC
:1003F000019B9B010293039B0298984700E000BF7A
:1004000005B05DF804FB00BFC0A4020000B583B0D6
:100410000190019B002B0AD04FF47A70FFF7DEFFAA
:10042000019B013B0193019B002BF5D100E000BF34
:1004300003B05DF804FB08B527F004FD00BF08BD5C
:1004400000B589B0039002910192019B002B33D03B
:100450000023079303230693029A079B1344019AF0
:100460001946002027F09EFC0590079A059B13442F
:100470000793019A059BD31A0193059B002B13D177
:100480000F4B1B7883F00103DBB2002B13D101204B
:10049000FFF7BCFF069B013B0693069B002B03D195
:1004A000074B00221A7007E0054B01221A70019BCE
:1004B000002BD1D100E000BF00BF09B05DF804FB04
:1004C0002001002000B585B003900291064B0093F7
:1004D0004FF48063054A0299039800F013F800BFB7
:1004E00005B05DF804FB00BF4104000024010020BA
:1004F00082B0019000BF02B0704782B0019000BF8F
:1005000002B0704700B5A1B0059004910392029328
:10051000049805F0E3F8039B1593029B16930023C0
:10052000179300238DF8603000231993229B1A93B0
:1005300000231F930FA91F9B0C22049805F0A8F914
:100540000C231F93119B1293BDF84030ADF84C3033
:10055000BDF84230ADF84E3000238DF851309DF893
:100560003C3003F00303DBB2012B26D10F9BC3F316
:1005700095231C939DF83C30C3F3C203DBB28DF886
:100580005030BDF83C30C3F38313DBB21B931B9B8D
:100590009A0009A91F9B049805F07AF91B9B9B0000
:1005A0001F9A13441F9312AA09A915AB009313466F
:1005B0001B9A1C9800F042FF2FE09DF83C3003F09E
:1005C0000303DBB2022B28D1BDF83E30C3F38913FD
:1005D0009BB21E939DF83C30C3F3C203DBB28DF88F
:1005E00050301E9B082B28BF08231D9307A91F9B73
:1005F0001D9A049805F04CF91F9A1D9B13441F93F4
:100600001E9A1D9BD31A1E9315AB12AA07A81D99FB
:1006100000F0B6FF1E9B002BE3D1049805F06DF8A7
:1006200000BF21B05DF804FB82B00190019BDB6844
:1006300001225A7100BF02B07047000000B583B0BC
:100640004FF0FF330193FFF7F6FE0421084800F056
:10065000A9FD0190019B002B03DA0649412002F01D
:1006600099FA0348FFF7E0FF00BF03B05DF804FB11
:10067000A4A40200D8A4020000B583B001900091A8
:10068000019B1B681B6800990198984700BF03B045
:100690005DF804FB00B583B00190019B1B685B68AB
:1006A0000198984700BF03B05DF804FB00B583B024
:1006B0000190019B1B689B680198984700BF03B09D
:1006C0005DF804FB82B001900B468DF80330019B6E
:1006D000DB689DF803201A7100BF02B0704782B03A
:1006E0000190019BDB681B79184602B0704782B00D
:1006F0000190019BDB6801225A7100BF02B0704774
:1007000082B00190019BDB685B79184602B07047AC
:1007100000B585B001900091019B002B01D107230A
:100720001BE0104B00221A70009800F0A1FF0D4A48
:10073000019BC2F80C340C4804F034FF0390039B77
:10074000002B01D0039B08E0084805F0ADFA084AE9
:10075000084BD31ADB0802930023184605B05DF856
:1007600004FB00BF8C0600207CA4020030A5020020
:100770007CA402002CA40200024A034BD31ADB081B
:10078000184670477CA402002CA4020000B587B074
:1007900001900B468DF803309DF80330002B1FD0DD
:1007A000FFF7EAFF04900023059313E0059B9B00ED
:1007B0000E4A13440393039B1B881A46019B1B6834
:1007C0009A4204D1019B059A1A60002309E0059B17
:1007D00001330593059A049B9A42E7D3052300E071
:1007E0000023184607B05DF804FB00BF000000209E
:1007F00000B585B001900B468DF803309DF80320BD
:1008000001AB11461846FFF7C1FF0346002B07D185
:10081000019BDB00054A13440393039B1B6800E024
:100820000023184605B05DF804FB00BF2CA40200AD
:1008300084B001900B468DF80330019BDB00174A12
:10084000134402939DF80330013B032B1CD801A2F3
:1008500052F823F0650800006D08000075080000DC
:100860007F08000002238DF80F3011E004238DF87B
:100870000F300DE0029B1B798DF80F3008E0029BD2
:100880005B798DF80F3003E000238DF80F3000BF47
:100890009DF80F30184604B0704700BF2CA402002A
:1008A00084B00190009100238DF80F30019B1B78DC
:1008B00003F00403DBB2002B24D0019B1B78C3F3AD
:1008C0000103DBB2012B02D0022B0CD017E0009BFE
:1008D0001B68019A1288C2F38312D2B21344DA1C45
:1008E000009B1A600BE0009B1B68019A5288C2F3C0
:1008F000891292B21344DA1C009B1A6000BF0123D4
:100900008DF80F309DF80F30184604B07047000086
:1009100000B58BB00023ADF826303E4802F005FB51
:100920003D4802F002FB3D4B9B6804933C4B1B6827
:100930000693049A069B134002339B00374A1344E4
:100940000433089304AB19460898FFF7A9FF034640
:10095000002B09D0049A069B134002339B002F4AB8
:10096000134404330893EDE700BF0023079311E01D
:10097000049B5A1C0492069A1340079A920001A9FC
:100980000A44264902339B000B445B681360079BB3
:1009900001330793079B022BEAD99DF80430C3F378
:1009A0000103DBB2012B10D0022B1CD1BDF80A30A1
:1009B000ADF82630BDF80630C3F389139BB203337C
:1009C0009A08049B1344049313E0BDF80A30ADF871
:1009D0002630BDF80430C3F38313DBB21A46049B00
:1009E0001344049305E00F494FF4C27002F0D2F8AB
:1009F00000BF094802F0A5FA0590059B002B02D024
:100A0000049B064A9360BDF8263018460BB05DF88B
:100A100004FB00BFA40A0020A00A00208C060020CE
:100A20000800002040A5020000B585B0002107485D
:100A300002F0C8F90390039B0293029B83F3100317
:100A40000193019B184605B05DF804FBA80A00203D
:100A500010B588B00390029101920093039B1B0C88
:100A60000793FFF7E1FF0690FFF786FE0246079B1C
:100A7000934204D3284940F2A91002F08BF8069B58
:100A80001904009B5A1C0A9B1340079A0A432349E6
:100A900002339B000B445A60204BD3F80C34009A6D
:100AA000911C0A9A01EA0204984702461B49A31CBA
:100AB0009B000B445A60009A0A9B134002339B0030
:100AC000164A134404330593039B03F00703D9B27A
:100AD000059A137861F3C5031370019B03F00F03AC
:100AE000D9B2059A138861F389131380029BC3F36B
:100AF0001501059A136861F39F231360059A137813
:100B0000012161F301031370059A13786FF38203D7
:100B1000137000BF08B010BD40A502008C06002075
:100B200000BF704700B58BB00390029113468DF85B
:100B30000730039B0333089301238DF81F300020F7
:100B400001F000FC3E4B5A68029B1A603D4B1A684C
:100B50003B4B99683A4B5B68CB1A134401330993BA
:100B600014E00121384802F0A4F9FFF7D1FE059006
:100B70000599354802F09DF9324B1A68304B996857
:100B80002F4B5B68CB1A134401330993089A099BD6
:100B90009A42E6D89DF81F30002B48D000230493DA
:100BA0009DF80730002B17D09DF81030012262F31A
:100BB00001038DF810309DF8103043F004038DF8D8
:100BC0001030039B03F00F03DAB2BDF8103062F36C
:100BD0008913ADF8103016E09DF81030022262F350
:100BE00001038DF810309DF8103043F004038DF8A8
:100BF0001030039BC3F309039AB2BDF8123062F3BD
:100C00008F13ADF812300E4B5A680E4B1B68134011
:100C100002339B000A4A134404330693049A069B4A
:100C20001A60074B5A68089B1344054A536000201A
:100C300001F09CFB9DF81F3018460BB05DF804FBDB
:100C40008C06002008000020A80A002000B58BB008
:100C50000590049103920293204B1B68079306AB07
:100C6000012219460298FFF75DFF0346002B24D0AE
:100C7000069B033309930023089311E0089B9B0014
:100C8000039A1A44099B591C099107990B40126851
:100C9000134902339B000B445A60089B01330893AD
:100CA000089A029B9A42E9D3069A079B009313463F
:100CB000029A04990598FFF7CBFE094B1B78002B8D
:100CC00005D000BF00F06AF80346002BFAD1FFF709
:100CD00027FF00BF0BB05DF804FB00BF0800002039
:100CE0008C06002000B583B0019000910023002203
:100CF00000990198FFF7AAFF00BF03B05DF804FB5D
:100D000000B587B0039002910192019B059305AA5B
:100D1000012302990398FFF799FF00BF07B05DF820
:100D200004FB00B587B00390029101920093019BF0
:100D30000493009B059304AA022302990398FFF7EA
:100D400085FF00BF07B05DF804FB00B58BB00390D2
:100D5000029101920093019B0593009B06930C9BCB
:100D600007930D9B08930E9B099305AA05230299EF
:100D70000398FFF76BFF00BF0BB05DF804FB0000AA
:100D8000054B9A68044B5B689A420CBF0123002311
:100D9000DBB21846704700BF8C06002000B599B042
:100DA000FFF7EEFF0346002B01D00023B9E19B4B78
:100DB0000022C3F81824BFF34F8F00BF974B9B68E6
:100DC0000493974B1B681093049A109B13400233B3
:100DD0009B00924A1344043311930023179300237A
:100DE000169300230F9304AB19461198FFF758FD93
:100DF0000346002B19D0894BD3F81834002B14D19B
:100E0000864B5A68049B9A4205D8844B5B68834A98
:100E10009360002385E1049A109B134002339B00EA
:100E20007E4A134404331193DDE70023159311E048
:100E3000049B5A1C0492109A1340159A920001A91F
:100E40000A44764902339B000B445B681360159B90
:100E500001331593159B022BEAD99DF8043003F05A
:100E60000303DBB2022B40F09C80BDF80630C3F3D5
:100E700089139BB20D93BDF80630C3F389139BB25F
:100E8000502B28BF50239BB20C930C9BC3F3090338
:100E90009AB2BDF8063062F38F13ADF806300C9BA2
:100EA0000C330B939DF80430C3F3C203DBB20F93F2
:100EB0000B995C4804F081FB1790179B002B00F006
:100EC000D380179804F00AFC01A9169B0C221798EE
:100ED00004F0C0FC169B0C331693049BDA43109B62
:100EE000134001339B000A930C9A0A9B9A4242D901
:100EF0000A9B002B08D0049A109B134002339B00DE
:100F0000464A1344043300E0474B08930A9B002BE6
:100F100002D00A9BDBB201E00C9BDBB28DF81F30E4
:100F20000A9B002B01D0404B00E0002306930A9B54
:100F3000002B06D00C9BDAB20A9BDBB2D31ADBB2D1
:100F400000E000238DF817309DF81F20169B0899AC
:100F5000179804F07FFC9DF81F30169A13441693DF
:100F6000069B002B16D09DF81720169B0699179804
:100F700004F070FC0EE0049A109B134002339B00B7
:100F8000264A134404330993169B0C9A099917981F
:100F900004F060FC0D9B03339A08049B13440493F4
:100FA00062E09DF8043003F00303DBB2012B5BD158
:100FB000BDF80430C3F38313DBB2062B28BF06232E
:100FC000DAB2BDF8043062F38913ADF80430BDF82D
:100FD0000430C3F38313DBB203330E939DF8043064
:100FE000C3F3C203DBB20F930E9B9B0019460D485F
:100FF00004F0E3FA1790179B002B35D0179804F0F4
:101000006DFB01A9169B0C22179804F023FC169B7C
:101010000C331693002315931DE000BF8C060020AF
:10102000080000207CA4020098060020049B5A1CA3
:101030000492109A134002339B003C4A1344191D3A
:10104000169B0422179804F005FC169B0433169394
:10105000159B01331593BDF80430C3F38313DBB242
:101060001A46159B9342E1D3179B002B39D02F4B87
:10107000D3F8103414932D4BD3F81834002B1BD015
:10108000179804F03AFB46E000238DF84F3014988F
:10109000FFF736FB0346002B02D001238DF84F30BB
:1010A0009DF84F30002B03D017991498FFF7E4FAFE
:1010B000149BDB681B681493149B002BE4D11798D6
:1010C00004F01BFB002001F03DF9184BD3F8183455
:1010D000002B02D1049B154A9360002001F046F9D1
:1010E00019E0124BD3F81034129306E01298FFF770
:1010F000DDFA129BDB681B681293129B002BF5D163
:101100000B4A0C4BD31ADB081B0443F002030A49B9
:101110001846FFF7E7FDFFF733FE034683F00103B0
:10112000DBB2184619B05DF804FB00BF8C06002046
:101130004CA402002CA4020090A5020000B585B0CA
:101140000023039323E0164BD3F8103402930123BA
:101150008DF807300FE00298FFF7C1FA03461A46F0
:10116000039B934203D100238DF8073006E0029BD6
:10117000DB681B680293029B002BECD19DF80730C3
:10118000002B01D0039B07E0039B01330393039BD8
:10119000092BD8DD4FF0FF33184605B05DF804FB8E
:1011A0008C06002000B585B001900B468DF8033009
:1011B000FFF7C4FF0390039BB3F1FF3F01D1039BF3
:1011C00022E0039BDBB219460198FFF77BFA104B34
:1011D000D3F81034002B08D10D4A019BC2F810340B
:1011E000019BDB6800221A600DE0094BD3F8103434
:1011F000DA68019BDB6812681A60054BD3F810347B
:10120000DB68019A1A60039B184605B05DF804FB81
:101210008C06002000B583B00C4BD3F8103401933A
:101220000A4B01221A7009E00198FFF760FA019851
:10123000FFF730FA019BDB681B680193019B002BD1
:10124000F2D100BF00BF03B05DF804FB8C060020A4
:1012500000B58DB0059004912F4B1B68049AB2FB2A
:10126000F3F304932D4B1B68049AB2FBF3F30B9337
:101270000B9B2B4AA2FB0323DB0A0A930A9B4FF426
:10128000616202FB03F30B9AD31A0B930B9B254A63
:10129000A2FB03235B090993099A13461B019B1ABE
:1012A0009B001A460B9B9B1A0B931C4B1A68049BC2
:1012B000B3FBF2F101FB02F29B1A0893089B4FF477
:1012C0007A7203FB02F2154B1B68B2FBF3F3079330
:1012D000089B4FF47A7203FB02F2104B1B680799CC
:1012E00001FB03F3D31A4FF47A7203FB02F20B4BA8
:1012F0001B68B2FBF3F30693069B0293079B0193D3
:101300000B9B0093099B0A9A0749059801F054FF2B
:1013100000BF0DB05DF804FBB00A0020AC0A00204D
:10132000C5B3A291898888880CA6020010B584B044
:1013300003900291039BDB88002B0AD0039BDB8880
:101340001A461F4B009313461E4A1F49029801F08C
:1013500033FF039B1B7A052B2ED0039B5B7A002B5C
:1013600012D0039B9B881A46039B1B7A1946104692
:10137000FFF75EFA03461A46144B53F822301A461A
:101380001349029801F018FF039B1B681946029845
:10139000FFF75EFF039B1B7A1A460E4B53F8224061
:1013A000039B9B8800211846FFF722FA034622463A
:1013B0000949029801F000FF00BF04B010BD00BF52
:1013C000C4A50200D4A5020028A602002000002027
:1013D00040A602000C00002044A6020000B585B023
:1013E0000390029113468DF80730039B1B7A052B5F
:1013F0000FD0039B5B7A002B06D00D4B1B681A465F
:101400000C49029801F0D8FE0B49029801F0D4FE75
:1014100007E09DF80730002B03D00749029801F040
:10142000CBFE029801F0A6FE00BF05B05DF804FBFC
:101430002000002040A6020050A6020030B58BB06C
:1014400007900691059204930E9B1B7B8DF8273025
:101450000E9B00221A730E990498FFF767FF059BF5
:10146000062B7FD801A252F823F000BF8914000098
:1014700093140000A3140000B7140000D51400005A
:10148000FD1400002D15000007990E9801F094FE40
:1014900069E0069B1B681A4607990E9801F08CFEBE
:1014A00061E0069B1A68069B04331B6807990E9837
:1014B00001F082FE57E0069B1A68069B0433196808
:1014C000069B08331B6800930B4607990E9801F0A2
:1014D00073FE48E0069B1968069B04331868069B58
:1014E00008331B68069A0C32126801920093034677
:1014F0000A4607990E9801F05FFE34E0069B1868D3
:10150000069B04331C68069B08331B68069A0C3242
:1015100012680699103109680291019200932346DE
:10152000024607990E9801F047FE1CE0069B1C68D6
:10153000069B04331D68069B08331B68069A0C3211
:1015400012680699103109680698143000680390F3
:101550000291019200932B46224607990E9801F0C2
:101560002BFE00E000BF00220E990498FFF736FF23
:101570000E9B9DF827201A7300BF0BB030BD00BF33
:1015800000B587B00390029101920093029B082B53
:1015900060D8009B1B7B8DF81330009B00221A73D0
:1015A00000990198FFF7C2FE0023059314E0059A05
:1015B000029B9A4209D2039A059B13441B781A4650
:1015C0002649009801F0F8FD03E02549009801F054
:1015D000F3FD059B01330593059B072BE7D92149B3
:1015E000009801F0E9FD0023059326E0059A029B8F
:1015F0009A421BD2039A059B13441B788DF8123034
:101600009DF812307E2B0AD89DF81230184627F02C
:1016100001FE0346002B02D09DF8123000E02E237D
:101620001A461149009801F0C7FD03E00F490098E0
:1016300001F0C2FD059B01330593059B072BD5D90E
:10164000012200990198FFF7C9FE009B9DF8132025
:101650001A7300E000BF07B05DF804FB54A6020057
:101660005CA6020060A6020064A6020068A6020052
:1016700082B001900A4B01221A6007E0019B5B08CF
:101680000193074B1B685B00054A1360019B054AE9
:101690009342F3D8044A019B136000BF02B0704725
:1016A000B00A002040420F00AC0A002000B583B011
:1016B0000190019B1B68184600F0D7F80346002BE9
:1016C00004D105494FF4F67001F064FA4FF0A043DD
:1016D000184603B05DF804FB6CA6020000B585B0A7
:1016E0000190084611461A4603468DF803300B4612
:1016F0008DF8023013468DF8013001AB1846FFF724
:10170000D5FF03909DF803209DF802305B001A433B
:101710009DF801309B001A439DF818301B0242EAE5
:1017200003019DF81C301B04019A1943039B02F529
:10173000E07243F8221000BF05B05DF804FB00B56D
:1017400085B003900023019300230093002301221E
:1017500001210398FFF7C2FF00BF05B05DF804FB4D
:1017600000B585B003900B468DF80B309DF80B301B
:101770000022019200220092002200210398FFF72C
:10178000ADFF00BF05B05DF804FB00B585B001906A
:1017900001AB1846FFF78AFF0390019B012202FA72
:1017A00003F31946039800F04CF800BF05B05DF84C
:1017B00004FB00B585B0019001AB1846FFF776FF3A
:1017C0000390019B012202FA03F31946039800F0EB
:1017D00042F800BF05B05DF804FB00B585B001908C
:1017E00001AB1846FFF762FF0390039BD3F8043563
:1017F0000293029BDA43019B012101FA03F31A4091
:10180000039BC3F80825019B01229A40029B1A40C2
:10181000039BC3F80C2500BF05B05DF804FB00B5C1
:1018200083B001900091009B002B03D10198FFF73A
:10183000C0FF02E00198FFF7A8FF00BF03B05DF80A
:1018400004FB82B001900091019B009AC3F8082527
:1018500000BF02B0704782B001900091019B009AD6
:10186000C3F80C2500BF02B0704784B00190019B03
:101870005B09029300230393029B002B03D14FF0DB
:10188000FF33039300BF019B03F01F030193039AEF
:10189000019B22FA03F303F00103002B14BF012381
:1018A0000023DBB2184604B07047000000B583B0D7
:1018B0000190019B032B03D90749472001F06AF9E6
:1018C000064A019B13441B7801211846FFF7A7FF26
:1018D00000BF03B05DF804FB9CA60200D8A602007E
:1018E00000B583B00023019305E00198FFF7DEFF08
:1018F000019B01330193019B032BF6D900BF00BF6D
:1019000003B05DF804FB000000B583B00190019BBB
:10191000032B03D907495F2001F03CF9064A019BDC
:1019200013441B781846FFF758FF00BF03B05DF85B
:1019300004FB00BF9CA60200D8A6020000B583B03D
:101940000023019309E0094A019B13441B781846C0
:10195000FFF7F5FE019B01330193019B032BF2D9A5
:10196000FFF7BEFF00BF03B05DF804FBD8A602007E
:1019700000B583B0002301930AE0094A019B134498
:101980001B7803211846FFF7EBFE019B01330193FF
:10199000019B032BF1D900BF00BF03B05DF804FB2E
:1019A000DCA6020000B583B00190019B03F00103A7
:1019B000002B01D0FFF7C2FF019B03F00203002BB5
:1019C00001D0FFF7D5FF00BF03B05DF804FB0000B6
:1019D00086B003900291019201238DF817309DF893
:1019E0001730204A039B13601E4A029B53601D4A16
:1019F000019B9360039B44F20102934212D0039B2C
:101A000044F20202934220D1019B164AD360154B47
:101A1000DB681B68134A9361124BDB685B68114AF1
:101A2000D36112E0019B0F4A13610E4B1B699B6847
:101A30000C4A53610B4B1B691B680A4A9361094BA3
:101A40001B695B68074AD36100BF72B600BF00BF65
:101A50009DF81730DBB2002BFAD162B600BF00BF91
:101A600006B07047B40A002000B583B00290009120
:101A7000019244F2010071466A4600F003F803B097
:101A800000BD00BF30B58BB007900691059272B6CD
:101A900000BFFFF7BFFB00BFFFF780F90346002B35
:101AA000FAD1079B44F20102934216D0079B44F2FD
:101AB000020293423ED1059B09932C4A2C4BD31A28
:101AC000DB081B0443F00100099B5B681A46099B75
:101AD0001B682849FFF725F939E0059B0893234A3D
:101AE000234BD31ADB081B0443F00104089B9D68B9
:101AF000089B9B68184604F0C5FA03461846089BE5
:101B00005B681946089B1B68069A02920193009134
:101B100003462A4618492046FFF717F9134A144B83
:101B2000D31ADB081B0443F0010314491846FFF7DE
:101B3000D9F80CE00D4A0E4BD31ADB081B0443F016
:101B40000103069A0E491846FFF7DAF800BF0D4B5D
:101B50001B6803F00103002B00D000BE059A069914
:101B60000798FFF735FF00BF0BB030BD4CA4020053
:101B70002CA40200E0A60200FCA6020024A702009A
:101B800038A70200F0ED00E02DE9F04383B01448DF
:101B900000F0D7FF034600221C461546114BD3E93F
:101BA000002314EB020845EB0309CDE900890E4B35
:101BB000D3E90023DDE90001904271EB030307D272
:101BC000DDE9002312F1807643F10007CDE90067DB
:101BD000DDE900231046194603B0BDE8F08300BFDD
:101BE00044000020E00A0020E80A002088B00190AC
:101BF0000091019B0793009B0693079BD3E9022367
:101C0000CDE90423069BD3E90223CDE90223DDE9D4
:101C10000423DDE90201904271EB03032CBF012391
:101C20000023DBB2184608B070470000F0B585B05D
:101C30000190019B5B69002B03D13C49A52000F07A
:101C4000A9FF00238DF80F30394B1B78002B68D08B
:101C5000019B002B65D0FFF797FF019BD3E902237F
:101C6000904271EB03034BD3002000F06BFB019B10
:101C70001B69002B06D101994FF0FF324FF0FF3363
:101C8000C1E90223002000F071FB019B5B69019A0E
:101C9000926910469847002000F054FB019B1B6995
:101CA000002B1AD0019BD3E90223B3F1FF3F08BFF9
:101CB000B2F1FF3F11D0019BD3E9022301990969D9
:101CC00000200C460546161943EB0507019BC3E9A6
:101CD000026701238DF80E3002E000238DF80E30EC
:101CE000002000F043FB9DF80E30002B19D0019B23
:101CF0001946104804F020F901238DF80F3010E048
:101D0000019BD3E90223B3F1FF3F08BFB2F1FF3FCC
:101D100007D0019B1946074804F00EF901238DF8FE
:101D20000F309DF80F30184605B0F0BD5CA70200DB
:101D3000D80A0020A8A7020030B58BB0019000910E
:101D40000D230993009B00221A70019BD3E9022303
:101D5000CDE90623FFF718FFDDE90623141A63EB2C
:101D60000105CDE90445DDE90423012A73F10003EF
:101D700018DB049BB3F5350F05D300F0BDFA02461E
:101D8000144B134400E0069B03934FF49603039A0D
:101D90000021114800F0C8FD0990099B002B05D1D6
:101DA000012314E000210C4800F096FE099B0D2B46
:101DB00007D10198FFF73AFF03461A46009B1A70B5
:101DC00004E006494FF4867000F0E4FE0023184654
:101DD0000BB030BDFFFFB400440000205CA7020040
:101DE00000B583B0044804F0E1F80190019B184667
:101DF00003B05DF804FB00BFA8A7020000B583B0E4
:101E0000044804F0F5F80190019B184603B05DF812
:101E100004FB00BFA8A7020000B583B0FFF7E0FFF6
:101E20000190019B002B06D001994FF0FF324FF03B
:101E3000FF33C1E90223019B002BEFD100BF00BF9C
:101E400003B05DF804FB0000054BD3E9002312F159
:101E5000807043F10001024BC3E9000100BF7047ED
:101E6000E00A002010B582B00190124B1B68002BD5
:101E70001DD0019800F065FE04460021019800F095
:101E800051FE03461946204600F02AFA0346B3F5F0
:101E9000960F04D3084940F2411000F07BFE054B39
:101EA0001B681846FFF7C2FE024B00221A6000BFF3
:101EB00002B010BDD40A00205CA7020000B583B0B8
:101EC0000190FFF761FE02460B460349C1E900237A
:101ED00000BF03B05DF804FBE80A002000B587B03E
:101EE0000190FFF78BFF049000238DF81730049BBF
:101EF000002B58D0049BD3E90223B3F1FF3F08BF66
:101F0000B2F1FF3F02D1FFF76BFF54E02E4B1B688D
:101F1000002B03D101238DF817301DE0049BD3E97A
:101F20000201294B1B68D3E90223904271EB0303A2
:101F300012D201238DF81730234B1B68D3E90223FB
:101F4000B3F1FF3F08BFB2F1FF3F05D01E4B1B6846
:101F500019461E4803F0F0FF9DF81730002B2BD0D8
:101F6000FFF73EFF04900DF10F0319460498FFF7A9
:101F7000E3FE0346002B12D0134B1B68002B02D14B
:101F8000019800F0DDFB104A049B13609DF80F30B0
:101F900083F00103DBB2002BA3D000BF0FE00A4B9C
:101FA00000221A609DE7084B1B68002B06D10198A0
:101FB00000F0DCFB02E094E700BF00E000BF00BFE0
:101FC00007B05DF804FB00BFD40A0020A8A70200F8
:101FD00000B587B001902B4A03AB1946104600F0BC
:101FE000C4FE049045E0049B1B78022B2BD0022BEF
:101FF0002FDC002B02D0012B11D02AE0049B5B6860
:10200000D3E90223B3F1FF3F08BFB2F1FF3F22D073
:10201000049B5B6819461C4803F08EFF1BE0049B81
:102020005A681A4B1B689A4203D1184B00221A6057
:1020300012E0049B5B681946134803F0EDFF03466A
:102040008DF8173008E0FFF7E7FE114B01221A70F8
:1020500002E000BF00E000BF0A4A03AB1946104689
:1020600000F09CFE074A03AB1946104600F07DFEC7
:102070000490049B002BB6D100BF00BF07B05DF8F1
:1020800004FB00BF480B0020A8A70200D40A0020D0
:10209000D80A002000B583B00190019800F00FFD30
:1020A0000346002B01D0FFF7CFFE0021019800F07E
:1020B00024FD0346002B02D00198FFF7D3FE012137
:1020C000019800F01AFD0346002B02D00198FFF79B
:1020D000F5FE0198FFF77CFF0198FFF7FFFE00BFB8
:1020E00003B05DF804FB000008B5024800F036FDBF
:1020F00000BF08BD4400002000B585B00346009134
:102100008DF80730114A02AB1946104600F000FE68
:102110000390039B002B13D0039B9DF807201A709C
:10212000039B009A5A60094A02AB1946104600F018
:1021300008FE0346002B01D0FFF7D6FF002300E086
:102140000423184605B05DF804FB00BF480B0020CF
:1021500000B583B0164B1B6800931648082358221D
:10216000154900F0A2FD0190019B002B01D0019BBD
:1021700019E06B46114A1946114800F063FA0190C4
:10218000019B002B01D0019B0DE001210C4800F0C8
:1021900085FC01230B4A0121094800F0FDFA0A4B96
:1021A00001221A70019B184603B05DF804FB00BFC2
:1021B000A4A70200480B0020F00A00209520000090
:1021C00044000020FFFF7F00D80A002000B587B040
:1021D00003900B4601928DF80B30039B002B04D12A
:1021E000164940F25A2000F0D5FC019B002B04D187
:1021F000124940F25B2000F0CDFC019B002B01D185
:10220000072317E0039B1B68059305994FF0FF32E6
:102210004FF0FF33C1E90223059B019A5A619DF8F3
:102220000B30012B0CBF01230023DBB21A46059BA8
:102230001A610023184607B05DF804FB5CA7020092
:10224000F0B587B0039002910192039B002B04D15B
:10225000224940F26B2000F09DFC039B0493002078
:1022600000F070F8049BD3E90223B3F1FF3F08BFED
:10227000B2F1FF3F11D1FFF787FC02460B460299EE
:1022800000200C460546161943EB0507049BC3E9DD
:10229000026701238DF8173002E000238DF8173014
:1022A000002000F063F89DF8173083F00103DBB2E3
:1022B000002B01D000230EE0049B019A9A61049B3D
:1022C0001B69002B02D0049B029A1A61049900201A
:1022D000FFF712FF0346184607B0F0BD5CA70200E7
:1022E00082B001900091019A009BD31A23F07F43A2
:1022F000184602B07047000008B5034800F021FC02
:102300000346184608BD00BF4400002072B600BF57
:10231000034B1B680133024A136000BF704700BFC4
:102320005C0B0020064B1B68013B054A1360044B05
:102330001B68002B01D162B600BF00BF704700BF11
:102340005C0B002000B583B0019000F025F8034637
:10235000012B03D00449432000F01CFCFFF7D6FFFB
:1023600000BF03B05DF804FBB4A7020000B583B062
:1023700003468DF8073000F00FF80346012B03D019
:102380000449512000F006FCFFF7CCFF00BF03B06A
:102390005DF804FBB4A7020084B0EFF3058301935A
:1023A000019BC3F308030393039B002B0DD1EFF3B1
:1023B00014830093009B0293029B03F00103002B04
:1023C0000CBF01230023DBB200E00123184604B058
:1023D0007047000082B003468DF807309DF9073042
:1023E000002B0CDB9DF8073003F01F0205499DF917
:1023F00007305B09012000FA02F241F8232000BFF8
:1024000002B0704700E100E082B003468DF807306B
:102410009DF90730002B0DDB9DF8073003F01F02FC
:1024200006499DF907305B09012000FA02F24033AA
:1024300041F8232000BF02B0704700BF00E100E078
:1024400082B0034600918DF807309DF90730002BCC
:102450000ADB009BDAB20C499DF907305201D2B277
:102460000B4483F800230BE0009BDAB207499DF888
:10247000073003F00F03043B5201D2B20B441A762B
:1024800000BF02B0704700BF00E100E000ED00E0D7
:1024900000B583B003460A468DF8073013468DF821
:1024A00006309DF80630072B03D908496B2000F051
:1024B00071FB9DF806209DF9073011461846FFF77D
:1024C000BFFF00BF03B05DF804FB00BF04A802001B
:1024D00000B583B003468DF807309DF907301846E4
:1024E000FFF778FF00BF03B05DF804FB00B585B0CF
:1024F0000190019B002B0AD0074B43F0010303938B
:10250000019B9B010293039B0298984700E000BF48
:1025100005B05DF804FB00BF00A9020084B0039081
:1025200002910192039B029A02F5A872019943F865
:10253000221000BF04B0704782B001900091019B4F
:10254000009A02F5A87253F82230184602B070477C
:1025500082B001900091019B009AC3F8042300BF50
:1025600002B0704782B001900091019B009AC3F8BD
:10257000082300BF02B0704782B001900B46ADF84F
:102580000230BDF80230019A13441B68184602B0AD
:10259000704784B001900B46ADF80230BDF80230B0
:1025A000019A134400221A60BDF80230019A1344C4
:1025B0001B680393039B00BF04B0704782B0019077
:1025C000019BD3F80435184602B0704700B583B0BC
:1025D00001900091009BB3F5805F04D306494FF44E
:1025E000BE7000F0D7FA019B009AC3F8082500BF1F
:1025F00003B05DF804FB00BF34A8020082B0019074
:102600000B468DF803309DF80320019B13441A46B6
:102610000123136000BF02B0704782B001900091A7
:10262000019B009AC3F8442300BF02B0704782B0F8
:1026300001900091019B009AC3F8482300BF02B0AB
:102640007047000000B587B0039002910192039B90
:10265000002B03D13349552000F09CFA029B002B3C
:1026600003D13049562000F095FA019B002B03D18D
:102670002C49572000F08EFA039B5B7919462A4AB1
:10268000019B42F82130039B5B79284ADB0013440D
:102690001B79002B0ED008230593254A254BD31A0E
:1026A000DB081B0443F0020323491846FEF71AFB1C
:1026B000059B32E0039B1A68029B1B881946104653
:1026C000FFF784FF039B93F90420029B9B78194634
:1026D0001046FFF7DDFE039B93F904301846FFF721
:1026E000F7FE039B5B79114ADB00134401221A7148
:1026F000039B5B7919460D4A039B42F83130002356
:1027000005930B4A0B4BD31ADB081B0443F003035E
:102710000A491846FEF7E6FA059B184607B05DF829
:1027200004FB00BF64A80200600B0020640B0020C3
:1027300054A402002CA40200ACA80200D0A80200FD
:1027400000B583B00190019B002B03D1064987207F
:1027500000F020FA019B1B6800211846FFF74EFF8E
:1027600000BF03B05DF804FB64A8020000B583B0AD
:102770000190019B002B03D106498D2000F00AFA3D
:10278000019B1B6804211846FFF738FF00BF03B008
:102790005DF804FB64A8020000B587B003900291C5
:1027A00001928DF80330039B002B03D12149962021
:1027B00000F0F0F94FF48032029B02FA03F3059324
:1027C000029B50339BB29B00ADF81230019B23F06B
:1027D0007F430193039B1B6805991846FFF7C2FED0
:1027E000039B1B6805991846FFF721FF039B1B6895
:1027F000BDF8122011461846FFF7CBFE039B1B685D
:10280000019A02991846FFF789FE039B1B680599F8
:102810001846FFF702FF9DF80330002B05D0039BFD
:102820001B6805991846FFF793FE00BF07B05DF8D7
:1028300004FB00BF64A8020000B585B003900291BC
:1028400013468DF80730039B002B03D10B49A920B9
:1028500000F0A0F9039B1B6802991846FFF7DDFE04
:102860009DF80730002B05D0039B1B680299184682
:10287000FFF76EFE00BF05B05DF804FB64A8020020
:1028800000B583B001900091019B002B03D10A4950
:10289000B32000F07FF9019B1B6800991846FFF7F1
:1028A000C6FE019B1B6800991846FFF75BFE00BF40
:1028B00003B05DF804FB00BF64A8020000B583B05C
:1028C00001900B46ADF80230019B002B03D10F495C
:1028D000BA2000F05FF9019B1B68BDF80220114689
:1028E0001846FFF749FE0346002B09D0019B1B68E1
:1028F000BDF8022011461846FFF74BFE012300E009
:102900000023184603B05DF804FB00BF64A8020072
:1029100082B001900091019A009BD31A23F07F436B
:10292000184602B07047000000B58BB003900291CA
:1029300001920093039B002B03D15749CD2000F057
:1029400029F94FF48032029B02FA03F30993029BA8
:1029500050339BB29B00ADF82230019B23F07F43A4
:10296000019309990398FFF78BFF039B1B68184697
:10297000FFF724FE0790039B1B6802991846FFF798
:10298000DBFD0690039B1B68079A02991846FFF728
:10299000C5FD039B1B68BDF8222011461846FFF7B2
:1029A000F8FD07990698FFF7B3FF0346012B0AD1FC
:1029B0001020FFF79BFD039B1B68BDF822201146EA
:1029C0001846FFF7E6FD039B1B681846FFF7F6FD68
:1029D000079007990198FFF79BFF0590039B1B68E1
:1029E00009991846FFF719FE059B012B15D1039B8A
:1029F0001868019B01331A460299FFF78FFD1020DA
:102A0000FFF774FD039B1B681846FFF7D7FD0246CE
:102A1000079B934235D00D2339E0039B1B68019A35
:102A200002991846FFF77AFD039B1B681846FFF7CB
:102A3000C5FD0790019B013B07991846FFF768FF0A
:102A40000590009BC3F1FF1303F57F43059A9A425B
:102A500001D90D231BE0059B002B12D1039B1868A5
:102A6000019B01331A460299FFF758FD039B1B682F
:102A70001846FFF7A3FD0246079B934201D00D23A2
:102A800005E0012209990398FFF7D6FE00231846B6
:102A90000BB05DF804FB00BF64A8020000B583B072
:102AA00001900B468DF803309DF803301A46022141
:102AB0000198FFF7C1FE00BF03B05DF804FB00B54D
:102AC00083B001904FF482710198FFF7F7FE03463F
:102AD000184603B05DF804FB00B583B00190009187
:102AE0004FF48032009B02FA03F319460198FFF776
:102AF000C7FE00BF03B05DF804FB00B585B00190D0
:102B00000091009B50339BB29B00ADF80E30BDF896
:102B10000E3019460198FFF7D1FE0346184605B05E
:102B20005DF804FB00B583B001900091019B1B6828
:102B300000991846FFF700FD0346184603B05DF8FC
:102B400004FB00B583B00190019B1B681846FFF79A
:102B500035FD0346184603B05DF804FB00B583B0AD
:102B60000190019B93F904301846FFF74DFC00BF1C
:102B700003B05DF804FB000008B5044B1B68044A71
:102B800012681046984700BF08BD00BF600B0020C8
:102B9000640B002000B585B003460091ADF8063007
:102BA000BDF806300293009B039302AB1A46002146
:102BB00044F20200FEF766FF00BF05B05DF804FBBB
:102BC00086B001900091019B53E8011F8AB2D88919
:102BD00002449889824228BF121A1889824202BF91
:102BE000BFF32F8F002307E0C2EA010243E8012070
:102BF0000028E9D14FF001038DF80F3005900291C4
:102C00000492029A009B1A609DF80F30DBB21846BE
:102C100006B0704784B00190019951E8013FC3EAC2
:102C2000034341E80132002AF7D10392029300BF27
:102C300004B0704786B001900091019B53E8021FD9
:102C40001FFAA1F2D888824202BFBFF32F8F002360
:102C50000DE0D88902449889824228BF121AC1EA3D
:102C6000024243E802200028E8D14FF001038DF82A
:102C70000F30059002910492029A009B1A609DF811
:102C80000F30DBB2184606B0704784B0019001994E
:102C900051E8023FC3EA234341E80232002AF7D158
:102CA0000392029300BF04B0704784B00390029176
:102CB00011461A460B46ADF806301346ADF80430FF
:102CC000029B002B01D10E231FE0BDF80630BDF89A
:102CD0000420B3FBF2F101FB02F29B1A9BB2002B22
:102CE00001D0092311E0039B029A1A60039B002282
:102CF0005A60039B00229A60039BBDF806209A81CC
:102D0000039BBDF80420DA810023184604B0704705
:102D100000B585B001900091009B19460198FFF71E
:102D20004FFF0346002B07D0019B1B68009A1288B7
:102D300013440393039B00E00023184605B05DF89D
:102D400004FB00B583B001900091009B1A88009BA2
:102D50005B889A4204D10198FFF75CFF012300E0F1
:102D60000023184603B05DF804FB00B585B0019060
:102D70000091009B19460198FFF75CFF0346002B6A
:102D800007D0019B1B68009A528813440393039B4E
:102D900000E00023184605B05DF804FB00B583B0E1
:102DA00001900091009B1A88009B5B889A4204D195
:102DB0000198FFF76AFF012300E00023184603B0E3
:102DC0005DF804FB10B487B001900091019B009A5C
:102DD00053E8004F104643E8000191F0000FF7D18F
:102DE000059404900391059B184607B05DF8044BC9
:102DF000704710B487B001900091019B009A53E88E
:102E0000004F44EA020043E8000191F0000FF6D1C0
:102E1000059404900391059B184607B05DF8044B98
:102E2000704710B487B001900091019B009A53E85D
:102E3000004F44EA020043E8000191F0000FF6D190
:102E4000059404900391049B184607B05DF8044B69
:102E5000704710B487B001900091019B009A53E82D
:102E6000004F04EA020043E8000191F0000FF6D1A0
:102E7000059404900391059B184607B05DF8044B38
:102E8000704710B487B001900091019B009A53E8FD
:102E9000004F04EA020043E8000191F0000FF6D170
:102EA000059404900391049B184607B05DF8044B09
:102EB000704710B487B001900091019B009A53E8CD
:102EC000004F04EB020043E8000191F0000FF6D13F
:102ED000059404900391049B184607B05DF8044BD9
:102EE000704710B487B001900091019B009A53E89D
:102EF000004FA4EB020043E8000191F0000FF6D16F
:102F0000059404900391049B184607B05DF8044BA8
:102F1000704700B583B0019001210198FFF769FF68
:102F20000346184603B05DF804FB00B583B001907A
:102F300001210198FFF775FF0346184603B05DF8BD
:102F400004FB00B583B0019000210198FFF781FFD9
:102F50000346184603B05DF804FB00B583B001904A
:102F600000210198FFF78DFF0346184603B05DF876
:102F700004FB000000B583B001900B468DF80330D0
:102F8000019B002B03D10849E820FFF703FE019BBA
:102F9000DA689DF803300199098A01FB03F31344B1
:102FA000184603B05DF804FB08A9020000B583B021
:102FB00001900091019B002B03D10849F520FFF7F8
:102FC000E9FD009B019AD2689B1A019A128AB3FB11
:102FD000F2F3DBB2184603B05DF804FB08A9020067
:102FE00000B585B00190019B002B01D10E234CE070
:102FF000019B1B68002B03D12649FF20FFF7CAFD68
:10300000019B5B68002B04D122494FF48070FFF7CD
:10301000C1FD019B9B68002B04D11E4940F20110A9
:10302000FFF7B8FD019BDB68002B04D119494FF471
:103030008170FFF7AFFD019B1B8A002B04D115495E
:1030400040F20310FFF7A6FD019B9A68019B5B68A5
:10305000D31A8DF80F30019B1B68019A52681A60D1
:1030600007E0019B1A681368591C11609DF80F2036
:103070001A709DF80F305A1E8DF80F20002BF0D1DA
:10308000019B1B6800221A710023184605B05DF8E9
:1030900004FB00BF08A9020000B585B00190019BA8
:1030A000002B04D11C494FF49270FFF773FD0023ED
:1030B00003930020FFF746F9019B1B681A68019BE8
:1030C0005B689A421FD9019B1B681A68013A1A6013
:1030D0001B681B7819460198FFF74CFF0390019B72
:1030E0009A68019B1B681B68D31A8DF80B30019BF3
:1030F0001B681B799DF80B209A4204D9019B1B6821
:103100009DF80B201A710020FFF730F9039B184639
:1031100005B05DF804FB00BF08A9020010B584B03B
:1031200001900091019B002B04D1114940F24710FE
:10313000FFF730FD009B002B04D10D494FF4A47024
:10314000FFF728FD009B03930020FFF7FBF8019B8E
:103150001B681C68621C1A6003990198FFF726FF20
:10316000034623700020FFF701F900BF04B010BD33
:1031700008A9020000B583B00190019B002B03D188
:103180000C493120FFF706FD019B9B68002B0CD0FA
:10319000019B5B69019A1069019A1168019A926812
:1031A0009847019B00229A6000E000BF03B05DF8E1
:1031B00004FB00BF54A902000EB400B584B0019016
:1031C000019B002B03D118494220FFF7E3FC019B30
:1031D0005B69002B03D114494320FFF7DBFC019B03
:1031E0001B68002B03D110494420FFF7D3FC019B3F
:1031F0005B68002B03D10C494520FFF7CBFC059BF6
:10320000002B0AD00023039306AB039303AB1A46AB
:103210000599019800F0B0F900E000BF04B05DF836
:1032200004EB03B0704700BF54A9020000B583B09F
:1032300001900B468DF80330019B1A68019B9B6837
:10324000581C0199886013449DF803201A70019B53
:103250009A68019B5B689A4202D30198FFF78AFF44
:1032600000BF03B05DF804FB00B587B00390029186
:103270000192009300230593009B03F00103002BB0
:1032800024D00BE0029B01330293059B013305938D
:103290009DF8133019460398FFF7C8FF029B1B786F
:1032A0008DF813309DF81330002BEBD106E0019B15
:1032B000013B019320210398FFF7B8FF019A059B7A
:1032C0009A422ED9019B002BF1D12AE0029B002BC0
:1032D0000BD0029826F047FD059006E0019B013BCC
:1032E000019320210398FFF7A1FF019A059B9A42C1
:1032F0000FD9019B002BF1D10BE0029B013302930C
:10330000059B013305939DF8133019460398FFF789
:103310008DFF029B1B788DF813309DF81330002B26
:10332000EBD100BF07B05DF804FB000000B589B029
:103330000390029101920093029B0793012306934D
:1033400007E0079A019BB2FBF3F30793069B013357
:103350000693079A019B9A42F3D2009A069B9A42DF
:1033600001D9009B06930B9B03F00103002B22D194
:103370000A9B002B1FD00B9B03F00203002B06D0EF
:10338000009B002B03D130238DF8173002E020235F
:103390008DF8173008E00A9B013B0A939DF817301F
:1033A00019460398FFF742FF0A9B002B03D0069AA9
:1033B0000A9B9A42EFD301230793009B012B03D969
:1033C000009B013B009309E0029A079BB2FBF3F3D9
:1033D0000493049A019B9A4200D205E0079B019A4C
:1033E00002FB03F30793E8E7029A079BB2FBF3F3B0
:1033F0000493049B079A02FB03F3029AD31A0293E5
:10340000154A049B13441B7819460398FFF70EFFD7
:10341000079A019BB2FBF3F30793079B002BE3D1C1
:103420000B9B03F00103002B11D00A9B002B0ED045
:1034300006E00A9B013B0A9320210398FFF7F6FE62
:103440000A9B002B03D0069A0A9B9A42F1D300BF35
:1034500009B05DF804FB00BFDCA9020000B589B02B
:103460000590049103920293049B002BB8BF5B422A
:1034700006930123079307E0039B069A92FBF3F35D
:103480000693079B01330793039B069A9A42F3DA4C
:10349000029A079B9A4201D9029B07930A9B002B31
:1034A0000AD0049B002B04DB0B9B03F00403002BCE
:1034B00002D00A9B013B0A930B9B03F00203002BF3
:1034C00002D0029B002B16D00B9B03F00103002BB4
:1034D00011D10A9B002B0ED006E00A9B013B0A93F8
:1034E00020210598FFF7A2FE0A9B002B03D0079A24
:1034F0000A9B9A42F1D3049B002B07DA049B5B42A0
:1035000004932D210598FFF791FE08E00B9B03F033
:103510000403002B03D02B210598FFF787FE0B9B9C
:1035200003F00203002B19D00B9B03F00103002BC7
:1035300014D1029B002B11D10A9B002B0ED006E068
:103540000A9B013B0A9330210598FFF76FFE0A9B07
:10355000002B03D0079A0A9B9A42F1D304990B9B44
:1035600001930A9B0093029B039A0598FFF7DEFEE6
:1035700000BF09B05DF804FB00B58FB00590049161
:103580000392059B002B04D1AD4940F25220FFF776
:1035900001FB059B5B69002B04D1A9494FF4157011
:1035A000FFF7F8FA059B1B68002B04D1A44940F2F1
:1035B0005520FFF7EFFA059B5B68002B04D1A0496B
:1035C00040F25620FFF7E6FA049B002B00F09381AF
:1035D000049B1B788DF83730049B013304939DF8CE
:1035E0003730002B00F07E819DF83730252B40F0DE
:1035F0006D8100230A9301230C93049B1B788DF8A3
:1036000037309DF83730302B0DD0302B1BDC2B2B77
:1036100011D02D2B17D10A9B43F001030A93049B71
:103620000133049312E00A9B43F002030A93049BC4
:10363000013304930AE00A9B43F004030A93049BBA
:103640000133049302E000230C9300BF0C9B002B7A
:10365000D3D1002309939DF837302A2B0CD1039B3B
:103660001B68191D039A11601B68099A134409937A
:10367000049B013304931AE0049B1B788DF83730C8
:103680009DF837302F2B12D99DF83730392B0ED8B3
:10369000049B01330493099A13469B0013445B0077
:1036A0001A469DF837301344303B0993D3E7002383
:1036B0000B93049B1B788DF837309DF837302E2BF9
:1036C0001DD1049B01330493049B1B788DF8373084
:1036D0009DF837302F2B12D99DF83730392B0ED863
:1036E000049B013304930B9A13469B0013445B0025
:1036F0001A469DF837301344303B0B93E4E7049BA4
:103700001B788DF837309DF837306C2B03D09DF83F
:103710003730682B07D1049B01330493049B1B783B
:103720008DF83730EFE79DF83730252B00F0C48057
:10373000252BC0F2C680782B00F3C380582BC0F233
:10374000C080583B202B00F2BC8001A252F823F02D
:1037500045380000C3380000C3380000C3380000FB
:10376000C3380000C3380000C3380000C33800006D
:10377000C3380000C3380000C3380000D53700004C
:10378000F7370000C3380000C3380000C33800001A
:10379000C3380000F7370000C3380000C33800000A
:1037A000C3380000C3380000C3380000C33800002D
:1037B00085380000C3380000C338000069380000B5
:1037C000C33800001B380000C3380000C3380000B5
:1037D00045380000039B1B68191D039A11601B6884
:1037E0000C930C9B8DF81F309DF81F3019460598DF
:1037F000FFF71CFD66E0039B1B68191D039A11600F
:103800001B680C930A9B0193099B00930B9B0A2254
:103810000C990598FFF722FE54E0039B1B68191DC5
:10382000039A11601B680C930C990A9B0193099BE6
:1038300000930B9B0A220598FFF778FD42E000BF3A
:1038400094A90200039B1B68191D039A11601B6851
:103850000C930C990A9B0193099B00930B9B1022DC
:103860000598FFF763FD2DE0039B1B68191D039A64
:1038700011601B6808930A9B099A08990598FFF73D
:10388000F3FC1FE0039B1B68191D039A11601B6862
:103890000C9330210598FFF7C9FC78210598FFF7B4
:1038A000C5FC0C99002301930823009308231022E0
:1038B0000598FFF73BFD05E025210598FFF7B6FCCD
:1038C00000E000BF049B0133049305E09DF837300E
:1038D00019460598FFF7AAFC049B1B78002B7FF480
:1038E00077AE00E000BF059B1B7B002B04D0059842
:1038F000FFF740FC00E000BF0FB05DF804FB00BF25
:1039000082B003468DF807309DF90730002B0CDBA1
:103910009DF8073003F01F0205499DF907305B0948
:10392000012000FA02F241F8232000BF02B07047E4
:1039300000E100E082B003468DF807309DF90730C2
:10394000002B13DB9DF8073003F01F0209499DF996
:1039500007305B09012000FA02F2203341F82320EE
:10396000BFF34F8F00BFBFF36F8F00BF00BF02B028
:10397000704700BF00E100E000B583B003468DF85A
:1039800007309DF907301846FFF7BAFF00BF03B0B4
:103990005DF804FB00B583B003468DF807309DF950
:1039A00007301846FFF7C6FF00BF03B05DF804FB01
:1039B00082B001900B468DF803309DF80330019AD8
:1039C0001344184602B0704782B001900B46ADF820
:1039D0000230BDF80230019A1344184602B0704715
:1039E00082B00190019B9B0003F5A0739BB2184627
:1039F00002B0704700B583B001900B468DF80330DC
:103A0000019B1B689DF8032011461846FFF7D0FF65
:103A10000346184603B05DF804FB000010B582B001
:103A200001900091019B5B791A46009B934204D35D
:103A3000094940F27110FFF7ADF8019B1C6800982E
:103A4000FFF7CEFF034619462046FFF7BDFF0346AA
:103A5000184602B010BD00BFECA9020082B0019070
:103A60000B46ADF80230BDF80220019B1344184606
:103A700002B0704782B001900B468DF803309DF87C
:103A80000320019B1344184602B0704782B0019096
:103A90000B468DF803309DF80320019B13441A4612
:103AA0000123136000BF02B0704700B583B00190DE
:103AB000019B1B6808211846FFF7E8FF00BF03B011
:103AC0005DF804FB00B583B001900B468DF8033020
:103AD000019B1B689DF8032011461846FFF7CAFF9B
:103AE0000346184603B05DF804FB00B583B00190AF
:103AF0000B46ADF80230019B1B68BDF80220114651
:103B00001846FFF7ABFF0346184603B05DF804FB09
:103B100082B001900B46ADF80230BDF80230019A38
:103B20001344184602B0704782B003468DF8073040
:103B30009DF807300133DBB2184602B0704700B57C
:103B400085B00190019B1B681846FFF7A5FA034654
:103B50000293029B002B01D100231AE0019B5B68BA
:103B600002AA1146184601F01DFF0390039B002B8B
:103B700001D000230DE0019BDB69DA680132DA60D5
:103B8000019B98690299019B5B6A1A4601F04AFB06
:103B90000123184605B05DF804FB000000B597B09E
:103BA00001900091019B0F93009B1B78042B00F266
:103BB000D38001A252F823F0453C0000F33B000003
:103BC000CD3B0000E53C0000113D000001238DF8D5
:103BD0002C30009B5B680C93009B9B680D930F9BA4
:103BE000DB691B680F9AD26952680BA91046984787
:103BF000C5E00F9BDB6993F82630002B40F0B880BE
:103C00000F98FFF79CFF034683F00103DBB2002B04
:103C100000F0B0800F9BDB6993F82530002B05D0B6
:103C20000F9BDB69012283F82620A3E00023129377
:103C3000129B002B40F09E80534AE6210020FDF7A6
:103C400013FF97E0009B9A680F9BDB695B69D31AAF
:103C50001193119B002B39D00F9BDB6919690F9BC6
:103C6000DB69119A0A441A6100238DF82030009B09
:103C70005A680F9BDB695B6913440993119B0A9394
:103C80000F9BDB6900225A610F9B58680F9BDB6911
:103C900018330022194601F035FF1490149B002BB5
:103CA0000AD000231393139B002B05D1364A40F210
:103CB0000B110020FDF7D8FE0F9BDB691B680F9AE4
:103CC000D269526808A91046984755E0002310931E
:103CD000109B002B50D12C4A4FF48A710020FDF725
:103CE000C3FE49E005AB00221A605A609A600223C5
:103CF0008DF81430009B1B798DF818300F9BDB6911
:103D00001B680F9AD269526805A91046984736E099
:103D1000009B5A680F9BDB695B69D31A0E930F9B5C
:103D2000DB6919690F9BDB690E9A0A441A6102ABC1
:103D300000221A605A609A6003238DF80830009BB5
:103D40005B6803930F9BDB691B680F9AD26952680B
:103D500002A91046984712E000231593159B002BEB
:103D60000CD1094A4FF499710020FDF77DFE05E062
:103D700000BF04E000BF02E000BF00E000BF00BFE2
:103D800017B05DF804FB00BF38AA020000B589B087
:103D90000190019B9B69DB681B0B5BB21846FFF728
:103DA000F9FD019B9B695B68D3F84C350793019B38
:103DB000DB691B69079A9A4227D9019BDB691B695A
:103DC000079AD31A069300238DF80C30019BDB6908
:103DD0009A69019BDB695B6913440493069B059315
:103DE000019BDB695969019BDB69069A0A445A61A8
:103DF000019BDB69079A1A61019BDB691B68019AC9
:103E0000D269526803A910469847019B9B69DB68F9
:103E10001B0B5BB21846FFF7AFFD00BF09B05DF8A2
:103E200004FB00B583B003460091ADF8063000985E
:103E3000FFF7ACFF00BF03B05DF804FB10B59AB00C
:103E40000390029101920093029B5B7F072B01D1AB
:103E50000723ABE1039BDB6993F82730002B01D0EC
:103E60000823A3E1039BDB69019A1A60039BDB69CA
:103E700000221A61039BDB6900229A61039BDB69C4
:103E80000022DA61039BDB6900225A61039BDB6934
:103E90000022DA60039BDB69009A5A60039BDB69AE
:103EA000029A12691A62039BDB69002283F82620BA
:103EB000029B1A7D039BDB69012A0CBF01220022B1
:103EC000D2B283F8252000231893002317930023F0
:103ED000169300231593039B9B68002B4CD0874AB5
:103EE00006AB92E80300186004331980029B5B7FE5
:103EF0001846FFF719FE03468DF81A300023ADF877
:103F00001830039B9868039B1A6A06AB194603F0A6
:103F100075F81390139B002B01D0032346E1039BFC
:103F20009868029B1B695A090123002103F0D8F805
:103F30001390139B002B01D0032337E1039B9B6855
:103F400000211846FFF7BEFD1890039B9B680821CF
:103F50001846FFF7B7FD1790039B9B68042118468E
:103F6000FFF7B0FD1690039B9B684FF4A0711846B5
:103F7000FFF7BBFD15905DE0039BDB68002B4CD089
:103F800000238DF8103000238DF8113000238DF8B8
:103F9000123006238DF813300023059304238DF887
:103FA0001030039B0593029B5B7F1846FFF7BCFD17
:103FB00003468DF81330039BDB6804A9504A18466A
:103FC00003F0F8FA1390139B002B01D00323EDE0CC
:103FD000039BD868029B1A690123002103F036FC79
:103FE000039BDB6800211846FFF704FD1890039B34
:103FF000DB680C211846FFF7FDFC1790039BDB687C
:1040000010211846FFF7F6FC1690039BDB68002191
:104010001846FFF703FD15900CE000231493149B42
:10402000002B05D1374A4FF4F2710020FDF71CFD3B
:104030000323BBE00023199310E0039BDA69199B6B
:1040400008331344184602F0ADFC1390139B002B69
:1040500001D00323AAE0199B01331993199B012B6B
:10406000EBD9039BDB691C7A039B9B69DB684FF4EC
:1040700084711846FFF74CFD0346189A19462046EE
:1040800002F00EFD1390139B002B01D003238DE053
:10409000179B002B0CD0039BDB691B7A17991846E2
:1040A00002F037FD1390139B002B01D003237DE01A
:1040B000039BDB695B7A169A1599184602F0F0FCAF
:1040C0001390139B002B01D003236FE0039B9B698C
:1040D0005B684C33002B17D0039BDB695A7A039B38
:1040E0009B695B684C331946104602F012FD139031
:1040F000139B002B08D0032358E000BF8CAA0200BA
:10410000233E000038AA0200029B5B680893029BD2
:104110001B680993029B9B680A93029BDB680B93C5
:10412000039B9B69DB684FF488711846FFF7F0FC2E
:1041300003460C9300230D9300230E9300230F934B
:10414000029B1B7D8DF84030029B5B7D8DF84130DA
:10415000029B9B691193029B5B7F8DF84830029B09
:104160001B7F8DF84930039B986908A9039B114A6E
:1041700000F098FE1390139B002B01D0139B15E0C9
:10418000039B1B681846FEF72BFF1390139B002B15
:1041900001D0139B0AE0039B5B68184601F046FDC3
:1041A000039BDB69012283F82720139B18461AB072
:1041B00010BD00BF9D3B000000B58BB00190019B7E
:1041C0001B681846FEF768FF0990019BDB69DA68F7
:1041D0000132DA60099B002B0AD100230893089B67
:1041E000002B05D1334A4FF415710020FDF73CFC3C
:1041F000019B9B68002B05D0019B9B681846FFF72D
:1042000054FC08E0019BDB68002B04D0019BDB68B9
:10421000184603F0F9FA019BDB691B7A184602F095
:1042200099FC0790079B002B0CBF01230023DBB2F6
:104230000693069B002B05D11E4A40F26521002003
:10424000FDF712FC019BDB695B7A184602F082FCE9
:104250000790079B002B0CBF01230023DBB20593C3
:10426000059B002B05D1134A40F267210020FDF782
:10427000FBFB019BDB69099A9A61019B9869019B91
:104280005A6A0023099900F06DFF0490049B002BEB
:104290000CBF01230023DBB20393039B002B05D14A
:1042A000044A4FF41B710020FDF7DEFB00BF0BB08A
:1042B0005DF804FB38AA020000B585B003900291B6
:1042C0000192039B9B69019A0299184600F0C2FE75
:1042D0000346184605B05DF804FB000000B589B040
:1042E000039002910192039BDB69D969039BDB690F
:1042F000019A0A44DA61039BDB69DA69039B5B6A12
:104300009A4241D1039BDB69DB69019AD31A029A75
:1043100013440293039BDB690022DA61039B1B6851
:1043200002991846FEF7FAFE039BDB69DA68013A48
:10433000DA60039BDB69DB68002B0ADA0023079352
:10434000079B002B05D11B4A4FF422710020FDF77B
:104350008BFB039BDB6993F82630002B26D0039858
:10436000FFF7EDFB03468DF81B309DF81B30002B4B
:1043700004D1104940F28F20FEF70CFC039BDB694F
:10438000002283F8262011E0039BDB69DA69039B96
:104390005B6A9A420AD900230593059B002B05D13D
:1043A000044A40F296210020FDF75EFB00BF09B0F1
:1043B0005DF804FB38AA020082B003468DF807308E
:1043C0009DF90730002B0CDB9DF8073003F01F022E
:1043D00005499DF907305B09012000FA02F241F816
:1043E000232000BF02B0704700E100E082B0034626
:1043F0008DF807309DF90730002B0DDB9DF8073055
:1044000003F01F0206499DF907305B09012000FAFD
:1044100002F2603341F8232000BF02B0704700BFB2
:1044200000E100E082B0034600918DF807309DF96D
:104430000730002B0ADB009BDAB20C499DF90730EC
:104440005201D2B20B4483F800230BE0009BDAB296
:1044500007499DF8073003F00F03043B5201D2B225
:104460000B441A7600BF02B0704700BF00E100E0C5
:1044700000ED00E082B00190019B1B0B5BB218467F
:1044800002B0704784B001900B46ADF80230BDF821
:104490000230019A134400221A60BDF80230019ADA
:1044A00013441B680393039B00BF04B0704782B0A2
:1044B00001900B46ADF80230BDF80230019A13446A
:1044C0001B68002B14BF01230023DBB2184602B087
:1044D000704782B001900B46ADF80230BDF8023053
:1044E000019A1344184602B0704782B001900091BF
:1044F000019B009AC3F8042300BF02B0704784B048
:104500000190019BD3F880340393019B039AC3F875
:104510008024039B184604B0704782B00190019B31
:104520000822C3F8002500BF02B0704784B0039092
:1045300002910192039B029AC3F80C25039B019AF6
:10454000C3F8142500BF04B0704782B001900B4639
:104550008DF803309DF80330019A134401221A604C
:1045600000BF02B0704782B001900B468DF8033057
:104570009DF80320019B1344184602B0704782B097
:1045800001900B468DF8033013468DF802309DF8EC
:1045900003209DF802301343DBB21A46019BC3F897
:1045A0006C2500BF02B0704782B001900091019B62
:1045B000009AC3F8242500BF02B0704784B003906E
:1045C00002910192029A039BC3F84425039B019A2E
:1045D000C3F8482500BF04B0704782B00190019B2A
:1045E000D3F84C35184602B0704784B0039002915E
:1045F0000192029A039BC3F83425039B019AC3F8E6
:10460000382500BF04B0704782B003468DF80730EC
:104610009DF80730DB0003F1804303F5F8331846BB
:1046200002B0704782B003468DF807309DF807301E
:10463000DB00043303F1804303F5F833184602B07E
:10464000704782B003468DF807309DF8073001228D
:1046500002FA03F3184602B0704700B583B0034670
:104660000A468DF8073013468DF806309DF807305E
:104670001846FFF7E6FF02469DF806301946104639
:1046800002F087FB0346184603B05DF804FB00B553
:1046900083B003468DF807309DF807301846FFF7C2
:1046A000B3FF0346184603B05DF804FB00B583B0C2
:1046B00003468DF807309DF807301846FFF7B2FF24
:1046C0000346184603B05DF804FB82B001900B4628
:1046D0008DF803309DF80330019A1344184602B058
:1046E000704782B001900B468DF803309DF803208F
:1046F000019B02F5A87253F82230184602B07047A9
:1047000082B00190019B9B004033DBB2184602B09F
:10471000704700B583B001900B468DF80330019BC4
:104720001B689DF8032011461846FFF7CEFF03468D
:10473000184603B05DF804FB10B582B001900091FB
:10474000019B5B791A46009B934204D3094940F2CE
:104750006310FEF71FFA019B1C680098FFF7D0FF5B
:10476000034619462046FFF7B0FF0346184602B03D
:1047700010BD00BF94AA020000B583B001900B46A3
:104780008DF80330019B1B689DF8032011461846E5
:10479000FFF7A7FF0346184603B05DF804FB0000CF
:1047A00000B583B00190019B1B68184600F085F8A6
:1047B0000346002B04D105494FF4F670FEF7EAF9E1
:1047C0004FF0A043184603B05DF804FBD0AA0200E6
:1047D00000B585B00190084611461A4603468DF88B
:1047E00003300B468DF8023013468DF8013001ABD3
:1047F0001846FFF7D5FF03909DF803209DF802307F
:104800005B001A439DF801309B001A439DF8183055
:104810001B0242EA03019DF81C301B04019A194354
:10482000039B02F5E07243F8221000BF05B05DF86B
:1048300004FB00B585B0039000230193002300938F
:104840000023012201210398FFF7C2FF00BF05B03A
:104850005DF804FB00B585B003900B468DF80B3076
:104860009DF80B30002201920022009200220021CC
:104870000398FFF7ADFF00BF05B05DF804FB00B57E
:1048800085B0019001AB1846FFF78AFF0390019BAA
:10489000012202FA03F31946039800F004F800BF5E
:1048A00005B05DF804FB82B001900091019B009A75
:1048B000C3F8082500BF02B0704784B00190019B87
:1048C0005B09029300230393029B002B03D14FF05B
:1048D000FF33039300BF019B03F01F030193039A6F
:1048E000019B22FA03F303F00103002B14BF012301
:1048F0000023DBB2184604B0704700B587B00390C0
:10490000029101920093039802F04CF80590059BE8
:10491000002B01D004231CE0039B1B78019A029911
:10492000184602F0BDF80590059B002B01D003232B
:104930000FE0009B002B0BD0039B1B7800991846BF
:1049400002F0E7F80590059B002B01D0032300E05F
:104950000023184607B05DF804FB00B587B003904C
:10496000019200930B468DF80B30039802F05EF92C
:104970000590059B002B01D004232DE0039B1A78A2
:104980009DF80B3011461846FFF767FE0590059B12
:10499000002B01D003231FE09DF82030002B0AD00C
:1049A000039B1B78184602F0C7F90590059B002B66
:1049B00001D0032310E0039B1B781846FFF767FE26
:1049C0000246019B1A60039B1B781846FFF76EFE98
:1049D0000246009B1A600023184607B05DF804FBEE
:1049E00000B585B00190019B1B78184602F0E7F8EE
:1049F0000390039B002B03D00B49B320FEF7CAF8AA
:104A0000019B1B78184602F021F80390039B002BB2
:104A100003D00549B520FEF7BDF8019B14221A709A
:104A200000BF05B05DF804FB0CAB020000B585B01B
:104A30000190019B1B78184602F047F90390039BF5
:104A4000002B03D00549BE20FEF7A4F8019B0622E7
:104A50001A7000BF05B05DF804FB00BF0CAB02008C
:104A600000B585B001900023039310E0019B1A6804
:104A7000039B13441B78132B06D8019B1A68039BD6
:104A800013441846FFF7ACFF039B01330393039BCA
:104A9000082BEBDD0023029313E0019B1A68029BB5
:104AA000134409331B78052B08D8019B1A68029B15
:104AB0000833134401331846FFF7B8FF029B013354
:104AC0000293029B012BE8DD00BF00BF05B05DF83B
:104AD00004FB000000B585B00190019B1B781846CF
:104AE00002F038F80390039B002B03D00349CF203A
:104AF000FEF750F800BF05B05DF804FB0CAB0200F8
:104B000000B585B00190019B1B78184602F057F85C
:104B10000390039B002B03D00349D720FEF73AF8FC
:104B200000BF05B05DF804FB0CAB020000B585B01A
:104B300001900023039310E0019B1A68039B134428
:104B40001B78132B06D8019B1A68039B1344184645
:104B5000FFF7C0FF039B01330393039B072BEBDDA0
:104B600000BF00BF05B05DF804FB00B585B0019043
:104B70000823039310E0019B1A68039B13441B78DE
:104B8000132B06D8019B1A68039B13441846FFF7A2
:104B9000A1FF039B01330393039B082BEBDD00BFB5
:104BA00000BF05B05DF804FB00B585B00190082397
:104BB000039310E0019B1A68039B13441B78132B8B
:104BC00006D8019B1A68039B13441846FFF798FF09
:104BD000039B01330393039B082BEBDD00BF00BF56
:104BE00005B05DF804FB70B58CB003900291002312
:104BF00008930023079300230693002305930023C3
:104C00000A9308E0039B1A680A9B134414221A7043
:104C10000A9B01330A930A9B082BF3DD00230993B7
:104C200009E0039B1A68099B1344093306221A7092
:104C3000099B01330993099B012BF2DD039B1B6840
:104C400003F10804039BDB684FF490711846FFF7EB
:104C500040FC0546039BDB6808211846FFF783FCF0
:104C60000246002329462046FFF747FE0B900B9B88
:104C7000002B40F0F080039B1B681C1D039BDB682E
:104C80004FF484711846FFF724FC0546039B043358
:104C900008211846FFF73DFD02460023294620461D
:104CA000FFF72BFE0B900B9B002B40F0D680039B55
:104CB0001B685C1D039BDB684FF488711846FFF787
:104CC00008FC0546039BDB6800211846FFF74BFCF8
:104CD0000646039B043300211846FFF72DFD0346CB
:104CE000324629462046FFF708FE0B900B9B002B0F
:104CF00040F0B580029B5B69002B6CD0029BDB69A6
:104D0000002B68D0039B1B689C1D039BDB684FF442
:104D100088711846FFF7DDFB0546039B043300212D
:104D20001846FFF709FD0246029BDB69294620462B
:104D3000FFF7E3FD0B900B9B002B40F09280039B51
:104D40001B6803F10900039B1B68597907AB08AA8C
:104D500001240094FFF701FE0B900B9B002B40F009
:104D60008280039B1B6803F10A00039B1B689979EF
:104D700005AB06AA00240094FFF7EFFD0B900B9BF8
:104D8000002B72D1039B1B689C1C029B5D69039BDB
:104D9000DB6804211846FFF7E6FB0646039B043355
:104DA00001211846FFF7C8FC034632462946204633
:104DB000FFF7A3FD0B900B9B002B58D1039B1B68A7
:104DC000D81C029B5969079A069BFFF796FD0B902A
:104DD0000B9B002B4DD1029B9B69002B02D1059BA5
:104DE000002B1FD0039B1B685C1C039BDB684FF4EC
:104DF000A6711846FFF76DFB0146059B002B02D1FB
:104E0000029B9A6900E0059A059B002B02D0029B49
:104E10009B6900E000232046FFF76FFD0B900B9B82
:104E2000002B28D1029B1B69002B26D0039B1B68FB
:104E30001D46029B1C69039BDB6800211846FFF797
:104E400092FB0246089B21462846FFF756FD0B9031
:104E50000B9B002B12E000BF10E000BF0EE000BF74
:104E60000CE000BF0AE000BF08E000BF06E000BFA2
:104E700004E000BF02E000BF00E000BF0B9B002B7E
:104E800001D10B9B03E00398FFF7EAFD0B9B18464B
:104E90000CB070BD82B003460091ADF8063000BF83
:104EA00002B0704700B58BB003900291019200935D
:104EB000039BDB681846FFF7DDFA03468DF82730C1
:104EC000039B1B6893F83C30002B01D00823B4E00F
:104ED000039B1B68019A5A62039B1B6800229A611C
:104EE000039B1B680022DA61039B1B6800221A6285
:104EF000039B1B680022DA60039B1B68009A5A63BD
:104F0000039B1B68FF2283F83A20039BDB684D4A12
:104F1000934214BF01230023DBB219464A4A039B84
:104F200042F82130029B1B681846FFF7A8FC029B41
:104F30001B681846FFF77DFC029B5A68029B93F89A
:104F40002930002B01D0032300E00023194610462E
:104F5000FFF780FC039BDA68029B5B6A19461046E8
:104F6000FFF722FB039BD868029B93F82110029B5A
:104F700093F820301A46FFF702FB039BD868029B88
:104F80001968029B5B681A46FFF7D0FA029B93F8F8
:104F90002030012B01D107234FE0039BDB682B4915
:104FA0001846FFF7A2FA029B93F828301A469DF99B
:104FB000273011461846FFF735FA9DF92730184675
:104FC000FFF714FA9DF927301846FFF7F5F9039B10
:104FD000DB681846FFF7A1FA00238DF8183000238C
:104FE0008DF8193000238DF81A3006238DF81B3008
:104FF0000023079301238DF8193003238DF81A300D
:10500000039B043306A9124A184602F0D3FA08900B
:10501000089B002B01D003230FE002990398FFF7B0
:10502000E2FD0890089B002B01D0032305E0039BC1
:105030001B68012283F83C20002318460BB05DF862
:1050400004FB00BF002000406C0B00201003480050
:10505000954E000000B587B0039002910192039B2A
:105060001B68DB68002B01D0112375E0039B1B68D4
:10507000029ADA60039B1B68019A1A61039B1B6802
:1050800000225A61019BFF2B07D8019BADF8163017
:10509000039B1B6800221A871FE0019BFE33304AE6
:1050A000A2FB0323DB090493019A049BB2FBF3F2F6
:1050B000039B1B6892B21A87039B1B68198F039B83
:1050C0001B681B8F1A46019BB3FBF2F000FB02F238
:1050D0009B1A9BB20B44ADF81630039BDB68BDF8FE
:1050E000162002991846FFF769FA039BDB684FF414
:1050F000A8711846FFF7C6F9039BDB68082118461C
:10510000FFF723FA019BFF2B25D900BF039BDB6828
:105110004FF4A8711846FFF7CAF9034683F001035C
:10512000DBB2002BF2D1039BDB684FF4A871184669
:10513000FFF7A8F90398FFF718FD039BD868039BB6
:105140001B68DA68BDF81630D118039B1B681B8FEB
:105150001A46FFF733FA0023184607B05DF804FB40
:105160008180808000B585B00390029101928DF816
:105170000330019BFF2B04D9294940F26120FDF740
:1051800009FD039B1B689B69002B01D0112342E0A2
:10519000039B1B68019A1A63029B002B0AD0039B96
:1051A0001B68029A9A61039BDB68019A0299184670
:1051B000FFF71BFA039B0433184602F0F7FA039B30
:1051C0000433184602F020FB039B1B6800229A62FE
:1051D000039B1B680022DA62039BDB684FF4887133
:1051E0001846FFF74FF9039BDB684FF4A67118468A
:1051F000FFF748F90398FFF799FC9DF8033083F017
:105200000103DBB2002B05D0039BDB6800211846AD
:10521000FFF79BF90023184605B05DF804FB00BFBB
:105220000CAB020000B585B0039002910192039B84
:105230001B68DB69002B0BD1039B1B68029ADA61A8
:10524000039BDB68019A02991846FFF7CEF903E049
:10525000039B1B68029A1A6200BF05B05DF804FB4D
:1052600000B59BB00190019BDB684FF4927118462A
:10527000FFF71DF90346002B20D0019BDB684FF49C
:1052800092711846FFF7FEF80EAB00221A605A60C2
:105290009A6003238DF83830019BDB681846FFF7CE
:1052A0002EF90346DBB28DF83C30019B1B685B6A2C
:1052B000019A1268526B0EA910469847019BDB6851
:1052C0004FF4A6711846FFF7F2F80346002B17D0EB
:1052D000019BDB684FF4A6711846FFF7D3F80BABC0
:1052E00000221A605A609A6001238DF82C30019BCD
:1052F0001B685B6A019A1268526B0BA910469847AB
:10530000019BDB684FF488711846FFF7D0F803461D
:10531000002B00F09B80019BDB684FF488711846DE
:10532000FFF7B0F8019B043300211846FFF724FA79
:105330001790019B043301211846FFF71DFA1690C0
:10534000019B1B689B6A179AD31A1593019B1B68D4
:10535000DB6A169AD31A1493019B1B68179A9A62F8
:10536000019B1B68169ADA62159B002B02D1149BD5
:10537000002B6BD0019B1B681B6B159A934228BFB7
:1053800013461993159A199BD31A189300238DF875
:105390002030019B1B689B690993199B0A93019B11
:1053A0001A68019B1B68D2699A61019B1B680022E5
:1053B000DA61019B1B681B6A002B14D0019B1A68E1
:1053C000019B1B68126ADA61019B1B6800221A624A
:1053D000019BD868019B1B68D969019B1B681B6BEB
:1053E0001A46FFF702F9019B1B685B6A019A126873
:1053F000526B08A910469847189B002B09D1019BB6
:105400001B681B6B159A9A4220D1179A169B9A42D9
:105410001CD105AB00221A605A609A6004238DF8F3
:105420001430189B0693019B1B685B6A019A1268F3
:10543000526B05A910469847019B1A68019B1B688F
:10544000D2699A61019B1B680022DA61019BDB68CB
:105450004FF4AC711846FFF72AF80346002B1ED014
:10546000019BDB684FF4AC711846FFF70BF8022381
:105470008DF80830019B1B68DB680393019B1B6858
:105480001B690493019B1B680022DA60019B1B6867
:105490005B6A019A1268526B02A910469847019BF9
:1054A000DB684FF490711846FFF701F80346002BB4
:1054B00067D0019BDB684FF490711846FEF7E2FF5E
:1054C000019BDB681846FFF788F81390019B1B6867
:1054D0005969019B1B68139A0A445A61019B1B6816
:1054E0005A69019B1B681B699A420DD1019BDB68BD
:1054F0004FF4AC711846FEF7C5FF019BDB680C2129
:105500001846FFF722F83CE0019B1B681A69019BD3
:105510001B685B69D31A1293129BFF2B03D8019867
:10552000FFF742FB2DE0019B1B68DA68019B1B68BB
:105530005B6901990968098F0B4413441193019B1E
:10554000DB684FF4A8711846FEF7B1FF034683F0FD
:105550000103DBB2002B04D00C4940F24B30FDF7C5
:1055600019FB019BDB684FF4A8711846FEF78AFF10
:10557000019BD868019B1B681B8F1A461199FFF786
:105580001DF800BF1BB05DF804FB00BF0CAB0200B0
:1055900008B5034B1B681846FFF762FE00BF08BD45
:1055A0006C0B002000B583B001900198FDF718FD49
:1055B0000346184603B05DF804FB00B58BB00190BC
:1055C0000091019B1B8A043B0793009A079B13449D
:1055D000DA1C079BB2FBF3F38DF81B300198FDF743
:1055E0005BFD0590059B002B01D1002338E0059B56
:1055F00000221A71059B01225A71079B9AB2059BE2
:10560000DA80059B09939DF81B30013B0493099BAD
:10561000019A1A60002308931DE00198FDF73CFDF4
:105620000390039B002B0ED0059B5B790133DAB20C
:10563000059B5A71099B039A1A60039B019A1A6091
:10564000039B099304E0059800F00EF8002307E09F
:10565000089B01330893089A049B9A42DDD3059B6B
:1056600018460BB05DF804FB00B58BB00190019BB0
:105670000793079B5B798DF81B30019B08939DF87E
:105680001B30013B05930023099305E0089B1B6831
:105690000893099B01330993099A059B9A42F5D314
:1056A000089B1B680493019B0893002309930BE05C
:1056B000089B1B68039308990498FDF72FFD039B33
:1056C0000893099B013309939DF81B30099A9A426C
:1056D000EED300BF00BF0BB05DF804FB00B585B092
:1056E0000190019B0393039B043301211846FDF7AE
:1056F000E0FB00BF05B05DF804FB00B587B001908A
:10570000019B0593059B043301211846FDF7E9FB36
:105710000346039303AB0493049B1B78002B02D135
:105720000198FFF7A1FF00BF07B05DF804FB000080
:1057300000B591B00390029101920093039B002B5E
:1057400003D14349B620FDF725FA039B0993039B38
:105750000F93099BDB881A46099B5B7902FB03F3D5
:10576000043B0893009A089B9A4203D33849C4200B
:10577000FDF710FA099BDB880793009B1A1D079B16
:10578000B2FBF3F30E93009B0433079AB3FBF2F2E0
:10579000079901FB02F29B1A0D93019B1A68009B6B
:1057A0001344089A9A4203D2089A009BD31A01E044
:1057B000019B1B680C93019B0C9A1A6005E00F9BE0
:1057C0001B680F930E9B013B0E930E9B002BF6D193
:1057D00000230B93079A0D9BD31A0A930A9A0C9BEA
:1057E000934228BF13460A932AE0029A0B9B134464
:1057F00006930F9A0D9B1344043305939DF848308C
:10580000002B05D00A9A0599069824F007FA04E0BF
:105810000A9A0699059824F001FA00230D930F9B2C
:105820001B680F930C9A0A9BD31A0C930B9A0A9B32
:1058300013440B93079A0C9B934228BF13460A9379
:105840000C9B002BD1D100BF00BF11B05DF804FB51
:1058500060AB020000B589B00590049103920293F9
:10586000039B079307AA00230093029B04990598C2
:10587000FFF75EFF079B039A9A4203D00349F62085
:10588000FDF788F900BF09B05DF804FB60AB0200CA
:1058900000B589B00590049103920293039B07938E
:1058A00007AA01230093029B04990598FFF740FF84
:1058B000079B039A9A4204D004494FF48070FDF785
:1058C00069F900BF09B05DF804FB00BF60AB0200DE
:1058D00082B00190019B9B68024A127813441846DB
:1058E00002B07047F3AB020000B583B001900091A5
:1058F000019B002B03D108498320FDF74BF9019B45
:105900009B68009A9A4202D2009B013300E0002378
:10591000184603B05DF804FBACAB020000B585B0DF
:105920000190019B1B681B680393019B1B685B68CC
:105930000293029A039B9A4203D3029A039BD31ABF
:1059400007E00198FFF7C4FF0246039BD21A029BAF
:105950001344184605B05DF804FB000000B585B09F
:105960000190019B002B03D10D499820FDF712F9FE
:10597000019B1B681B680393019B1B685B68029378
:1059800002990198FFF7B0FF0246039B93420CBFB8
:1059900001230023DBB2184605B05DF804FB00BF0D
:1059A000ACAB020010B586B00190009100230593C6
:1059B000019B002B03D15249A320FDF7EBF8009B7C
:1059C000002B03D14E49A420FDF7E4F80020FCF79A
:1059D000B9FC0198FFF7C2FF03468DF813309DF81C
:1059E000133083F00103DBB2002B03D1019B1B7C3E
:1059F000002B7AD1019B1B685B680393019B1B689A
:105A00005A68019B1C6811460198FFF76DFF034619
:105A100063609DF81330002B0AD0019B1B681A6845
:105A2000019B1C6811460198FFF75EFF0346236047
:105A3000019BDB68013B072B37D801A252F823F00A
:105A4000615A0000715A0000AB5A0000835A0000EE
:105A5000AB5A0000AB5A0000AB5A0000955A000048
:105A6000019B5A68039B1344009A12781A702DE028
:105A7000019B5A68039B5B001344009A12881A80AA
:105A800024E0019B5A68039B9B001344009A126810
:105A90001A601BE0019B5A68039BDB00D118009B36
:105AA000D3E90023C1E9002310E0019B5B6819469C
:105AB000019BDB68039A02FB03F30B441846019B2E
:105AC000DB681A46009924F0A9F800BF0198FFF797
:105AD00025FF0290019B1B689B68029A9A4207D996
