:020000040800F2
:100000007017002071020008770A000859090008DB
:10001000750A00082B0500084D1B000800000000B1
:10002000000000000000000000000000B101000816
:10003000CD050008000000000D0200088B16000826
:100040008B0200088B0200088B020008C114000814
:100050008B0200088B020008CF0500088B02000805
:100060008B0200088B0200088B0200088B0200083C
:100070008B0200088B0200088B0200088B0200082C
:100080008B0200088B0200088B0200088B0200081C
:100090008B0200088B0200088B0200088B0200080C
:1000A0008B0200088B0200088B0200088B020008FC
:1000B000551700088B0200088B0200088B0200080D
:1000C0008B0200088B0200088B0200088B020008DC
:1000D0008B0200087D1800088B0200088B020008C4
:1000E000E90500088B0200088B0200088B0200085B
:1000F0008B0200088B0200088B0200088B020008AC
:100100008B0200088B0200088B0200088B0200089B
:100110008B020008B11700088B0200088B02000850
:100120008B0200088B0200088B0200088B0200087B
:100130008B0200088B0200088B0200088B0200086B
:100140008B0200088B0200088B0200088B0200085B
:100150008B0200088B0200088B0200088B0200084B
:100160008B0200088B0200088B0200088B0200083B
:100170008B0200088B0200088B0200088B0200082B
:100180008B0200088B0200088B0200088B0200081B
:100190008B0200088B020008DFF810D000F090F806
:1001A00000480047E91D0008AFF3008070170020E9
:1001B0002C4B19680868B0E8F04F80F30988BFF34A
:1001C0006F8F4FF0000080F311887047000000002F
:1001D00008480068006880F308884FF0000080F34A
:1001E000148862B661B6BFF34F8FBFF36F8F00DF25
:1001F00000BF00BF08ED00E0DFF80C00016841F42B
:1002000070010160704700BF88ED00E0EFF30980E6
:10021000BFF36F8F134B1A681EF0100F08BF20ED4D
:10022000108A20E9F04F106009B44FF0500080F3BD
:100230001188BFF34F8FBFF36F8F01F033FE4FF084
:10024000000080F3118809BC19680868B0E8F04F15
:100250001EF0100F08BFB0EC108A80F30988BFF3BE
:100260006F8F704728000020EFF305807047000073
:100270000648804706480047FEE7FEE7FEE7FEE740
:10028000FEE7FEE7FEE7FEE7FEE7FEE7A116000851
:100290009901000830B50B460146002020220124B8
:1002A00009E021FA02F59D4205D303FA02F5491B44
:1002B00004FA02F52844151EA2F10102F1DC30BD5A
:1002C000064C074D06E0E06840F0010394E80700A3
:1002D00098471034AC42F6D3FFF762FF582000086D
:1002E00078200008014800F091B80000000C02409E
:1002F000816D21F010018165704700002DE9F0410A
:100300008846184C184D194E194F002814D0012159
:10031000404600F02DFC002000F020FC204600F0BC
:100320009FF8284600F09CF8304600F099F83846CF
:10033000BDE8F04100F094B800214FF4807000F067
:1003400017FC404600F00AFC2046FFF7D1FF284684
:10035000FFF7CEFF3046FFF7CBFF3846BDE8F04150
:10036000FFF7C6BF00080240000C02400018024020
:10037000001C02400022002904D0816841F00101E4
:10038000816003E0816821F0010181604FF4947085
:10039000521C8242FCD37047014600208A685207F3
:1003A00000D50120496D002900D000207047024689
:1003B0000020926D0A4200D00120704710B500F174
:1003C00060022823136043680E4A13400C790A68C0
:1003D00043EA04231A43426082680B4B1A40D1E976
:1003E000024323434C7942EA440213438360C26AC6
:1003F00022F47002097C491EC9B242EA0151C1626D
:1004000010BD0000FFFEF0FFFDF7F1FF10B5044640
:1004100000F022FC00F02CFA10480021016001716C
:1004200041714FF460228260C16001210174014674
:100430002046FFF7C3FF01212046FFF79BFF202145
:100440002046FFF7B4FF0028F9D0204600F00DF851
:100450002046FFF7A1FF0028FAD110BD6801002057
:10046000816D41F01001816570470021426D002AC5
:1004700003D1826842F0040282604FF49470491CF8
:100480008142FCD3704700002DE9F84301210C2084
:1004900000F04AFC4FF48054ADF8004010268DF86F
:1004A000036003258DF80250194F6946384600F065
:1004B000EDF96200ADF800206946384600F0E6F933
:1004C0000822ADF80020DFF84C806946404600F075
:1004D000DDF9E000ADF800006946384600F0D6F9D5
:1004E000ADF8006004208DF803008DF802506946D5
:1004F000404600F0CBF9A000ADF800006946384650
:1005000000F0C4F92146384600F013FABDE8F8833C
:10051000000C01400008014010B5012000F020FC53
:10052000BDE81040002000F01BBCFEE710B586B00F
:100530000121080500F0DCFB01211D2000F0F4FB87
:1005400001211F4800F0E2F84FF40070ADF81400EC
:1005500004208DF817001B4C05A9204600F096F9E1
:10056000A115ADF8141003218DF8161018218DF87F
:10057000171005A9204600F089F94FF4E1300190E9
:100580000020ADF80800ADF80A00ADF80C00ADF899
:1005900010000C20ADF80E000B4C01A9204601F014
:1005A00075FA00F07BFA012240F22551204601F055
:1005B000ABF90121204601F035FA06B010BD00006C
:1005C000C0003640000C014000500040704710B59C
:1005D000012000F027F8002804D0BDE810400120D9
:1005E00000F01AB810BD000010B54FF4806420462A
:1005F00000F018F800280BD0204600F00DF801F0AC
:100600004FF8044801F09CF9BDE8104001F0EAB849
:1006100010BD00000038014001490860704700002B
:100620001404014001460020054A12680A40044BA8
:1006300014331B680B4202D0002A00D001207047FF
:100640000004014030B51B4A83790168002B2AD091
:1006500013688B431360111D0B680468A3430B6080
:10066000017911440B68046823430B60114C083472
:100670002168036899432160231D19680568A9430F
:1006800019604179102905D011440A6800680243B5
:100690000A6030BD21680268114321601968006852
:1006A0000143196030BD0079104402688A4302603A
:1006B00030BD00000004014004490A6822F0100225
:1006C0000A600A6802430A60704700000020024086
:1006D000034A116801F0F8010143116070470000FE
:1006E0000020024010B58A07120F0F23934021F01B
:1006F0000304054921448C689C438C608B689040BE
:1007000003438B6010BD000000000140F0B5564B64
:10071000420001D51A6A08E0820001D55A6A04E055
:10072000C20001D59A6A00E05A6886B24F4C00EACE
:100730000407C0F34054250184B2AC40B7F5401F14
:100740000FD0C70217D586024FF00305C0F3034749
:1007500005FA07F500D52D04AA4310F0E04F07D0A5
:1007600071E022F070625D6825F070655D606AE09E
:1007700042F0706267E0C7012ED5470719D58501A1
:100780000FD5A24331B15D6845F0010545F07065B4
:100790005D6058E05D6825F0010545F070655D60BD
:1007A00051E0A2435D6825F0010545F070655D608C
:1007B00049E046F00406AE40B24331B15D6845F011
:1007C000010545F070655D603DE05D6825F001055F
:1007D00045F070655D6036E047012ED5070719D5F5
:1007E00085010FD5A24331B15D6845F0080545F09C
:1007F00070655D6027E05D6825F0080545F070656F
:100800005D6020E0A2435D6825F0080545F0706555
:100810005D6018E046F00806AE40B24331B15D6855
:1008200045F0080545F070655D600CE05D6825F0F9
:10083000080545F070655D6005E0A24310F0E04FEB
:1008400001D142F0706201B12243410001D51A6228
:10085000F0BD810001D55A62F0BDC00001D59A6299
:10086000F0BD5A60F0BD0000000001400000307093
:1008700008B52020ADF8000000208DF8030069467F
:10088000014800F003F808BD000801402DE9F041DF
:100890000022CC7804F00F03E40601D58C782343C2
:1008A0000C784FF00F0714F0FF0F4FF0010C1CD025
:1008B00005680CFA02F40E882640A64211D1960073
:1008C00007FA06F825EA080503FA06F848EA0505D6
:1008D000CE78282E02D0482E02D002E0446100E0FB
:1008E0000461521C082AE4D305600A88FF2A1ED935
:1008F0004568002202F108060CFA06F40E8826402C
:10090000A64210D1960007FA06F825EA080503FA70
:1009100006F848EA0505CE78282E00D14461CE7845
:10092000482E00D10461521C082AE3D34560BDE87B
:10093000F0814161704701617047000010B50549C1
:10094000002000F0CFFC0349BDE81040083900202A
:1009500000F090BC0C000020FEE77FB505460C4679
:100960000121042000F0E0F9ADF80C4004218DF8DD
:100970000F1003218DF80E1003A92846FFF786FFFC
:1009800000210846FFF7AEFE0124019400258DF8F2
:10099000085008208DF809008DF80A4001A8FFF7DB
:1009A00051FE06208DF800008DF801508DF80250A0
:1009B0008DF80340684600F083F87FBD10B5012133
:1009C000080700F095F9012000F0B6F8002000F0CB
:1009D000C7F9BDE8104001210148FFF7BEBF000084
:1009E00000080140054A012803D001211046FFF705
:1009F000A0BF01211046FFF79EBF0000000C014080
:100A000008B50121082000F08FF90120ADF80000A1
:100A100010208DF8030003208DF80200694602487B
:100A2000FFF734FF08BD0000000C0140054A012813
:100A300003D080211046FFF77CBF80211046FFF7CE
:100A40007ABF00000008014008B50121042000F031
:100A50006BF98020ADF8000010208DF80300032012
:100A60008DF8020069460248FFF710FF08BD00003C
:100A700000080140FEE7704708B54FF4407000F0F1
:100A800051F825208DF8000006208DF80200012085
:100A90008DF80300684600F013F808BD08B54FF460
:100AA000407000F03FF835208DF8000001208DF8EF
:100AB00002008DF80300684600F002F808BD00004F
:100AC00070B50F23C27801260178002A1ED0144A7F
:100AD000126802F4E062C2F5E062120AC2F1040494
:100AE000D3404578A54082781A402A43120101F18B
:100AF000E02181F80024007800F01F018E404009B9
:100B0000800000F1E020C0F8006170BD01F01F001E
:100B100086404809800000F1E020C0F8806170BD87
:100B20000CED00E0024908430249086070470000EC
:100B30000000FA050CED00E0014908627047000072
:100B400000000E42044BDA6A22F4806222F47842FA
:100B500002430A43DA62704700100240034AD16A36
:100B600021F00F010143D1627047000000100240E4
:100B7000064BDA6A22F4F872002901D0024302E03F
:100B8000024322F48072DA627047000000100240D3
:100B9000034A516821F0F0010143516070470000A1
:100BA000001002400C490A6822F480320A600A6888
:100BB00022F480220A60B0F5803F07D0B0F5802F84
:100BC00003D1086840F4A02008607047086840F42A
:100BD0008030086070470000001002400849002281
:100BE0000A7001F82029012805D0042802D1052027
:100BF00081F820007047012081F820007047000034
:100C000020100240034A516821F4E0610143516021
:100C10007047000000100240034A516821F46051FF
:100C200041EAC000506070470010024004490A6A5F
:100C300022F440720A620A6A02430A6270470000A4
:100C400000100240034A516821F003010143516042
:100C5000704700000010024010B50121042000F090
:100C600063F80121480300F035F807210020FFF761
:100C700045FBBDE810404FF460514FF48060FFF732
:100C800061BF00000F48016841F001010160416847
:100C90000D4A1140416001680C4A11400160016831
:100CA00021F4802101604168094A114041604FF4FC
:100CB0006051C1624FF4615101634FF41F018160C3
:100CC000704700000010024000C0FFF8FFFFF6FE72
:100CD000FFFF00F7054A002903D051690143516124
:100CE0007047516981435161704700000010024014
:100CF000054A002903D0D1690143D1617047D16908
:100D00008143D1617047000000100240054A00296C
:100D100003D0116901431161704711698143116169
:100D20007047000000100240054A002903D0916975
:100D3000014391617047916981439161704700005F
:100D400000100240054A002903D0D1680143D16058
:100D50007047D1688143D1607047000000100240A5
:100D600001490860704700004004424201490860A0
:100D700070470000000042420149086070470000CF
:100D80008004424201490860704700003C0442422E
:100D900030B52E4B59682E4A11405A6802F4803201
:100DA0000C0103D4022404EB914103E06FF4F774C7
:100DB00004EB91412AB15A68920305D5254A514363
:100DC00004E0244A514301E0234A51435A6802F0A7
:100DD0000C02214C92B3042A33D0082A33D0046089
:100DE0005A6802F0F00212091C4CA55C0268EA4045
:100DF00042605D6805F4E0652D0A655D22FA05F53F
:100E000085605D6805F46055ED0A645D22FA04F4BE
:100E1000C460DC6A04F00F04104D10352C5DB2FB89
:100E2000F4F24261DA6A120902F00F0205F11003CE
:100E300033F81220B1FBF2F1016130BDFFE704602D
:100E4000CEE70460CCE70160CAE700000010024072
:100E500000003C0800093D0000127A00182000083C
:100E6000034600205909094A01290AD002290AD05B
:100E7000516A03F01F02012393400B4200D001206E
:100E800070471168F5E7116AF3E7000000100240AF
:100E90000248406800F00C0070470000001002405B
:100EA00018B5002000904FF400443120FFF7D8FF20
:100EB0000099491C00910099A14201D00028F4D06A
:100EC0003120FFF7CDFF08B1012018BD002018BD6B
:100ED000010901EB8101490000F00F000844C0B294
:100EE0007047002103E0491CC9B20A38C0B20A2881
:100EF000F9D2090740EA1160704700002DE9F04778
:100F00008046894616460024012501214FF0C05035
:100F1000FFF7EEFE01210846FFF706FF0120FFF76D
:100F20000BFE0EB1FFF7F8FA0020FFF72BFF00F0E1
:100F30000FFE554E7F27B8F1010F10D0B8F1020F08
:100F400037D0B8F1030F7AD050A000F017FE01207F
:100F5000FFF718FF00F0C6FA2846BDE8F08754A056
:100F600000F00CFE4FF480344FF44078B9F1000FDC
:100F70000DD00020FFF700FF2046FFF713FEFFF71C
:100F80008FFF0028FBD04046FFF750FE0CE000200A
:100F9000FFF7F2FE4046FFF749FE2046FFF702FE4C
:100FA000FFF77EFF0028FBD04FF4F47030617761CB
:100FB000CDE747A000F0E2FD4FF48078B9F1000FD3
:100FC0001CD00020FFF7D8FE0120FFF707FE0BE042
:100FD000641CE4B20A2000F0CDFEFA2C04D30025F4
:100FE00043A000F0CBFD05E04120FFF739FF08B931
:100FF000FA2CEDD34046FFF719FE1CE00020FFF766
:10100000BBFE4046FFF712FE0120FFF7E7FD0CE0B4
:10101000641CE4B20A2000F0ADFEFA2C05D30025D2
:1010200033A000F0ABFD06E009E04120FFF718FF18
:1010300008B9FA2CECD3FF203061776187E734A040
:1010400000F09CFD4FF40074B9F1000F0BD00120AB
:10105000FFF792FE6120FFF703FF0028FAD0204639
:10106000FFF7E4FD0AE02046FFF7E0FD0120FFF76F
:1010700083FE6120FFF7F4FE0028FAD04FF49B7046
:101080003061776163E70000040000200D0A205200
:1010900054435F436C6B5372632056616C756520DB
:1010A0006973206572726F7221200D0A00000000C2
:1010B0000D0A205254435F436C6B53726320497393
:1010C000205365742048534531323821200D0A00E1
:1010D0000D0A205254435F436C6B53726320497373
:1010E00020536574204C534521200D0A0000000058
:1010F0000D0A205254435F436C6B53726320536557
:1011000074204C5345204661696C6521200D0A000E
:101110000D0A205254435F436C6B53726320497332
:1011200020536574204C534921200D0A0000000013
:10113000000980B240F08000C1430348026802F019
:1011400080021143016070470C28004070B50546CD
:101150000C460020234E002D06D03168490608D5E4
:101160002078FFF7B5FE05E03168490602D4E0704B
:1011700000E0E07055B1A078217840EA0145607840
:10118000E178000240EA014005430FE02078FFF7D4
:10119000A8FE05046078FFF7A4FE45EA0025A078C4
:1011A000FFF79FFE0543E07845EA00450D4CCA2055
:1011B0001C3420605320206000F034F858B10A48F5
:1011C000054008480838056000F04CF83068800693
:1011D00001D400F087F9FF202060BDE8704000F0E6
:1011E00081B90000082800407F7F7F002DE9F04191
:1011F0001D46DDE906670A4CA0F2B270E07061702E
:10120000A2702146002000F00BF904F108000570DF
:1012100046708770BDE8F04101460020FFF796BF99
:101220000400002008B5002000900D490868400621
:1012300014D4802008608301086800F04000009A00
:10124000521C0092009A9A4201D00028F4D00868FB
:10125000400601D5012008BD002008BD012008BDC1
:101260000C2800400248016821F0800101607047AD
:101270000C28004010B502460C460E4801680E4886
:101280000140080CE070C1F30423637001F03F03D8
:10129000A370C1F342312170002A0AD1FFF718FE72
:1012A000E0706078FFF714FE6070A078FFF710FE22
:1012B000A07010BD042800403FFFFF000246002040
:1012C000074909681140064B1B1D1B6803EA1212EF
:1012D000002903D01104090C00D001207047000040
:1012E0000828004010B502460C460F4801680F4818
:1012F0000140C1F305402070C1F30623637001F083
:101300007F03A37001F48001090CE170002A0AD167
:10131000FFF7DEFD20706078FFF7DAFD6070A078DF
:10132000FFF7D6FDA07010BD002800407F7F7F0032
:10133000F0B5054600260024134FCA20386053201C
:101340003860FFF76FFFA8B10F481C38016821F023
:101350004001016001682A68114301600A48A968D8
:10136000143801600168AA8841EA02410160FFF770
:1013700079FF0126FF20386040F2FF20641C844280
:10138000FCD33046F0BD00002428004010B50121F8
:101390004FF0C050FFF7ACFC0120FFF7CDFB00225F
:1013A00001210320FFF7AAFDBDE81040AFF3008044
:1013B00010B50A48FF2101617F224261084842605E
:1013C000816000210160FFF7B3FF002804D1BDE870
:1013D000104004A000F0D2BB10BD000004000020AB
:1013E000740000200D0A202F2F2A2A2A2A2A2A2AAE
:1013F00020525443205072657363616C65722043C0
:101400006F6E666967206661696C6564202A2A2AA6
:101410002A2A2A2A2A2A2A2F2F200D0A0000000011
:1014200070B505460C46002D06D16078C10603D57F
:1014300020F010000A3060702DB16078FFF748FD91
:10144000A078FFF745FD55B1A078E17840EA014565
:1014500060782178000240EA413005430FE0E078EF
:10146000FFF73FFD05046078FFF73BFD45EA0025E7
:10147000A078FFF736FD0543207845EA40350E4C4D
:10148000CA20206053202060FFF7CCFE68B10B48D3
:101490000540094820380560FFF7E4FE06481C387F
:1014A0000068800601D400F01DF8FF202060BDE830
:1014B000704000F017B80000242800403FFFFF00F4
:1014C00010B54FF48010FFF7A7F84FF48044204682
:1014D000FFF7F4FE002804D02046BDE81040FFF7D7
:1014E00027BE10BD18B500200090104BCA20186010
:1014F000532018600D491839086820F02000086052
:10150000CC13086800F02000009A521C0092009A48
:10151000A24201D00028F4D00868800601D501203D
:1015200000E00020FF21196018BD000024280040C1
:101530000EB500200290019000902848016841F407
:10154000803101604FF400420168C1F340410191D4
:101550000099491C00919DF8041011B9009991421D
:10156000F2D10168C1F3404101919DF8041081B3AB
:101570001B4A116821F0070141F004011160416824
:101580004160416841F400514160416841F4A0610B
:1015900041604168134A11400291029941F480313F
:1015A0000291114A1143029102994160016841F090
:1015B0008071016001688901FCD5416821F0030157
:1015C00041F0020141604168C1F381010229FAD171
:1015D0000EBDFFE7064905480860F9E70010024024
:1015E00000200240FFFFC0F70000040800127A004C
:1015F0000000002010B5FFF745FB0120FFF7B6FB08
:101600001020FFF759F80020FFF762F80020FFF7DD
:10161000BFFA0020FFF700FB0020FFF7F3FA0020DD
:10162000FFF710FBFFF734FC0028FBD110BD0000D2
:1016300010B50E4BD86940F08050D8610C48006856
:10164000C0F304600B4AD16821F47871801C441EF9
:101650001E2C03D241EA4010D06002E041F47870C1
:10166000D060D86920F08050D86110BD00100240D1
:101670000018004000700040042805D14FF0E02021
:10168000016941F004010161704710B500F050FCA0
:10169000012803D0BDE8104000F034BC10BD0000AC
:1016A00010B52348016841F47001016021480168C8
:1016B00041F00101016041681F4A11404160016829
:1016C0001E4A11400160016821F4802101604168D7
:1016D0001B4A114041604FF46051C1624FF46151A7
:1016E00001634FF41F018160C16941F08051C16104
:1016F0001449CA6842F00102CA60C16921F08051F0
:10170000C1611148016841F090010160FFF710FFCD
:1017100007494FF00060803908600C4800680C49A8
:10172000884203D0BDE81040FFF782BF10BD000023
:1017300088ED00E00010024000C0FFF8FFFFF6FE59
:10174000FFFF00F7007000400020024098F2FF1FEA
:10175000424B524910B501218C07204600F01BF87E
:10176000002811D00121204600F012F8074908880E
:10177000421C0A800022A0F57F43FA3B00D10A8078
:101780000888142800D10A8010BD00001C00002029
:10179000C943016170470246002013690B409289DA
:1017A0000A40002B02D0002A00D001207047000020
:1017B00070B50B4C40F225552946204600F045F9FE
:1017C00000280CD0204600F0B9F9C1B2204600F044
:1017D000B9F929462046BDE8704000F08DB870BDCB
:1017E0000050004010B586B0012144F20500FFF71B
:1017F0009BFA4FF48060ADF8140004208DF81700B8
:101800001C4C05A92046FFF741F86115ADF81410EE
:1018100003218DF816101C218DF8171005A92046FC
:10182000FFF734F84FF4E13001900020ADF80800E4
:10183000ADF80A00ADF80C00ADF810000C20ADF8C2
:101840000E000D4C01A9204600F020F9FFF714F915
:10185000012240F22551204600F056F8012240F2C4
:101860002441204600F050F80121204600F0DAF82B
:1018700006B010BD000801400038014070B51A4D97
:1018800040F225563146284600F0DFF8A0B1284640
:1018900000F054F9154C01462288501C83B21448BC
:1018A000238081544FF6FE70834201D900202080AE
:1018B0003146284600F020F840F2244421462846CC
:1018C00000F0C3F800280ED021462C46204600F038
:1018D00013F80120FFF7AAF820880348001D0088AC
:1018E00004490120087070BD003801401E0000202E
:1018F000A00000202000002040F66A120A0A012100
:101900009140C9430180704710B540F66A13C1F396
:10191000421301F01F040121A140012B07D0022B2B
:1019200007D014303AB102680A43026010BD0C308F
:10193000F8E71030F6E702688A43026010BD000045
:1019400070B5314988420AD101218C032046FFF746
:10195000F9F92046BDE870400021FFF7F3B92B49A3
:101960004FF40034884209D101212046FFF7CEF917
:101970002046BDE870400021FFF7C8B924494FF464
:101980008025884209D101212846FFF7BFF9284662
:10199000BDE870400021FFF7B9B91E4988420AD15D
:1019A0000121CC042046FFF7B1F92046BDE8704084
:1019B0000021FFF7ABB9184988420AD101210C0573
:1019C0002046FFF7A3F92046BDE870400021FFF74D
:1019D0009DB91249884209D101212046FFF7B2F989
:1019E0002046BDE870400021FFF7ACB90C498842A1
:1019F00009D101212846FFF7A5F92846BDE8704026
:101A00000021FFF79FB970BD00380140004400403D
:101A100000480040004C0040005000400050014091
:101A200000540140002904D0818941F40051818192
:101A30007047818921F4005181817047024600205E
:101A400012880A4200D00120704770B5002440F689
:101A50006A12C1F3421301F01F05012606FA05F2CE
:101A6000012B0CD0022B0DD0838A1340090A8E4023
:101A7000008830400BB100B10124204670BD83893D
:101A80001340F3E7038A1340F0E7000030B587B056
:101A900004460D46208A4CF6FF710840E988014350
:101AA0002182A1894EF6F3100140A8882A891043AB
:101AB0006A890A431043A081A08A4FF6FF4108407B
:101AC000A9890143A18201A8FFF762F9184884425D
:101AD00005D018498C4202D017498C4201D1049894
:101AE00000E0039800EBC00101EB001029688900B9
:101AF000B0FBF1F06423B0FBF3F109010A096FF0C8
:101B000018056A4300EB8202322505EB0212B2FB94
:101B1000F3F20125B5EB121F03D1B0FBF3F0401C2B
:101B2000010102F00F000843208107B030BD000022
:101B30000038014000500140005401408088C0F34B
:101B400008007047C1F3080181807047FEE700007C
:101B500010B50420FFF790FD054806490068B0FB6A
:101B6000F1F0054948604FF47A725043886010BD27
:101B70000000002040420F00640000200FB4054B1D
:101B800010B503A9044A029800F018F810BC5DF8DB
:101B900014FB00008D1D00087000002002E008C842
:101BA000121F08C1002AFAD170477047002001E0D7
:101BB00001C1121F002AFBD1704700002DE9FF4F21
:101BC0008BB09A460F460546002606E025280BD026
:101BD00052460D9990476D1C761C28780028F5D147
:101BE0000FB03046BDE8F08F0024A04601226049C6
:101BF00000E0044315F8013F203B02FA03F00842DD
:101C0000F7D128782E2817D115F8010F44F00404D5
:101C10002A280ED06FF02F022878A0F13001092970
:101C20000AD808EB880102EB410100EB01086D1CAA
:101C3000F2E757F8048B6D1C287869283ED006DC43
:101C40000028CDD063280BD0642804D136E0732857
:101C500010D075284BD052460D999047761C85E0E0
:101C600017F8040B8DF8000000208DF80100E946FC
:101C7000012003E057F8049B4FF0FF3061074FF05D
:101C8000000401D40AE0641C44450DDA8442FADB06
:101C900019F804100029F6D106E0641C8442FCDB2C
:101CA00019F804100029F8D1264404E019F8010BB2
:101CB00052460D999047641EF8D257E001CF4FF07D
:101CC0000A0B002802DA40422D2102E0210504D54A
:101CD0002B218DF82410012103E0E10705D02021FC
:101CE000F7E70DF1200908910CE00021F9E701CF99
:101CF0004FF00A0BF9E75946FEF7CCFA01F1300232
:101D000009F8012D0028F6D1ADEB090000F1200BF8
:101D1000600701D44FF00108D84502DDA8EB0B00A5
:101D200000E000208046002406E009A85246005D3D
:101D30000D999047641C761C08988442F5DB04E0FA
:101D4000302052460D999047761CB8F10001A8F159
:101D50000108F5DC05E019F8010B52460D99904792
:101D6000761CBBF10001ABF1010BF4DC6D1C34E718
:101D7000092801004FF4FA6303E01946491E89B2AD
:101D8000FCD2401E80B2F8D2704700002DE9F0412D
:101D90000446134D134F0D2C10D000260A2C10D0E2
:101DA0002E60E1B23846FFF7CDFE80213846FFF7BE
:101DB00045FE0028F9D02046BDE8F08101202860CA
:101DC000EFE7286848B90D213846FFF7BBFE8021B0
:101DD0003846FFF733FE0028F9D02E60E1E7000017
:101DE00024000020005000401CB5FFF703FCFFF763
:101DF000F9FCFEF79BFBFEF703FEFEF725FE002035
:101E0000FEF7F0FD0020FEF711FEFEF73DFBFEF7AA
:101E1000D5FDFFF7BBFAFEF765FA1E202621CDE9B6
:101E200000100F231A46012140F2E970FFF7DEF996
:101E30004FF49674FEF782FD2046FFF79BFFF9E70B
:101E4000074841680968002905D04168C968C96820
:101E50004968016370474FF0FF310163704700002C
:101E6000280000200169D0E901329A60D0E90123FD
:101E70005A604A68824201D182684A600022026147
:101E80000868401E08600868704742684A609368A6
:101E90008B6093685960916008610168491C01601A
:101EA00070470000154A906B002802D00120506254
:101EB0007047002050629069B0FA80F0C0F11F00B6
:101EC0000F4900EB800051F8203073B101EB800026
:101ED00041684968416000F10803994201D14968AD
:101EE00041604068C06810607047502080F31188DE
:101EF000BFF34F8FBFF36F8FFEE700002800002075
:101F00007C01002010B5502080F31188BFF34F8F63
:101F1000BFF36F8F00F01AF818B104494FF08050EA
:101F20000860002080F3118810BD000004ED00E07F
:101F30000548C169002903D0806B18B100207047A3
:101F40000120704702207047280000202DE9F04151
:101F500000262F4FB86B002808D0386A401C386222
:101F6000786A00B101263046BDE8F0817D696D1CBC
:101F70007D619DB97868006838B1502080F3118880
:101F8000BFF34F8FBFF36F8FFEE77868B968796052
:101F9000B860B86A401CB862FFF752FF386BDFF8D0
:101FA000748085420DD37868006838B17868C0685D
:101FB000C468606885420ED2386302E04FF0FF309B
:101FC00038633868C06A00EB800058F820000128A8
:101FD000C6D90126C4E7201DFFF744FFA06A18B147
:101FE00004F11800FFF73EFFE06A0121BA69814061
:101FF0001143B96100EB800008EB8000211DFFF761
:1020000044FFE06A3968C96A8842CCD30126CAE72E
:10201000280000207C0100200000000001020304D1
:10202000010203040607080901020406080A0C104D
:102030002020202020202020010002000400060093
:1020400008000A000C001000200040008000000181
:1020500000010001000100017820000800000020BC
:10206000740000009C1B0008EC2000087400002095
:10207000FC160000AC1B000800449508000000009E
:102080000000000000000000000000000000000050
:102090000000000000000000000000000000000040
:1020A0000000000000000000000000000000000030
:1020B0000000000000000000000000000000000020
:1020C0000000000000000000000000000000000010
:1020D0000000000000000000000000009B00000065
:0C20E000000000000000000000000000F4
:040000050800019955
:00000001FF
