:020000040800F2
:10000000D831022071020008D70E0008F10A00085A
:10001000D50E000825060008752500080000000020
:10002000000000000000000000000000B101000816
:10003000E1060008000000000D020008532000083F
:100040008B0200088B0200088B020008591D000873
:100050008B0200088B020008850700088B0200084D
:100060008B0200088B0200088B0200088B0200083C
:100070008B0200088B0200088B0200088B0200082C
:100080008B0200088B0200088B0200088B0200081C
:100090008B0200088B0200088B0200088B0200080C
:1000A0008B0200088B0200088B0200088B020008FC
:1000B000552100088B0200088B0200088B02000803
:1000C0008B020008410B00080D0B00088B02000892
:1000D0008B020008752200088B0200088B020008C2
:1000E0009D0700088B0200088B0200088B020008A5
:1000F0008B0200088B0200088B0200088B020008AC
:100100008B0200088B0200088B0200088B0200089B
:100110008B020008B12100088B0200088B02000846
:100120008B0200088B0200088B0200088B0200087B
:100130008B0200088B0200088B0200088B0200086B
:100140008B0200088B0200088B0200088B0200085B
:100150008B0200088B0200088B0200088B0200084B
:100160008B0200088B0200088B0200088B0200083B
:100170008B0200088B0200088B0200088B0200082B
:100180008B0200088B0200088B0200088B0200081B
:100190008B0200088B020008DFF810D000F0B4F8E2
:1001A0000048004791280008AFF30080D8310220B2
:1001B0002C4B19680868B0E8F04F80F30988BFF34A
:1001C0006F8F4FF0000080F311887047000000002F
:1001D00008480068006880F308884FF0000080F34A
:1001E000148862B661B6BFF34F8FBFF36F8F00DF25
:1001F00000BF00BF08ED00E0DFF80C00016841F42B
:1002000070010160704700BF88ED00E0EFF30980E6
:10021000BFF36F8F134B1A681EF0100F08BF20ED4D
:10022000108A20E9F04F106009B44FF0500080F3BD
:100230001188BFF34F8FBFF36F8F03F03DFA4FF07C
:10024000000080F3118809BC19680868B0E8F04F15
:100250001EF0100F08BFB0EC108A80F30988BFF3BE
:100260006F8F70473C000220EFF30580704700005D
:100270000648804706480047FEE7FEE7FEE7FEE740
:10028000FEE7FEE7FEE7FEE7FEE7FEE7A120000847
:100290009901000840EA01039B0703D009E008C95F
:1002A000121F08C0042AFAD203E011F8013B00F83B
:1002B000013B521EF9D27047D2B201E000F8012B87
:1002C000491EFBD270470022F6E710B513460A46D6
:1002D00004461946FFF7F0FF204610BD30B50B4627
:1002E000014600202022012409E021FA02F59D4266
:1002F00005D303FA02F5491B04FA02F52844151E3A
:10030000A2F10102F1DC30BD064C074D06E0E068C9
:1003100040F0010394E8070098471034AC42F6D34C
:10032000FFF73EFFE841000808420008014800F0DE
:1003300091B80000000C0240816D21F01001816530
:10034000704700002DE9F0418846184C184D194EB1
:10035000194F002814D00121404600F06BFE002008
:1003600000F05EFE204600F09FF8284600F09CF862
:10037000304600F099F83846BDE8F04100F094B8F6
:1003800000214FF4807000F055FE404600F048FE1A
:100390002046FFF7D1FF2846FFF7CEFF3046FFF794
:1003A000CBFF3846BDE8F041FFF7C6BF000802406A
:1003B000000C024000180240001C024000220029EC
:1003C00004D0816841F00101816003E0816821F07F
:1003D000010181604FF49470521C8242FCD370473B
:1003E000014600208A68520700D50120496D002986
:1003F00000D00020704702460020926D0A4200D0D3
:100400000120704710B500F1600228231360436893
:100410000E4A13400C790A6843EA04231A434260E7
:1004200082680B4B1A40D1E9024323434C7942EADC
:10043000440213438360C26A22F47002097C491E9D
:10044000C9B242EA0151C16210BD0000FFFEF0FFD7
:10045000FDF7F1FF10B5044600F06EFE00F0E2FA81
:10046000104800210160017141714FF460228260E7
:10047000C1600121017401462046FFF7C3FF01213D
:100480002046FFF79BFF20212046FFF7B4FF0028FE
:10049000F9D0204600F00DF82046FFF7A1FF002814
:1004A000FAD110BDCC020220816D41F010018165AE
:1004B00070470021426D002A03D1826842F0040295
:1004C00082604FF49470491C8142FCD37047000055
:1004D00008B50121082000F097FE0220ADF80000C9
:1004E00048208DF8030003208DF802006946024879
:1004F00000F0A6FA08BD0000000C014010B5FFF79F
:10050000E7FFBDE8104002F06DB9142003F026F8B3
:10051000FBE700002DE9F84301210C2000F074FEF8
:100520004FF48054ADF8004010268DF80360032589
:100530008DF80250194F6946384600F081FA620082
:10054000ADF800206946384600F07AFA0822ADF886
:100550000020DFF84C806946404600F071FAADF8A3
:10056000006004208DF803008DF802506946404673
:1005700000F066FAA000ADF800006946384600F0C9
:100580005FFAE000ADF800006946384600F058FA1E
:100590002146384600F0A7FABDE8F883000C014078
:1005A0000008014070B5322002F0E2F808210C4842
:1005B00000F099FA0B4D4FF480542146284600F084
:1005C00094FA4FF42F7002F0D3F82146284600F039
:1005D0008AFABDE870404FF47A6002F0C9B80000B2
:1005E00000080140000C014010B5012000F028FE79
:1005F000BDE81040002000F023BE000008B503490C
:10060000084400900098008808BD0000006C00407D
:1006100008B5034A104400900098016008BD00002E
:10062000006C0040FEE70000014601A001F0A4BFFD
:100630002E2E2E457272436F64653A25640D0A00B2
:1006400010B586B00121080500F0C2FD01211D2072
:1006500000F0DAFD01211F4800F032F94FF400707C
:10066000ADF8140004208DF817001B4C05A9204696
:1006700000F0E6F9A115ADF8141003218DF816105D
:1006800018218DF8171005A9204600F0D9F94FF46C
:10069000E13001900020ADF80800ADF80A00ADF897
:1006A0000C00ADF810000C20ADF80E000B4C01A9A9
:1006B000204601F0FFFE00F04DFC012240F22551E2
:1006C000204601F035FE0121204601F0BFFE06B0B4
:1006D00010BD0000C0003640000C0140005000403A
:1006E0007047000010B504460EA001F045FF2146FA
:1006F00015A001F041FF164800F0C0FD144C15A0F4
:10070000216801F039FF16A0616801F035FF17A0DC
:10071000A16801F031FFE168BDE8104016A001F0CA
:100720002BBF00002D2D2D2D2D2D2D2D2D2D2D2DC3
:100730002D2D2D2D2D2D2D2D2D2D2D2D2D2D2D2DE9
:100740002D2D2D2D0A00000025733A0A000000000F
:10075000B4020220535953434C4B3A2025640A00FB
:1007600048434C4B3A2025640A00000050434C4B50
:10077000313A2025640A000050434C4B323A202580
:10078000640A000010B5012000F026F8002804D00B
:10079000BDE81040012000F019B810BD10B54FF4AD
:1007A0008064204600F018F800280BD0204600F0A6
:1007B0000DF801F075FC044801F0D6FDBDE81040CD
:1007C00001F00CBD10BD0000003801400149086077
:1007D000704700001404014001460020054A1268D9
:1007E0000A40044B14331B680B4202D0002A00D08D
:1007F000012070470004014030B51B4A837901682D
:10080000002B2AD013688B431360111D0B680468FA
:10081000A3430B60017911440B68046823430B6008
:10082000114C08342168036899432160231D19681D
:100830000568A94319604179102905D011440A6857
:10084000006802430A6030BD2168026811432160DC
:10085000196800680143196030BD007910440268CE
:100860008A43026030BD00000004014004490A6868
:1008700022F010020A600A6802430A607047000012
:1008800000200240034A116801F0F80101431160A1
:10089000704700000020024010B58A07120F0F2396
:1008A000934021F00304054921448C689C438C60EB
:1008B0008B68904003438B6010BD00000000014036
:1008C000F0B5564B420001D51A6A08E0820001D506
:1008D0005A6A04E0C20001D59A6A00E05A6886B2FA
:1008E0004F4C00EA0407C0F34054250184B2AC40E9
:1008F000B7F5401F0FD0C70217D586024FF003058A
:10090000C0F3034705FA07F500D52D04AA4310F0FC
:10091000E04F07D071E022F070625D6825F07065ED
:100920005D606AE042F0706267E0C7012ED547075C
:1009300019D585010FD5A24331B15D6845F0010598
:1009400045F070655D6058E05D6825F0010545F093
:1009500070655D6051E0A2435D6825F0010545F0DA
:1009600070655D6049E046F00406AE40B24331B1C7
:100970005D6845F0010545F070655D603DE05D68CE
:1009800025F0010545F070655D6036E047012ED524
:10099000070719D585010FD5A24331B15D6845F030
:1009A000080545F070655D6027E05D6825F0080585
:1009B00045F070655D6020E0A2435D6825F00805A4
:1009C00045F070655D6018E046F00806AE40B24341
:1009D00031B15D6845F0080545F070655D600CE07B
:1009E0005D6825F0080545F070655D6005E0A2438F
:1009F00010F0E04F01D142F0706201B1224341009A
:100A000001D51A62F0BD810001D55A62F0BDC00067
:100A100001D59A62F0BD5A60F0BD000000000140AF
:100A20000000307008B52020ADF8000000208DF8DF
:100A300003006946014800F003F808BD00080140C2
:100A40002DE9F0410022CC7804F00F03E40601D533
:100A50008C7823430C784FF00F0714F0FF0F4FF002
:100A6000010C1CD005680CFA02F40E882640A64240
:100A700011D1960007FA06F825EA080503FA06F8E8
:100A800048EA0505CE78282E02D0482E02D002E092
:100A9000446100E00461521C082AE4D305600A881E
:100AA000FF2A1ED94568002202F108060CFA06F456
:100AB0000E882640A64210D1960007FA06F825EACD
:100AC000080503FA06F848EA0505CE78282E00D175
:100AD0004461CE78482E00D10461521C082AE3D329
:100AE0004560BDE8F08141617047016170470000D9
:100AF00001A001F041FDFEE7486172644661756C3A
:100B0000745F48616E646C65720A000010B5094C30
:100B1000204600F0D1F8B0F5806F09D10649204693
:100B200000F06EF805488178002901D0012141705C
:100B300010BD000000580040000400100800022012
:100B40002DE9F04100252A4E304600F0B5F8294C39
:100B5000C1031DD4DFF8A0C0254B0027274A10335E
:100B6000A0EB0C01604521D009DC102830D0B0F199
:100B7000021F17D0A0F50030403804D122E002292E
:100B800012D0042918D00121304600F089F801253F
:100B900045B36068411E616027D2BDE8F04118206E
:100BA000FFF742BDA770F3E7A770F1E7A078411CFB
:100BB000A170105C1880EBE7A078411CA170105C5C
:100BC0001880E5E71988A078431CA3701154DFE76B
:100BD0000121304600F064F8A0780028D8D0012028
:100BE0002070D5E74FF420406060BDE8F081000040
:100BF0000058004008000220800006008801022002
:100C0000C94381827047002A03D082880A438280C8
:100C1000704782888A4382807047000010B51C4963
:100C200088420AD101214C05204600F0DFFA204617
:100C3000BDE81040002100F0D9BA164988420AD117
:100C400001218C05204600F0D1FA2046BDE8104075
:100C5000002100F0CBBA104988420AD10121CC040E
:100C6000204600F0DFFA2046BDE81040002100F0E9
:100C7000D9BA0A4988420AD101210C05204600F060
:100C8000D1FA2046BDE81040002100F0CBBA10BDDB
:100C9000005400400058004000440140004801401A
:100CA000002904D0018841F00101018070470188CA
:100CB00021F0010101807047818A008B000401430B
:100CC00021F07F4070470000F0B587B004460E4623
:100CD000344DA08820F03F0701A800F0CFFA324839
:100CE000844202D03148844201D1039D06E030485D
:100CF000844202D02F48844200D1049D2E48B5FB87
:100D0000F0F080B2242800D924200743A78021884E
:100D100021F001012180294A3168914209D8490016
:100D2000B5FBF1F189B2042900D20421401C2084D2
:100D300023E0F288A2F53F43FF3B0BD001EBC10259
:100D400002EB0111B5FBF1F189B241F480410A05D2
:100D500006D007E001EB4101B5FBF1F189B2F6E7FE
:100D600041F0010141F400414FF4967250434FF4B9
:100D70007A72B0FBF2F0401C2084A183208840F0FE
:100D80000100208020884FF6F5310840B188728933
:100D9000114301432180B08931890843208107B084
:100DA000F0BD000000127A000054004000580040DE
:100DB000004401400048014040420F00A08601006D
:100DC0007FB505460C460121042000F01DFAADF860
:100DD0000C4048218DF80F1003218DF80E1003A947
:100DE0002846FFF72DFE00210846FFF755FD012498
:100DF000019400258DF8085008208DF809008DF821
:100E00000A4001A8FFF7F8FC06208DF800008DF8D5
:100E100001508DF802508DF80340684600F0ACF8A0
:100E20007FBD000010B50121080700F0D1F90120B5
:100E300000F0DEF8002000F003FA01210348FFF77C
:100E4000BFFFBDE81040012000F0D8B80008014005
:100E5000054A012803D001211046FFF744BE0121B5
:100E60001046FFF742BE0000000C014038B50121DA
:100E7000082000F0C9F90120ADF8000010208DF81D
:100E8000030003208DF80200044C69462046FFF75A
:100E9000D7FD01212046FFF726FE38BD000C01409A
:100EA00038B50121042000F0AFF98020ADF8000032
:100EB00010208DF8030003208DF80200044C6946D1
:100EC0002046FFF7BDFD80212046FFF70CFE38BD10
:100ED00000080140FEE7704708B54FF4407000F08D
:100EE0007DF825208DF8000006208DF802000120F5
:100EF0008DF80300684600F03FF808BD38B5044699
:100F0000012C02D11F208DF80000022C02D12120DB
:100F10008DF8000004208DF8010001258DF80250A5
:100F20008DF80350684600F027F8012C02D12020EC
:100F30008DF80000022C02D122208DF80000032041
:100F40008DF801008DF802508DF80350684600F0CE
:100F500013F838BD08B54FF4407000F03FF8352065
:100F60008DF8000001208DF802008DF8030068461E
:100F700000F002F808BD000070B50F23C27801260A
:100F80000178002A1ED0144A126802F4E062C2F509
:100F9000E062120AC2F10404D3404578A540827889
:100FA0001A402A43120101F1E02181F8002400785F
:100FB00000F01F018E404009800000F1E020C0F8E1
:100FC000006170BD01F01F0086404809800000F1FB
:100FD000E020C0F8806170BD0CED00E002490843DC
:100FE00002490860704700000000FA050CED00E0BF
:100FF000014908627047000000000E420149086084
:1010000070470000A0000E42044BDA6A22F48062AE
:1010100022F4784202430A43DA6270470010024029
:10102000034AD16A21F00F010143D16270470000E9
:1010300000100240064BDA6A22F4F872002901D04F
:10104000024302E0024322F48072DA627047000039
:1010500000100240034A516821F0F0010143516041
:1010600070470000001002400C490A6822F48032E8
:101070000A600A6822F480220A60B0F5803F07D037
:10108000B0F5802F03D1086840F4A02008607047B5
:10109000086840F48030086070470000001002408B
:1010A000084900220A7001F82029012805D00428E7
:1010B00002D1052081F820007047012081F820002E
:1010C0007047000020100240034A516821F4E0619B
:1010D000014351607047000000100240034A51680C
:1010E00021F4605141EAC000506070470010024096
:1010F00010B5044B5A68044C224008431043586012
:1011000010BD000000100240FFFFC0F704490A6A4A
:1011100022F440720A620A6A02430A6270470000BF
:1011200000100240034A516821F00301014351605D
:10113000704700000010024010B50121042000F0AB
:1011400063F80121480300F035F807210020FFF77C
:10115000F9F8BDE810404FF460514FF48060FFF79C
:1011600053BF00000F48016841F001010160416870
:101170000D4A1140416001680C4A1140016001684C
:1011800021F4802101604168094A114041604FF417
:101190006051C1624FF4615101634FF41F018160DE
:1011A000704700000010024000C0FFF8FFFFF6FE8D
:1011B000FFFF00F7054A002903D05169014351613F
:1011C000704751698143516170470000001002402F
:1011D000054A002903D0D1690143D1617047D16923
:1011E0008143D1617047000000100240054A002988
:1011F00003D0116901431161704711698143116185
:101200007047000000100240054A002903D0916990
:10121000014391617047916981439161704700007A
:1012200000100240054A002903D0D1680143D16073
:101230007047D1688143D1607047000000100240C0
:1012400001490860704700004004424201490860BB
:1012500070470000000042420149086070470000EA
:101260008004424201490866704700000000424283
:1012700001490860704700003C04424230B52E4BE3
:1012800059682E4A11405A6802F480320C0103D486
:10129000022404EB914103E06FF4F77404EB9141F5
:1012A0002AB15A68920305D5254A514304E0244ADD
:1012B000514301E0234A51435A6802F00C02214C89
:1012C00092B3042A33D0082A33D004605A6802F05B
:1012D000F00212091C4CA55C0268EA4042605D689D
:1012E00005F4E0652D0A655D22FA05F585605D6807
:1012F00005F46055ED0A645D22FA04F4C460DC6A0A
:1013000004F00F04104D10352C5DB2FBF4F2426175
:10131000DA6A120902F00F0205F1100333F8122005
:10132000B1FBF2F1016130BDFFE70460CEE704607C
:10133000CCE70160CAE700000010024000003C0852
:1013400000093D0000127A00144100080346002005
:101350005909094A01290AD002290AD0516A03F021
:101360001F02012393400B4200D0012070471168F7
:10137000F5E7116AF3E700000010024002484068F8
:1013800000F00C00704700000010024018B500206B
:1013900000904FF400443120FFF7D8FF0099491C1A
:1013A00000910099A14201D00028F4D03120FFF72C
:1013B000CDFF08B1012018BD002018BD010901EBC7
:1013C0008101490000F00F000844C0B270470021BD
:1013D00003E0491CC9B20A38C0B20A28F9D2090789
:1013E00040EA1160704700002DE9F04780468946C9
:1013F00016460024012501214FF0C050FFF7E8FEFA
:1014000001210846FFF700FF0120FFF7F1FD0EB1B3
:10141000FFF7EAF80020FFF72BFF554E7F27B8F1C2
:10142000010F10D0B8F1020F37D0B8F1030F7AD006
:1014300050A001F0A1F80120FFF71AFF00F09EFC78
:101440002846BDE8F08754A001F096F84FF48034A8
:101450004FF44078B9F1000F0DD00020FFF7FCFEEB
:101460002046FFF701FEFFF791FF0028FBD0404622
:10147000FFF74CFE0CE00020FFF7EEFE4046FFF7C2
:1014800045FE2046FFF7F0FDFFF780FF0028FBD068
:101490004FF4F47030617761CDE747A001F06CF84C
:1014A0004FF48078B9F1000F1CD00020FFF7D4FE74
:1014B0000120FFF7F5FD0BE0641CE4B20A2001F007
:1014C00057F9FA2C04D3002543A001F055F805E0A4
:1014D0004120FFF73BFF08B9FA2CEDD34046FFF758
:1014E00015FE1CE00020FFF7B7FE4046FFF70EFE9A
:1014F0000120FFF7D5FD0CE0641CE4B20A2001F0E6
:1015000037F9FA2C05D3002533A001F035F806E0B1
:1015100009E04120FFF71AFF08B9FA2CECD3FF20AD
:101520003061776187E734A001F026F84FF400744A
:10153000B9F1000F0BD00120FFF78EFE6120FFF7FD
:1015400005FF0028FAD02046FFF7E0FD0AE020461C
:10155000FFF7DCFD0120FFF77FFE6120FFF7F6FEBD
:101560000028FAD04FF49B703061776163E7000088
:10157000100002200D0A205254435F436C6B5372DB
:10158000632056616C7565206973206572726F7295
:1015900021200D0A000000000D0A205254435F4331
:1015A0006C6B537263204973205365742048534514
:1015B00031323821200D0A000D0A205254435F4376
:1015C0006C6B53726320497320536574204C5345F0
:1015D00021200D0A000000000D0A205254435F43F1
:1015E0006C6B53726320536574204C5345204661E5
:1015F000696C6521200D0A000D0A205254435F4397
:101600006C6B53726320497320536574204C5349AB
:1016100021200D0A00000000000980B240F0800087
:10162000C1430348026802F0800211430160704721
:101630000C28004070B505460C460020234E002DB6
:1016400006D03168490608D52078FFF7B7FE05E0D7
:101650003168490602D4E07000E0E07055B1A0782E
:10166000217840EA01456078E178000240EA0140D3
:1016700005430FE02078FFF7AAFE05046078FFF726
:10168000A6FE45EA0025A078FFF7A1FE0543E07815
:1016900045EA00450D4CCA201C34206053202060D0
:1016A00000F036F958B10A48054008480838056086
:1016B00000F04EF93068800601D400F05FFBFF2097
:1016C0002060BDE8704000F059BB000008280040D1
:1016D0007F7F7F0008480121017011218170022164
:1016E00041703721C17000210830C1700922027099
:1016F00027224270817070471400022070B523A029
:1017000000F03AFF2FA000F037FF374C2178FF2977
:101710002ED0251F297035A000F02EFF36A000F036
:101720002BFFA178FF2925D0A97030A000F024FF5D
:1017300039A000F021FF6178FF291DD069702BA02E
:1017400000F01AFF3CA000F017FFE178FF2915D048
:10175000E97026A000F010FF211F002000F0C4F95E
:1017600070B13DA000F008FF00F09EF8012070BDB0
:10177000002070BD002070BD002070BD002070BD35
:101780003FA000F0F9FE002070BD00000A0D202FE0
:101790002F3D3D3D3D3D3D3D3D3D3D3D3D3D44615C
:1017A00074652053657474696E67733D3D3D3D3DBE
:1017B0003D3D3D3D3D3D3D3D3D3D3D2F2F200A0DF5
:1017C000000000000A0D20506C65617365205365B0
:1017D00074205765656B446179202830312D30378E
:1017E00029200A0D00000000140002203A202530B4
:1017F0002E32640A0D0000000A0D20506C656173E2
:1018000065205365742044617465202830312D3380
:101810003129200A0D0000000A0D20506C6561730B
:101820006520536574204D6F6E7468202830312D0B
:101830003132290A0D0000000A0D20506C656173D9
:1018400065205365742059656172202830302D3928
:1018500039290A0D000000000A0D3E3E20212120FA
:10186000525443205365742044617465207375633A
:10187000636573732E202121203C3C0A0D0000007B
:101880000A0D3E3E202121205254432053657420EE
:1018900044617465206661696C65642E2021212095
:1018A0003C3C0A0D0000000008B50849002000F08B
:1018B00057F807A000F060FE0448C1780091437813
:1018C00082780178114800F057FE08BD1000022010
:1018D0000A0D202F2F3D3D3D3D3D3D3D3D3D3D3DD4
:1018E0002043757272656E7420446174652044698A
:1018F00073706C6179203D3D3D3D3D3D3D3D3D3D3D
:101900003D3D3D3D2F2F200A0D00000054410008B1
:1019100008B5002000900D490868400614D48020C6
:1019200008608301086800F04000009A521C009291
:10193000009A9A4201D00028F4D00868400601D5E8
:10194000012008BD002008BD012008BD0C28004072
:101950000248016821F08001016070470C280040B6
:1019600010B502460C460E4801680E480140080CAE
:10197000E070C1F30423637001F03F03A370C1F36F
:1019800042312170002A0AD1FFF718FDE07060781B
:10199000FFF714FD6070A078FFF710FDA07010BD78
:1019A000042800403FFFFF00024600200749096865
:1019B0001140064B1B1D1B6803EA1212002903D0BD
:1019C0001104090C00D001207047000008280040D5
:1019D00010B502460C460F4801680F480140C1F39C
:1019E00005402070C1F30623637001F07F03A370EC
:1019F00001F48001090CE170002A0AD1FFF7DEFC36
:101A000020706078FFF7DAFC6070A078FFF7D6FCF2
:101A1000A07010BD002800407F7F7F00F0B5054614
:101A200000260024134FCA20386053203860FFF787
:101A30006FFFA8B10F481C38016821F04001016018
:101A400001682A68114301600A48A96814380160D6
:101A50000168AA8841EA02410160FFF779FF012687
:101A6000FF20386040F2FF20641C8442FCD33046E3
:101A7000F0BD00002428004010B50A48FF21016194
:101A80007F22426108484260816000210160FFF7C7
:101A9000C5FF002804D1BDE8104004A000F06CBDD3
:101AA00010BD000010000220880202200D0A202F25
:101AB0002F2A2A2A2A2A2A2A205254432050726581
:101AC0007363616C657220436F6E6669672066613F
:101AD000696C6564202A2A2A2A2A2A2A2A2A2A2F75
:101AE0002F200D0A0000000070B505460C46002DA1
:101AF00006D16078C10603D520F010000A3060706E
:101B00002DB16078FFF75AFCA078FFF757FC55B16C
:101B1000A078E17840EA014560782178000240EA47
:101B2000413005430FE0E078FFF751FC0504607891
:101B3000FFF74DFC45EA0025A078FFF748FC054378
:101B4000207845EA40350E4CCA20206053202060A2
:101B5000FFF7DEFE68B10B480540094820380560F4
:101B6000FFF7F6FE06481C380068800601D400F036
:101B700005F9FF202060BDE8704000F0FFB80000CC
:101B8000242800403FFFFF0070B51EA000F0F4FCC9
:101B90002A4C251FE078E87029A000F0EDFC2178A0
:101BA000FF2923D029702CA000F0E6FC2DA000F026
:101BB000E3FC6178FF291BD0697027A000F0DCFCF2
:101BC0002FA000F0D9FCA178FF2913D0A97022A082
:101BD00000F0D2FC211F0020FFF72CFD60B12FA0E8
:101BE00000F0CAFC00F082F8012070BD002070BD3A
:101BF000002070BD002070BD32A000F0BDFC0020B0
:101C000070BD00000A0D202F2F3D3D3D3D3D3D3D67
:101C10003D3D3D3D3D3D3D54696D652053657474CA
:101C2000696E67733D3D3D3D3D3D3D3D3D3D3D3D27
:101C30003D3D3D3D3D2F2F200A0D00001C000220A0
:101C40000A0D20506C656173652053657420486FE0
:101C5000757273200A0D00003A2025302E32640A76
:101C60000D0000000A0D20506C65617365205365FE
:101C700074204D696E75746573200A0D00000000B4
:101C80000A0D20506C65617365205365742053659F
:101C9000636F6E6473200A0D000000000A0D3E3E63
:101CA00020212120525443205365742054696D65CE
:101CB00020737563636573732E202121203C3C0AD9
:101CC0000D0000000A0D3E3E2021212052544320E9
:101CD0005365742054696D65206661696C65642E76
:101CE000202121203C3C0A0D0000000010B50849CD
:101CF0000020FFF76DFE07A000F03EFC044883784B
:101D000042780178124800F037FC1248006810BD94
:101D1000180002200A0D202F2F3D3D3D3D3D3D3D49
:101D20003D3D3D3D3D2043757272656E74205469A2
:101D30006D6520446973706C6179203D3D3D3D3D8A
:101D40003D3D3D3D3D3D3D3D3D3D2F2F200A0D009C
:101D5000A44100080428004010B54FF48010FEF79D
:101D600035FD4FF480442046FFF71EFE002804D0C6
:101D70002046BDE81040FFF74FBC10BD18B500204D
:101D80000090104BCA201860532018600D49183974
:101D9000086820F020000860CC13086800F02000DC
:101DA000009A521C0092009AA24201D00028F4D05E
:101DB0000868800601D5012000E00020FF2119609D
:101DC00018BD0000242800400EB5002002900190AC
:101DD00000902A48016841F4803101604FF40042CC
:101DE0000168C1F3404101910099491C00919DF89F
:101DF000041011B900999142F2D10168C1F3404138
:101E000001919DF8041099B31D4A116821F0070152
:101E100041F00201116041684160416841604168E0
:101E200041F4806141604168164A11400291029973
:101E300041F480310291029941F400310291124A39
:101E400002991143029102994160016841F0807149
:101E5000016001688901FCD5416821F0030141F06E
:101E6000020141604168C1F381010229FAD10EBD2E
:101E7000FFE7074905480860F9E700000010024045
:101E800000200240FFFFC0F70000040800127A00A3
:101E90000000022010B5FFF765F90120FFF7D6F921
:101EA0001020FEF7E3FC0020FEF7ECFC0020FFF71B
:101EB000D1F80020FFF712F90020FFF705F9002004
:101EC000FFF730F9FFF75AFA0028FBD110BD0000E8
:101ED0002DE9F04107460D46002D08D04FF440385B
:101EE000FFF740F94FF48034012D03D00CE04FF0A0
:101EF0000008F5E72046FFF7B7F8FFF747FA35493E
:101F00000870012800D0FEE7334834493A1A344EAD
:101F10004FF48065874250D00FDC78183BD03149B0
:101F200040183ED0401842D02F49C84232D101203B
:101F30004FF440162C4600250CE050184FF4A061D9
:101F40003FD02A4A801840D05210D04222D10420DB
:101F5000A0460C46FEF796FC0020FFF77BF82846CB
:101F6000FFF7BCF82046FFF7AFF831464046FFF7D1
:101F7000BFF80120FFF776F93920FFF7E7F90028CD
:101F8000FAD00220FFF7CEF8FFF7F8F90828FBD1C6
:101F9000BDE8F081FEE700204FF480160024002504
:101FA000D8E701204FF4E01600240025D2E70120F5
:101FB0004FF420162C460025CCE702202C460025A5
:101FC000C8E702200A4E0C46C4E70320094E0C461F
:101FD000C0E700002800022000A24A0400CA91FEC7
:101FE0000000040800E548FF00EE85FF00B817FE7A
:101FF00000001C0800003C0810B50E4BD86940F0EA
:102000008050D8610C480068C0F304600B4AD16866
:1020100021F47871801C441E1E2C03D241EA40102A
:10202000D06002E041F47870D060D86920F0805030
:10203000D86110BD00100240001800400070004040
:10204000042805D14FF0E020016941F0040101614D
:10205000704710B501F098FE012803D0BDE810408C
:1020600001F0D4BB10BD000010B50420FFF7E8FF5D
:1020700009480A490068B0FBF1F14FF47A70414316
:102080004FF0E020026942F0020202614161016901
:1020900041F00101016110BD0000022040420F002B
:1020A00010B52348016841F47001016021480168BE
:1020B00041F00101016041681F4A1140416001681F
:1020C0001E4A11400160016821F4802101604168CD
:1020D0001B4A114041604FF46051C1624FF461519D
:1020E00001634FF41F018160C16941F08051C161FA
:1020F0001449CA6842F00102CA60C16921F08051E6
:10210000C1611148016841F090010160FFF75CFE78
:1021100007494FF00060803908600C4800680C499E
:10212000884203D0BDE81040FFF766BF10BD000035
:1021300088ED00E00010024000C0FFF8FFFFF6FE4F
:10214000FFFF00F7007000400020024098F2FF1FE0
:10215000424B524910B501218C07204600F01BF874
:10216000002811D00121204600F012F80749088804
:10217000421C0A800022A0F57F43FA3B00D10A806E
:102180000888142800D10A8010BD00002A0002200F
:10219000C943016170470246002013690B409289D0
:1021A0000A40002B02D0002A00D001207047000016
:1021B00070B5094C40F225552946204600F059F9E2
:1021C000002808D0204600F0CDF929462046BDE879
:1021D000704000F0A5B870BD0050004010B586B04A
:1021E000012144F20500FFF70FF84FF48060ADF8CD
:1021F000140004208DF817001C4C05A92046FEF79A
:102200001FFC6115ADF8141003218DF8161018216C
:102210008DF8171005A92046FEF712FC4FF4E130A7
:1022200001900020ADF80800ADF80A00ADF80C00F0
:10223000ADF810000C20ADF80E000D4C01A92046A1
:1022400000F038F9FEF748FE012240F22551204601
:1022500000F06EF8012240F22441204600F068F8B8
:102260000121204600F0F2F806B010BD0008014040
:10227000003801402DE9F041254C40F22557394600
:10228000204600F0F6F8234D002688B1204600F0E5
:1022900069F92A88511C8BB21F492B8088544FF64C
:1022A000FE70834200D92E803946204600F038F86F
:1022B00040F224473946204600F0DBF8002824D0BD
:1022C0003946204600F02CF820881148001D00886F
:1022D000124C84F88760B4F88410201DFDF7F3FFDA
:1022E000A4F8846094F88600012809D12A880A4954
:1022F000201DFDF7CFFF288824F8840F0120E0700F
:1023000029880548FDF7DFFF2E80BDE8F081000039
:102310000038014004000220C0000220E002022038
:1023200040F66A120A0A01219140C94301807047B0
:1023300010B540F66A13C1F3421301F01F040121E6
:10234000A140012B07D0022B07D014303AB102680C
:102350000A43026010BD0C30F8E71030F6E702685F
:102360008A43026010BD000070B5314988420AD12D
:1023700001218C032046FEF755FF2046BDE8704042
:102380000021FEF74FBF2B494FF40034884209D19A
:1023900001212046FEF72AFF2046BDE870400021BB
:1023A000FEF724BF24494FF48025884209D101213A
:1023B0002846FEF71BFF2846BDE870400021FEF7C7
:1023C00015BF1E4988420AD10121CC042046FEF7E0
:1023D0000DFF2046BDE870400021FEF707BF1849F9
:1023E00088420AD101210C052046FEF7FFFE204657
:1023F000BDE870400021FEF7F9BE1249884209D1BC
:1024000001212046FEF70EFF2046BDE87040002166
:10241000FEF708BF0C49884209D101212846FEF782
:1024200001FF2846BDE870400021FEF7FBBE70BDED
:10243000003801400044004000480040004C00408B
:10244000005000400050014000540140002904D0D9
:10245000818941F4005181817047818921F40051C3
:10246000818170470246002012880A4200D0012074
:10247000704770B5002440F66A12C1F3421301F0B0
:102480001F05012606FA05F2012B0CD0022B0DD0F8
:10249000838A1340090A8E40008830400BB100B196
:1024A0000124204670BD83891340F3E7038A13405B
:1024B000F0E7000030B587B004460D46208A4CF6A0
:1024C000FF710840E98801432182A1894EF6F3108B
:1024D0000140A8882A8910436A890A431043A081D1
:1024E000A08A4FF6FF410840A9890143A18201A8B3
:1024F000FEF7C4FE1848844205D018498C4202D029
:1025000017498C4201D1049800E0039800EBC00108
:1025100001EB001029688900B0FBF1F06423B0FBE7
:10252000F3F109010A096FF018056A4300EB820212
:10253000322505EB0212B2FBF3F20125B5EB121FB7
:1025400003D1B0FBF3F0401C010102F00F0008437F
:10255000208107B030BD000000380140005001402C
:10256000005401408088C0F308007047C1F308019F
:1025700081807047FEE700000FB4054B10B503A93A
:10258000044A029800F018F810BC5DF814FB000033
:1025900089270008BC00022002E008C8121F08C1F9
:1025A000002AFAD170477047002001E001C1121FD4
:1025B000002AFBD1704700002DE9FF4F8BB09A46EF
:1025C0000F460546002606E025280BD052460D99F9
:1025D00090476D1C761C28780028F5D10FB0304646
:1025E000BDE8F08F0024A0460122604900E00443CA
:1025F00015F8013F203B02FA03F00842F7D1287892
:102600002E2817D115F8010F44F004042A280ED003
:102610006FF02F022878A0F1300109290AD808EBC1
:10262000880102EB410100EB01086D1CF2E757F84D
:10263000048B6D1C287869283ED006DC0028CDD09C
:1026400063280BD0642804D136E0732810D0752895
:102650004BD052460D999047761C85E017F8040B35
:102660008DF8000000208DF80100E946012003E00C
:1026700057F8049B4FF0FF3061074FF0000401D47E
:102680000AE0641C44450DDA8442FADB19F80410B0
:102690000029F6D106E0641C8442FCDB19F8041022
:1026A0000029F8D1264404E019F8010B52460D998F
:1026B0009047641EF8D257E001CF4FF00A0B002874
:1026C00002DA40422D2102E0210504D52B218DF8AC
:1026D0002410012103E0E10705D02021F7E70DF1E7
:1026E000200908910CE00021F9E701CF4FF00A0B17
:1026F000F9E75946FDF7F2FD01F1300209F8012D25
:102700000028F6D1ADEB090000F1200B600701D4E1
:102710004FF00108D84502DDA8EB0B0000E00020D7
:102720008046002406E009A85246005D0D999047B6
:10273000641C761C08988442F5DB04E03020524685
:102740000D999047761CB8F10001A8F10108F5DC5D
:1027500005E019F8010B52460D999047761CBBF124
:102760000001ABF1010BF4DC6D1C34E7092801001A
:1027700043F6982303E01946491E89B2FCD2401E55
:1027800080B2F8D2704700002DE9F0410446134DA5
:10279000134F0D2C10D000260A2C10D02E60E1B261
:1027A0003846FFF7E3FE80213846FFF75BFE00283E
:1027B000F9D02046BDE8F08101202860EFE72868C5
:1027C00048B90D213846FFF7D1FE80213846FFF782
:1027D00049FE0028F9D02E60E1E700002C0002201D
:1027E0000050004010B586B001214805FEF7F0FC0E
:1027F00001210820FEF708FD4FF44060ADF8040009
:1028000001208DF806001C208DF8070001A916484C
:10281000FEF716F9154C2046FEF700FA0021ADF838
:102820000C104BF6FF71ADF80E101021ADF8101022
:102830008901ADF812100901ADF814100C4902918C
:1028400002A92046FEF740FA01224FF4E06120463B
:10285000FEF7D9F90220FEF751FB01212046FEF7D1
:102860001FFA06B0002010BD000C014000580040C7
:10287000A08601000120FEF7EBFAC82000F06EFEF2
:10288000F8E742F21074204600F068FEFBE7000013
:102890001CB5FFF7FFFA00212748FFF719FBFFF7E8
:1028A0009DFCFDF7CDFE25A0FDF71CFFFEF7DEFA2F
:1028B000FEF7F6FAFEF7B6FAFFF7D6FB00F0E0FCFB
:1028C000FDF734FDFDF726FEFDF718FEFDF76AFE65
:1028D0004FF4FA60FFF74CFF00F066FD1848032143
:1028E000CDE900100023502216A1194801F01CFA6E
:1028F00013480221001DCDE900100023502215A12C
:10290000174801F011FA0E4801210830CDE90010F6
:102910000023642213A1164801F006FA00F064FDBA
:10292000144C15482188FDF7CEFC0020208000F0D3
:1029300083FE00201CBD000000A24A044853490049
:10294000300002206C6564315F7461736B000000BD
:10295000752800086C6564325F7461736B00000059
:1029600083280008416973635F5461736B00000042
:102970000B05000804000220C00002202DE9F041F0
:1029800004460F46174EF5683068001D00F0C6FC7F
:1029900038B9306890F82C100120884031698143A3
:1029A0003161601C07D137B13168BDE8F041091DC4
:1029B0000D4800F0ECBC2C4430684460AC4206D2B8
:1029C0003168F06B091DBDE8F04100F0C8BC31680A
:1029D000B06B091D00F0C3FCB06A844200D2B4623F
:1029E000BDE8F0813C0002209C04022070B5044642
:1029F00000F0DAFC1D4DA868401CA860286810B1E2
:102A0000686938B10CE02C60A868012808D100F092
:102A100081F905E02868E16AC06A884200D82C6024
:102A2000686A401C68622064E06A01212A6981406A
:102A3000114329610E4900EB800001EB8000211D4C
:102A400000F0A5FC00F0D0FC686900280CD02868D4
:102A5000E16AC06A884207D206494FF08050086098
:102A6000BFF34F8FBFF36F8F70BD00003C0002209B
:102A7000E803022004ED00E010B500F095FC0E4CD8
:102A80002068A0B90D4800F05CFC0C48143000F040
:102A900058FC0A48E06014302061002210210A200E
:102AA00000F0CAFE206010B105A100F021FDBDE8D4
:102AB000104000F099BC00007C000220B00402200D
:102AC000546D72510000000070B50C4D0C4E11E0B9
:102AD00000F06AFCF068C468201D00F01FFCA868C4
:102AE000401EA8606868401E686000F07DFC2046BB
:102AF00000F053F868680028EAD170BD3C0002205D
:102B00008804022030B40B46026C002A0CD0C16845
:102B10001144C1608468A14201D30168C160C168E9
:102B200030BC1846FDF7B6BB30BC70472DE9F0410C
:102B3000044617460026A56B226C002A10D0C7B1A8
:102B4000E068FDF7A7FBE168206C091AE1602268E4
:102B5000914202D2A168081AE060022F16D017E055
:102B60002068A8B9A06801F08BF906460020A06093
:102B70000EE06068FDF78EFB216C606808446060C1
:102B8000A168884204D32068606001E005B16D1E31
:102B90006D1CA5633046BDE8F08110B50446206B7E
:102BA00000F038FC2046BDE8104000F033BC0000C7
:102BB0000749CA681168002904D00021016019B1D1
:102BC000002070470121F9E7D068006870470000D5
:102BD0007C0002204FF4C0510F48420706D0C01DB0
:102BE00020F007000C49411AC1F5C0510B4A106092
:102BF000002353600144083921F00701183A11609D
:102C00004B600B600B1A436001604068906050603D
:102C10004FF0004050617047D8040220A800022005
:102C2000074E4FF08054074DFFF74EFF30680128E4
:102C3000FAD92C60BFF34F8FBFF36F8FF4E700001A
:102C4000E803022004ED00E070B51D46049C002955
:102C500009D02260E06321640121204600F024FEB7
:102C600084F84C5070BD2460F4E72DE9F05F824693
:102C7000DDE90A590C9C0E4617469B46B900A52271
:102C8000206BFDF719FB206B7F1E00EB870020F007
:102C90000707780707D0502080F31188BFF34F8FC4
:102CA000BFF36F8FFEE74FF0000866B100202218D7
:102CB000315C82F83410315C11B1401C0A28F6D323
:102CC00084F83D8001E084F83480052D00D304258C
:102CD000E562A564C4F84C80201D00F03DFB04F1C2
:102CE000180000F039FB2461C5F10500A0616462A1
:102CF000C4F8508084F854805A465146384600F053
:102D0000ADFA2060B9F1000F01D0C9F80040BDE86C
:102D1000F09F000070B50024124D04EB840005EB19
:102D2000800000F00EFB641C052CF6D30D486430C7
:102D300000F007FB0B48783000F003FB09488C30AB
:102D400000F0FFFA0748A03000F0FBFA0548B43065
:102D500000F0F7FA03490448643181631431C16318
:102D600070BD0000E80302203C00022030B513498A
:102D700000E011460A688242FBD34B685C1884422B
:102D800003D140681844486008460D684468231819
:102D9000AB420DD1094B183B1B689A4206D05268D2
:102DA000224442600A681268026002E0036000E0A8
:102DB0000260814200D0086030BD0000A8000220FF
:102DC00070B50024416000610C4D91420AD8D11ABF
:102DD0008269914201D301240EE0011D286900F0AF
:102DE000BEFA09E09A4203D2994201D3012403E0DA
:102DF000011DE86800F0B3FA204670BD7C00022097
:102E000010B5044600F0D0FAA06B20B1002400F009
:102E1000EBFA204610BD0124F9E710B5044600F096
:102E2000C3FAA06BE16B884201D1012400E00024C9
:102E300000F0DAFA204610BDF8B505460E461748F0
:102E4000C068C068C468201D00F068FA94F82800C3
:102E5000410718D5A0692B46411932462046FFF795
:102E6000AFFFA0B100200346014600902A4620464D
:102E700001F01AF958B9502080F31188BFF34F8F31
:102E8000BFF36F8FFEE720F0010084F82800216A6D
:102E900001B02046BDE8F040084700007C00022059
:102EA00030B587B03C4D6EE00398002803DADDE9C9
:102EB0000420069990470398002864DB059C60690C
:102EC00010B1201D00F02AFA02A800F0ADF8024669
:102ED00003980A2857D2DFE800F00505052D334A8C
:102EE00005052D3394F8280040F0010084F82800EF
:102EF0000498A169034601442046FFF761FF68B3C7
:102F0000216A2046884794F8280040073BD50020D6
:102F100000900498A169002342181946204601F048
:102F2000C3F8D8B9502080F31188BFF34F8FBFF397
:102F30006F8FFEE714F8280F20F00100207022E0C8
:102F400094F8280040F0010084F828000498A0615B
:102F500028B1811813462046FFF732FF13E05020B6
:102F600080F31188BFF34F8FBFF36F8FFEE794F8A4
:102F70002800810703D4204600F04CFA03E020F03B
:102F8000010084F82800002203A9286800F0EEFD63
:102F9000002889D107B030BD7C000220F8B5064674
:102FA0000D4600F081FB684600F03EF804460098AC
:102FB00010B100F0EBFFF8BD45B9A64206D800F00D
:102FC000E5FF21463046FFF737FFF8BD0C481DB13D
:102FD0000169096891B10025311B2A46006800F09B
:102FE00099FA00F0D3FF0028EFD106494FF0805046
:102FF0000860BFF34F8FBFF36F8FF8BD0125EBE77C
:103000007C00022004ED00E00648816B096800297D
:1030100004D0816BC9680968816270474FF0FF3145
:10302000816270473C00022070B5054600F0BAFE90
:103030000446074EB068844204D200F00BF8012029
:10304000286001E000202860B460204670BD0000C8
:103050007C000220F8B51A4E20E0C0680568C468FC
:10306000201D00F05BF9216A2046884794F828006B
:10307000400713D5A0692844A84206D9606024619E
:10308000211DF06800F06BF908E0002003460146BE
:1030900000902A46204601F007F840B1F068016828
:1030A0000029DAD1F0683169F1603061F8BD502053
:1030B00080F31188BFF34F8FBFF36F8FFEE70000DF
:1030C0007C00022009484068401C07D0502080F353
:1030D0001188BFF34F8FBFF36F8FFEE7502080F34F
:1030E0001188BFF34F8FBFF36F8FFEE7B000022050
:1030F00008B56846FFF75CFD0099FFF74FFFFFF743
:10310000CFFEF6E72DE9F041044600F04DF994F9C1
:10311000455004F1240609E0606A48B1304600F0E9
:10312000F7FE08B100F04AFA6D1E6DB2002DF3DC17
:103130004FF0FF3684F8456000F056F900F034F99E
:1031400094F9445004F1100709E0206948B1384669
:1031500000F0DEFE08B100F031FA6D1E6DB2002DF8
:10316000F3DC84F84460BDE8F04100F03DB90000B4
:103170002DE9F0410446002600F096FA364F3868F3
:1031800008B9FFF727FD7869044256D1CCB104F1A4
:103190000805A54215D9680714D005F00700C0F14D
:1031A00008002844A8420AD9054668070AD05020DA
:1031B00080F31188BFF34F8FBFF36F8FFEE70025B9
:1031C00000E00025CDB37868854236D82249183111
:1031D0000846046801E0214604466068A84202D21D
:1031E00020680028F7D13868844226D00E68083657
:1031F000206808606068411B10290ED960194207D9
:1032000007D0502080F31188BFF34F8FBFF36F8F2B
:10321000FEE741606560FFF7A9FD61687868401AC4
:103220007860BA68904200D2B86078690143616002
:1032300000202060F868401CF86000F0A7FE7007CE
:1032400007D0502080F31188BFF34F8FBFF36F8FEB
:10325000FEE73046BDE8F0819000022024384FF0B0
:103260008073036221F00101C16104498161426000
:103270006FF0020140F8201970470000C5300008C7
:1032800010B5FEF727FA01214FF0C050FDF7A0FF5F
:103290000120FDF7ADFE11210420FDF7B9F904204E
:1032A000FDF7ACF94AF2A554A04209D00022012151
:1032B0000320FEF799F8012808D00CA0FFF75CF96D
:1032C000BDE810400E490020FEF782BBFEF7D4FB9C
:1032D000FEF700FAFEF712FAFEF756FC214604202C
:1032E000FDF796F907A0FFF747F9E9E70D0A205225
:1032F000544320496E6974204661696C650D0A006B
:10330000180002200D0A2052544320496E6974208F
:10331000537563636573730D0A0000000169D0E99A
:1033200001329A60D0E901235A604A68824201D191
:1033300082684A60002202610868401E08600868CE
:10334000704700F1080141604FF0FF328260C160B8
:10335000016100210160704700210161704730B5B3
:103360000C68621C02D000F1080202E0026904E06D
:103370001A4653681D68A542FAD953684B60996094
:103380008A60516008610168491C016030BD426873
:103390004A6093688B609368596091600861016826
:1033A000491C016070470000502080F31188BFF372
:1033B0004F8FBFF36F8F0A494868401C486001284F
:1033C0000CD10848006810F0FF0F07D0502080F3A0
:1033D0001188BFF34F8FBFF36F8FFEE77047000078
:1033E000B000022004ED00E009494868002806D03A
:1033F000401E4860002801D180F31188704750209A
:1034000080F31188BFF34F8FBFF36F8FFEE700008B
:10341000B000022070B500282AD008380446154DA7
:1034200060686969084207D1502080F31188BFF3B2
:103430004F8FBFF36F8FFEE722683AB1502080F3C1
:103440001188BFF34F8FBFF36F8FFEE78843606033
:1034500000F02AF960686968084468602046FFF750
:1034600085FC2869401C2861BDE8704000F08EBDD5
:1034700070BD0000900002204FF0E02000210161AB
:10348000816105494FF47A720968B1FBF2F1491E76
:1034900041610721016170470000022010B5FCF76F
:1034A000E3FE114910280ED300F1E02090F8F0035C
:1034B0000A78904207D2502080F31188BFF34F8FD3
:1034C000BFF36F8FFEE709480068896800F4E06089
:1034D000884207D9502080F31188BFF34F8FBFF384
:1034E0006F8FFEE710BD0000B00002200CED00E081
:1034F00010B50022064B53F832401CB1521C082A6A
:10350000F9D310BD43F8321003EBC201486010BD7F
:10351000A803022070B504460D461646FFF744FF87
:1035200094F944304FF000005B1C01D184F8440052
:1035300094F94510491C01D184F84500FFF754FF68
:10354000A06B28B93246294604F1240000F056F851
:103550002046BDE87040FFF7D5BD000010B502461B
:103560000020002A12D00F48406B38B1502080F361
:103570001188BFF34F8FBFF36F8FFEE700F094F811
:1035800000211046FFF7FAF900F000FD002807D1EE
:1035900005494FF080500860BFF34F8FBFF36F8F26
:1035A00010BD00003C00022004ED00E002490A6A60
:1035B0000260C968416070473C0002200149012057
:1035C000C86170473C00022010B50C4600280AD0A4
:1035D000094909681831FFF7C2FE2046BDE81040CE
:1035E0000121FFF7CBB9502080F31188BFF34F8F33
:1035F000BFF36F8FFEE700003C00022070B50D4660
:10360000144600280DD00B4909681831FFF7BFFE9A
:103610000CB14FF0FF3521462846BDE87040FFF75A
:10362000ADB9502080F31188BFF34F8FBFF36F8F78
:10363000FEE700003C0002207CB517480025CDE9DC
:1036400000502B46C82215A1164800F06DFB01283A
:1036500001D100F001FD104C2C3C012802D0401C8F
:1036600011D00EE0502080F31188BFF34F8FBFF3CD
:103670006F8F4FF0FF30A06201206061E56000F0C5
:103680004BF8206B7CBD502080F31188BFF34F8F27
:10369000BFF36F8FFEE700006800022049444C45ED
:1036A00000000000212C00080248416B491C4163C6
:1036B000704700003C000220154A506B002802D0E1
:1036C0000120D06170470020D0611069B0FA80F00D
:1036D000C0F11F000F4900EB800051F8203073B19A
:1036E00001EB800041684968416000F1080399429C
:1036F00001D1496841604068C0681060704750203F
:1037000080F31188BFF34F8FBFF36F8FFEE7000088
:103710003C000220E80302201CB537480168374A04
:10372000914207D1502080F31188BFF34F8FBFF330
:103730006F8FFEE700683149491E884207D150204B
:1037400080F31188BFF34F8FBFF36F8FFEE72C49D3
:1037500008780190FF200870087800909DF800001C
:103760009DF8002000F0F000904207D0502080F338
:103770001188BFF34F8FBFF36F8FFEE79DF80000F6
:10378000204C00F0500020700720A06006E0A068E8
:10379000401EA0609DF80000400000909DF80000D1
:1037A0000006F4D4A068032807D0502080F31188C5
:1037B000BFF34F8FBFF36F8FFEE74FF44070A060F1
:1037C000019808700C482030016841F470010160D4
:1037D000016841F070410160FFF74EFE002060601B
:1037E000FCF70AFD0848016841F040410160FCF720
:1037F000EFFC00201CBD000000ED00E071C20F4195
:1038000000E400E0B000022034EF00E010B55020EA
:1038100080F31188BFF34F8FBFF36F8F00F0C8FAAA
:1038200018B104494FF080500860002080F31188DF
:1038300010BD000004ED00E0F8B505460E46174641
:10384000002D0ED005FB06F09EB1B0FBF6F1A942AB
:103850000FD0502080F31188BFF34F8FBFF36F8FCD
:10386000FEE7502080F31188BFF34F8FBFF36F8FB7
:10387000FEE700F15001814207D8502080F3118803
:10388000BFF34F8FBFF36F8FFEE70846FFF770FC63
:1038900004463CB1224650323B463146284600940D
:1038A000FFF7D2F92046F8BD70B504460D46002C4E
:1038B00025D0FFF779FDD4E90F20216802FB001124
:1038C000A1600021A16321686160E06B2268216C26
:1038D000401E00FB0121E1604FF0FF3084F84400FE
:1038E00084F8450004F110008DB1FFF72AFD04F1C2
:1038F0002400FFF726FDFFF777FD012070BD502063
:1039000080F31188BFF34F8FBFF36F8FFEE72169FC
:103910000029F0D000F0FCFA0028ECD004494FF068
:1039200080500860BFF34F8FBFF36F8FE3E7000055
:1039300004ED00E02DE9FF4782B004468A461E46AA
:103940000025002C03D0BAF1000F08D011E0502060
:1039500080F31188BFF34F8FBFF36F8FFEE7206CAA
:1039600038B1502080F31188BFF34F8FBFF36F8FB2
:10397000FEE7022E0AD1E06B012807D0502080F329
:103980001188BFF34F8FBFF36F8FFEE700F0FCF994
:1039900048B9049838B1502080F31188BFF34F8F95
:1039A000BFF36F8FFEE74FF000094FF08057DFF84D
:1039B000E480FFF7F9FCA06BE16B884205D3022E8F
:1039C00003D0049808B325B327E032465146204679
:1039D000FFF7ACF8616A59B104F1240000F098FADD
:1039E00068B1C8F80070BFF34F8FBFF36F8F06E068
:1039F00028B1C8F80070BFF34F8FBFF36F8FFFF788
:103A0000F3FC012006B0BDE8F087FFF7EDFC0020D5
:103A1000F8E76846FFF7CAFD0125FFF7E5FCFFF769
:103A200043FEFFF7C1FC94F94400401C01D184F827
:103A3000449094F94500401C01D184F84590FFF76B
:103A4000D3FC04A9684600F02FF930B12046FFF7F7
:103A500059FB00F09BFA0020D4E72046FFF7DDF980
:103A600090B104F110000499FFF7AEFD2046FFF776
:103A700049FB00F08BFA00289BD1C8F80070BFF317
:103A80004F8FBFF36F8F94E72046FFF73BFB00F0AB
:103A90007DFA8EE704ED00E02DE9F0470446894603
:103AA00090461F46002C03D0B9F1000F08D011E05A
:103AB000502080F31188BFF34F8FBFF36F8FFEE765
:103AC000206C38B1502080F31188BFF34F8FBFF3C3
:103AD0006F8FFEE7022F0AD1E06B012807D050203C
:103AE00080F31188BFF34F8FBFF36F8FFEE7FFF7AF
:103AF000D5FC5020EFF3118680F31188BFF34F8F70
:103B0000BFF36F8FA06BE16B884206D3022F04D006
:103B1000002086F31188BDE8F08794F94550A06B2A
:103B20003A4649462046FFF701F8681C06D07F2D2B
:103B300014D06D1C84F845500120EAE7606A002823
:103B4000FAD004F1240000F0E3F90028F4D0B8F131
:103B5000000FF1D00120C8F80000EDE7502080F3FD
:103B60001188BFF34F8FBFF36F8FFEE72DE9F74743
:103B700083B004468A460026002C03D0BAF1000F19
:103B800008D011E0502080F31188BFF34F8FBFF3AE
:103B90006F8FFEE7206C38B1502080F31188BFF39F
:103BA0004F8FBFF36F8FFEE700F0EEF848B905982E
:103BB00038B1502080F31188BFF34F8FBFF36F8F60
:103BC000FEE700274FF08058DFF8D890FFF7ECFBB6
:103BD000A56BC5B151462046FEF794FF6D1EA56347
:103BE000206950B104F1100000F092F928B1C9F831
:103BF0000080BFF34F8FBFF36F8FFFF7F5FB0120FE
:103C000006B0BDE8F087059808B126B107E0FFF7D8
:103C1000EBFB0020F4E701A8FFF7C8FC0126FFF743
:103C2000E3FBFFF741FDFFF7BFFB94F94400401CA5
:103C300001D184F8447094F94500401C01D184F806
:103C40004570FFF7D1FB05A901A800F02DF858B188
:103C50002046FFF757FA00F099F92046FFF7D0F811
:103C60000028B3D00020CBE72046FFF7C9F890B179
:103C700004F124000599FFF7A7FC2046FFF742FA5C
:103C800000F084F90028A1D1C9F80080BFF34F8F5C
:103C9000BFF36F8F9AE72046FFF734FA00F076F90A
:103CA00094E7000004ED00E02DE9F04105460C46E4
:103CB000002D14D0DCB1FFF777FB1A4EF0686B686B
:103CC000C11A2268571C1AD02F68D6F820C00026C7
:103CD000674516D0834214D8012526601CE0502089
:103CE00080F31188BFF34F8FBFF36F8FFEE7502033
:103CF00080F31188BFF34F8FBFF36F8FFEE700256E
:103D00000AE08A4206D9501A20602846FFF74EFC86
:103D1000002501E026600125FFF766FB2846BDE887
:103D2000F08100003C0002202DE9FF5F8146DDE9C3
:103D30000E788A4616469B46B000FFF719FA0546EC
:103D400028000AD05820FFF713FA04460CB1256367
:103D500004E02846FFF75EFB00E000248CB1002061
:103D6000CDE90240CDE900785B46324651464846EF
:103D7000FEF77BFF2046FEF739FE012004B0BDE8C8
:103D8000F09F4FF0FF30F9E705484169002903D063
:103D9000406B18B100207047012070470220704727
:103DA0003C0002200148C068704700003C0002202F
:103DB0002DE9F0410026304F786B002805D0B86916
:103DC000401CB8613046BDE8F081FD686D1CFD60A7
:103DD0009DB9B86B006838B1502080F31188BFF3EB
:103DE0004F8FBFF36F8FFEE7B86BF96BB963F86362
:103DF000386A401C3862FFF707F9B86ADFF87C8040
:103E000085420DD3B86B006838B1B86BC068C46820
:103E10006068854212D2B86202E04FF0FF30B862AB
:103E20003868C06A00EB800058F82000012800D9EB
:103E30000126F8690028C5D00126C3E7201DFFF739
:103E40006DFAA06A18B104F11800FFF767FAE06A8A
:103E500001213A6981401143396100EB800008EB90
:103E60008000211DFFF793FAE06A3968C96A884229
:103E7000C8D30126C6E700003C000220E803022068
:103E800070B504460020002C3DD01F4D29688C429F
:103E900007D0502080F31188BFF34F8FBFF36F8F8F
:103EA000FEE7E16C69B1491EE164A36CE26A9A42E3
:103EB00029D0002927D1201DFFF730FA012140B178
:103EC0000EE0502080F31188BFF34F8FBFF36F8F48
:103ED000FEE794F82C2001FA02F02A6982432A6155
:103EE000A06CE062C0F10500A061E06A2A6981402F
:103EF00011432961054900EB800001EB8000211D81
:103F0000FFF745FA012070BD3C000220E8030220C3
:103F10002DE9F041C068C468002C15D004F11800E8
:103F20000746FFF7FBF9174D6A6B0126A2B1394628
:103F30001548FFF72CFAE06A2968C96A88421ED939
:103F40000120EE61BDE8F081502080F31188BFF3BD
:103F50004F8FBFF36F8FFEE7201DFFF7DFF9E06A99
:103F60002A6906FA00F111432961074900EB800034
:103F70008C3901EB8000211DFFF709FADBE70020F7
:103F8000E0E700003C000220740402202DE9F0412B
:103F9000002400272D4D686B002807D0FFF704FA96
:103FA000686B401E6863686B40B14AE0502080F344
:103FB0001188BFF34F8FBFF36F8FFEE7A868E8B398
:103FC000DFF88C8001261EE0D8F80C00C46804F1EC
:103FD0001800FFF7A3F9201DFFF7A0F9E06A2A698E
:103FE00006FA00F111432961194900EB80008C3970
:103FF00001EB8000211DFFF7CAF9E06A2968C96A50
:10400000884200D3EE61D8F800000028DCD10CB162
:10401000FEF7FAFFAC6944B1FFF7CAFE00B1EE61EA
:10402000641E002CF8D10020A861E86930B1012796
:10403000084938070860BFF34F8F00E001E0BFF385
:104040006F8FFFF7D1F93846BDE8F0813C000220C0
:104050007404022004ED00E01CB50024FEF70CFD02
:104060000D48006860B10C480221001DCDE9001028
:1040700000234FF4C87209A10A48FFF755FE044611
:104080000CB120461CBD502080F31188BFF34F8F28
:10409000BFF36F8FFEE700007C000220546D72209A
:1040A00053766300F13000082DE9FF4106460A9F70
:1040B0009C460020002E15D0154D2C68002C0ED0EB
:1040C00000910192029606291BDAFFF75DFE022895
:1040D00010D000231A4669462868FFF72BFC04B06D
:1040E000BDE8F081502080F31188BFF34F8FBFF3FC
:1040F0006F8FFEE700233A4669462868FFF71AFCEF
:10410000EDE70023624669462046FFF7C5FCE6E777
:104110007C000220000000000102030401020304ED
:104120000607080901020406080A0C1020202020B6
:1041300020202020010002000400060008000A00E0
:104140000C00100020004000800000010001000170
:10415000000100010A0D20546865206375727265C4
:104160006E74206461746520285765656B446179BD
:104170002D446174652D4D6F6E74682D59656172A3
:1041800029206973203A202025302E32642D2530D5
:104190002E32642D25302E32642D25302E326420AF
:1041A0000A0D00000A0D205468652063757272655F
:1041B0006E742074696D652028486F75722D4D6985
:1041C0006E7574652D5365636F6E64292069732065
:1041D0003A202025302E32643A25302E32643A259A
:1041E000302E3264200A0D00084200080000022030
:1041F000C000000098250008C8420008C000022046
:1042000018310000A825000800A24A0400000000A0
:10421000000000000000000000000000000000009E
:10422000000000000000000000000000000000008E
:10423000000000000000000000000000000000007E
:10424000000000000000000000000000000000006E
:10425000000000000000000000000000000000005E
:10426000000000000000000000000000000000004E
:10427000000000000400000000000000000000003A
:10428000000000000000000000000000000000002E
:10429000000000000000000000000000000000001E
:1042A000000000000000000000000000000000000E
:1042B000000000000000000000000000AAAAAAAA56
:0842C0000000000000000000F6
:040000050800019955
:00000001FF
