:020000040800F2
:10000000D034022071020008010C00085D090008CC
:10001000FD0B0008BF0300089F1A00080000000045
:10002000000000000000000000000000B101000816
:1000300061040008000000000D020008C31400085D
:100040008B0200088B0200088B020008D110000808
:100050008B0200088B020008630400089D0400085E
:100060008B0200088B0200088B0200088B0200083C
:100070008B0200088B0200088B0200088B0200082C
:100080008B0200088B0200088B0200088B0200081C
:100090008B0200088B0200088B0200088B0200080C
:1000A0008B0200088B0200088B0200088B020008FC
:1000B000E11500088B0200088B0200088B02000883
:1000C0008B0200088B0200088B0200088B020008DC
:1000D0008B020008151700088B0200088B0200082D
:1000E000750400088B0200088B0200088B020008D0
:1000F0008B0200088B0200088B0200088B020008AC
:100100008B0200088B0200088B0200088B0200089B
:100110008B0200084D1600088B0200088B020008B5
:100120008B0200088B0200088B0200088B0200087B
:100130008B0200088B0200088B0200088B0200086B
:100140008B0200088B0200088B0200088B0200085B
:100150008B0200088B0200088B0200088B0200084B
:100160008B0200088B0200088B0200088B0200083B
:100170008B0200088B0200088B0200088B0200082B
:100180008B0200088B0200088B0200088B0200081B
:100190008B0200088B020008DFF810D000F0DEF8B8
:1001A00000480047591E0008AFF30080D0340220F9
:1001B0002C4B19680868B0E8F04F80F30988BFF34A
:1001C0006F8F4FF0000080F311887047000000002F
:1001D00008480068006880F308884FF0000080F34A
:1001E000148862B661B6BFF34F8FBFF36F8F00DF25
:1001F00000BF00BF08ED00E0DFF80C00016841F42B
:1002000070010160704700BF88ED00E0EFF30980E6
:10021000BFF36F8F134B1A681EF0100F08BF20ED4D
:10022000108A20E9F04F106009B44FF0500080F3BD
:100230001188BFF34F8FBFF36F8F02F027FA4FF093
:10024000000080F3118809BC19680868B0E8F04F15
:100250001EF0100F08BFB0EC108A80F30988BFF3BE
:100260006F8F704728000220EFF305807047000071
:100270000648804706480047FEE7FEE7FEE7FEE740
:10028000FEE7FEE7FEE7FEE7FEE7FEE715150008DE
:100290009901000810B5431A934209D283188818AF
:1002A00003E010F8011D03F8011D521EF9D210BD24
:1002B00040EA01039B0703D009E008C9121F08C0E8
:1002C000042AFAD203E011F8013B00F8013B521E68
:1002D000F9D210BDD2B201E000F8012B491EFBD2C9
:1002E00070470022F6E710B513460A460446194641
:1002F000FFF7F0FF204610BD2DE9F05F0546002016
:1003000092469B4688460646814640241BE0284686
:1003100041464746224600F042F853465A46C01A24
:10032000914110D311461846224600F029F82D1AA3
:1003300067EB01084F4622460120002100F020F81B
:1003400017EB00094E41201EA4F10104DFDC4846F2
:1003500031462A464346BDE8F09F0000064C074D53
:1003600006E0E06840F0010394E807009847103485
:10037000AC42F6D3FFF714FF642A0008842A000871
:10038000202A04DB203A00FA02F100207047914055
:10039000C2F1200320FA03F3194390407047202A4A
:1003A00004DB203A21FA02F00021704721FA02F31F
:1003B000D040C2F12002914008431946704700BF67
:1003C000FEE7704700B585B00121080500F044FD47
:1003D00001211D2000F060FD01211E4800F014F9EC
:1003E0004FF40070ADF8100004208DF8130004A93C
:1003F000194800F023FA4FF48070ADF81000032084
:100400008DF8120018208DF8130004A9124800F08E
:1004100015FA4FF4E13000900020ADF80400ADF87B
:100420000600ADF80800ADF80C000C20ADF80A008D
:1004300069460A4801F0C6FA00F0F5FB012240F2D5
:100440002551064801F0E9F90121044801F076FA46
:1004500005B000BDC0003640000C01400050004017
:10046000704710B5012000F037F810B1012000F0FE
:100470002DF810BD10B54FF4806000F02DF850B18C
:100480004FF4806000F022F801F044F8024801F0D7
:10049000E9F901F0F3F810BD0038014010B5022071
:1004A00000F01AF850B1022000F010F8044800F0F3
:1004B0001EFE0449087001200349087010BD0000A9
:1004C0007401022025000220260002200149086054
:1004D0007047000014040140014600200022074B31
:1004E0001B6803EA0102054B14331B680B4013B170
:1004F0000AB1012000E00020704700000004014024
:10050000002123498279002A3AD00A4612680368FA
:100510009A430B461A600A1D126803689A430B1D22
:100520001A60027911440A6803681A430A60184A7B
:100530000832126803689A43154B08331A601A1D73
:10054000126803689A43124B0C331A604279102ADE
:100550000ED11A1F126803681A430D4B08331A6034
:100560001A1D126803681A43094B0C331A600DE018
:100570000749427911440A6803681A430A6005E092
:10058000027911440A6803689A430A6070470000C0
:10059000000401400549096821F01001034A116077
:1005A00011460968014311607047000000200240B5
:1005B00001460020034A106800F0F800084310606C
:1005C000704700000020024030B500228B071C0F4E
:1005D0000F2303FA04F20B4B8C1053F8243093438F
:1005E000084C8D1044F8253023468C1053F82430E5
:1005F0008C07240F00FA04F42343024C8D1044F8B6
:10060000253030BD08000140F0B502460C460023FD
:10061000002600210025002002F08047B7F1804F1E
:1006200002D1844F396A11E002F00057B7F1005F40
:1006300002D1804F796A09E002F08057B7F1805FFC
:1006400002D17C4FB96A01E07A4F7968C2F3034561
:1006500093B2794F1740B7F5401F0AD121F070616E
:10066000744F7F6827F07067DFF8C8C1CCF804705A
:10067000BDE002F48017B7F5801F13D102F4001714
:10068000B7F5001F03D10327AF403E0402E0032764
:1006900007FA05F6B14302F0E047002FE8D141F038
:1006A0007061A4E002F08077B7F1807F47D102F05B
:1006B0000407042F29D102F00077B7F1007F16D18B
:1006C000C2F340573F0103FA07F7B9433CB1594F12
:1006D000786840F0010040F07060786087E0554F26
:1006E000786820F0010040F0706078607FE0C2F32D
:1006F00040573F0103FA07F7B9434E4F786820F09F
:10070000010040F07060786071E043F00407C2F3CC
:10071000405C4FEA0C1C07FA0CF7B9433CB1454F5B
:10072000786840F0010040F0706078605FE0414F11
:10073000786820F0010040F07060786057E002F0C7
:100740008067B7F1806F47D102F00807082F29D1E1
:1007500002F00077B7F1007F16D1C2F340573F0196
:1007600003FA07F7B9433CB1324F786840F008000C
:1007700040F0706078603AE02E4F786820F0080012
:1007800040F07060786032E0C2F340573F0103FAF6
:1007900007F7B943274F786820F0080040F07060F1
:1007A000786024E043F00807C2F3405C4FEA0C1C79
:1007B00007FA0CF7B9433CB11E4F786840F00800C7
:1007C00040F07060786012E01A4F786820F00800FE
:1007D00040F0706078600AE0C2F340573F0103FACE
:1007E00007F7B94302F0E0470FB941F070612CB14F
:1007F000C2F340573F0103FA07F7394302F080473D
:10080000B7F1804F02D10B4F396211E002F000576F
:10081000B7F1005F02D1074F796209E002F080571B
:10082000B7F1805F02D1034FB96201E0014F7960F7
:10083000F0BD000000000140000030702DE9F041E3
:10084000024600250026002000230024002791F8FE
:1008500003C00CF00F0591F803C00CF0100CBCF1B4
:10086000000F03D091F802C04CEA050591F800C0D2
:10087000BCF1000F31D0146800202BE04FF0010CC8
:100880000CFA00F3B1F800C00CEA03069E4220D136
:1008900083004FF00F0C0CFA03F7BC4305FA03FC7E
:1008A0004CEA040491F803C0BCF1280F06D14FF0C4
:1008B000010C0CFA00FCC2F814C00AE091F803C065
:1008C000BCF1480F05D14FF0010C0CFA00FCC2F846
:1008D00010C0401C0828D1D31460B1F800C0BCF18E
:1008E000FF0F34DD546800202EE000F1080C4FF0BB
:1008F000010808FA0CF3B1F800C00CEA03069E42A6
:1009000021D183004FF00F0C0CFA03F7BC4305FA1A
:1009100003FC4CEA040491F803C0BCF1280F05D194
:1009200000F1080C08FA0CF8C2F8148091F803C022
:10093000BCF1480F07D100F1080C4FF0010808FA8C
:100940000CF8C2F81080401C0828CED35460BDE8D3
:10095000F08141617047016170470000012000F0A3
:10096000F7F802A001F09EF800BFFEE7486172644C
:100970004661756C745F48616E646C65720A000054
:1009800070B502460024002500230020958A138BB1
:100990001B0445EA030626F07F4404EA01068E4262
:1009A00001D1012000E0002070BD21B1028842F099
:1009B0000102028004E002884FF6FE731A400280B2
:1009C000704710B501460020002300228B8A0A8B55
:1009D000120443EA020424F07F4010BD0146088A55
:1009E000C0B27047014600207047034600207047A0
:1009F0002DE9F05F83460C4615461E46DDF828803B
:100A000001F0E4FE81464FF0000A01201849087009
:100A10002AE001F0DBFEA0EB09074FF47A70704387
:100A20004FF47A71B0FBF1F0B84202D80420BDE86F
:100A3000F09F10480078012816D10F4802780F491E
:100A40002046FFF727FC0C480078C8F800000A4849
:100A500001780A48FFF745FC00200749087004495F
:100A6000087004490870E2E7AA45D2D300BFDEE768
:100A7000940002209500022096000220D01E022041
:100A80002DE9F04780460D4616469946089F0024FA
:100A90000BE0295D084800F0FEFF00BF80210648FA
:100AA00000F058FF0028F9D0641CB442F1D33C6038
:100AB0000020BDE8F0870000003801407FB5054602
:100AC0000C460121042000F0E7F9ADF80C400420A9
:100AD0008DF80F0003208DF80E0003A92846FFF7BC
:100AE000ADFE00210846FFF76FFD012001900020B8
:100AF0008DF8080008208DF8090001208DF80A0003
:100B000001A8FFF7FDFC06208DF8000000208DF8FD
:100B100001008DF8020001208DF80300684600F006
:100B200093F87FBD10B50121080700F095F9012069
:100B300000F0CCF8002000F0CFF901210348FFF7C6
:100B4000BDFF012000F0ECF810BD000000080140DE
:100B500010B50446012C04D101210448FFF7FBFE27
:100B600003E001210148FFF7F4FE10BD000C014035
:100B700008B50121082000F08FF90120ADF8000030
:100B800010208DF8030003208DF80200694602480A
:100B9000FFF754FE08BD0000000C014010B50446EC
:100BA000012C04D180210448FFF7D5FE03E0802109
:100BB0000148FFF7CEFE10BD0008014008B5012135
:100BC000042000F069F98020ADF8000010208DF8B5
:100BD000030003208DF8020069460248FFF72EFE4D
:100BE00008BD0000000801400348006880F00100D3
:100BF00001490860704700000C0C014000BFFEE78F
:100C0000704708B54FF4407000F056F825208DF875
:100C1000000006208DF8020001208DF803006846D0
:100C200000F012F808BD08B54FF4407000F044F829
:100C300035208DF8000001208DF802008DF80300AA
:100C4000684600F001F808BD70B5002100230F22AE
:100C5000C47804B3154C246804F4E064C4F5E0647B
:100C6000210AC1F10403CA40447804FA03F18478EC
:100C70001440214309010E4C0678A155047804F074
:100C80001F050124AC4005786D11AD0005F1E0258C
:100C9000C5F8004109E0047804F01F050124AC40C8
:100CA000044D0678761145F8264070BD0CED00E045
:100CB00000E400E080E100E002490143024A1160E3
:100CC000704700000000FA050CED00E001490862E1
:100CD0007047000000000E4200210F4A116821F009
:100CE00003011160926842F001020B4B9A600B4ABB
:100CF000126842F00402094B1A60012801D130BF8A
:100D000002E040BF20BF20BF044A126822F0040264
:100D1000024B1A60704700000070004010ED00E0C8
:100D20000149086070470000A0000E420146002003
:100D3000034A506820F0F0000843506070470000FC
:100D4000001002401149096821F480310F4A1160F6
:100D50001146096821F480211160B0F5803F03D06D
:100D6000B0F5802F0ED106E00849096841F48031C2
:100D7000064A116007E00549096841F4A021034AC9
:100D8000116000E000BF00BF70470000001002408B
:100D900001460020034A506820F4E0600843506098
:100DA000704700000010024001460020034A5068CE
:100DB00020F4605040EAC1005060704700100240CB
:100DC00002460020044B5868044B184042EA0103D5
:100DD0001843014B5860704700100240FFFFC0F7F6
:100DE00001460020034A506820F003000843506089
:100DF00070470000001002401348006840F00100F6
:100E00001149086008464068104908400E4948608A
:100E1000084600680E4908400B490860084600680B
:100E200020F480200860084640680A4908400649C6
:100E300048604FF46050C8624FF4615008634FF44B
:100E40001F008860704700000010024000C0FFF8DB
:100E5000FFFFF6FEFFFF00F729B1064AD269024301
:100E6000044BDA6104E0034AD2698243014BDA6140
:100E7000704700000010024029B1064A126902437F
:100E8000044B1A6104E0034A12698243014B1A6160
:100E9000704700000010024029B1064A92690243DF
:100EA000044B9A6104E0034A92698243014B9A61C0
:100EB000704700000010024029B1064AD268024380
:100EC000044BDA6004E0034AD2688243014BDA60E3
:100ED00070470000001002400149086070470000A0
:100EE0004004424201490866704700000000424247
:100EF000F0B5002100BF002200250024384E76689E
:100F0000384F06EA0702364E766806F4803502F05E
:100F100000661EB9022606EB924204E04FF4F87612
:100F2000C6EB9246721C1DB92F4E02FB06F30BE076
:100F30002B4E766806F400361EB12B4E02FB06F3EC
:100F400002E02A4E02FB06F3254E766806F00C01FD
:100F500021B1042905D0082908D105E0234E0660F7
:100F600007E0224E066004E0036002E01F4E0660C8
:100F700000BF00BF1A4E766806F0F00109091C4E4A
:100F8000745C0668E6404660154E766806F4E061DB
:100F9000090A174E745C4668E6408660104E766813
:100FA00006F46051C90A124E745C4668E640C66099
:100FB0000B4EF66A06F00F010E4E745C4668B6FBE7
:100FC000F4F64661064EF66A06F4F871090901F076
:100FD0000F06094F37F81640B3FBF4F60661F0BD73
:100FE0000010024000003C0800093D0000127A0099
:100FF000242A0008342A0008442A000810B50146B3
:101000000022002300204A11012A02D1094C236842
:1010100006E0022A02D1074C236A01E0054C636A0C
:1010200001F01F02012494401C400CB1012000E09B
:10103000002010BD001002400248406800F00C0083
:10104000704700000010024038B5002000900024D6
:10105000002500BF3120FFF7D1FF05460098401C56
:1010600000900098B0F5004F01D0002DF2D0312053
:10107000FFF7C4FF08B1012400E00024204638BD7A
:10108000002101098AB242F08002044B1B6803F080
:10109000800363EA0202014B1A6070470C2800408B
:1010A00010B50146002000220023084C246804EA01
:1010B0000103064C241D246804EA11121BB194B2EA
:1010C0000CB1012000E0002010BD00000828004005
:1010D00010B54FF48010FFF7F9F94FF48040FFF797
:1010E000DFFF18B14FF48040FFF7CAFF10BD10B505
:1010F0000446204600F04EFE10BD00000EB5002153
:1011000002910191009100203349096841F4803136
:10111000314A116000BF30490968C1F34041019173
:101120000099491C00919DF8041019B90099B1F576
:10113000004FF0D128490968C1F3404101919DF861
:10114000041019B92549264A11600EBD25490868C1
:1011500020F0070040F0040008601F4949681E4A5B
:1011600051601146496841F4005151601146496887
:1011700041F4A06151600020114648681A490840B6
:101180000290029941F48031029102990291174A2A
:10119000029911430291104A02995160114609685F
:1011A00041F08071116000BF0B49096801F00071C6
:1011B0000029F9D000200849486820F0030040F0D9
:1011C0000200486000BF0449496801F00C01082989
:1011D000F9D100BFB9E700000010024000127A0008
:1011E0000000022000200240FFFFC0F700000408BA
:1011F00010B5FFF701FE4FF48030FFF7A3FDFFF7B6
:1012000023FF1049087008460078012817D11020E4
:10121000FFF7C0F90020FFF7CBF90020FFF786FDAC
:101220000020FFF7C1FD0020FFF7B2FD0120FFF70E
:10123000D7FD00BFFFF700FF0428FBD101E000BF8E
:10124000FEE710BD0D0002202DE9F04781468846DB
:10125000B8F1000F01D1002001E04FF44030824688
:10126000FFF7CAFDB8F1010F0DD14FF48030FFF741
:1012700069FDFFF7E9FE3F4908700846007801283C
:1012800001D000BFFEE73C49A9EB0100894530D001
:101290000CDC3A484844A0B139490844B8B1084484
:1012A000D8B13849084400283DD11CE033490844EE
:1012B00020B33549084438B349100844002832D1D6
:1012C00029E000254FF48014002600272DE0012599
:1012D0004FF4E0140026002727E001254FF42014E6
:1012E000AE02002721E001254FF44014AE02002792
:1012F0001BE00225254C6E02002716E00225244C37
:101300004FF4A0666F0210E00325224C4FF4A06654
:101310004FF4806709E004254FF4803A1B4C4FF4EA
:10132000A0662F0201E000BFFEE700BF2846FFF7DE
:101330003FF90020FFF7FAFC3846FFF735FD30464D
:10134000FFF726FD21465046FFF73AFD0120FFF743
:10135000C9FD00BF3920FFF751FE0028FAD0022056
:10136000FFF73EFD00BFFFF767FE0828FBD1BDE891
:10137000F08700000D00022000A24A0400CA91FE7E
:1013800000E548FF00EE85FF00B817FE00000408E6
:1013900000001C0800003C0800200021104AD2690F
:1013A00042F080520E4BDA610E4A1168C1F30461BB
:1013B0000D4AD06820F47870891C29B11F2903D206
:1013C00040EA4110D06003E040F47870064AD060F3
:1013D000034AD26922F08052014BDA617047000063
:1013E00000100240001800400070004010B521A01D
:1013F00000F058FB4FF0E020006920F002004FF0B1
:10140000E02108610846006920F0010008613220EF
:1014100000F07EFC0020FFF79BFB0020FFF7BEFBE7
:101420000120FFF759FCFFF7E3FE01211748FFF702
:101430000BFF4FF0E020006940F002004FF0E02188
:1014400008610846006940F001000861104800F09A
:1014500009FA00F013F90F4800F004FAFEF7B2FFA2
:10146000FFF760FBFFF784FBFFF7A8FB0AA000F083
:1014700019FB10BD0D7374617274206C6F7720704E
:101480006F7765722121210D0A0000000044950844
:1014900000380140005000400D656E64206C6F778D
:1014A00020706F7765722121210D0A00042807D171
:1014B0004FF0E021096941F004014FF0E022116191
:1014C000704710B501F072F9012801D001F024F93C
:1014D00010BD000010B50420FFF7E8FF0B480068BE
:1014E0000B49B0FBF1F44FF47A7044434FF0E02025
:1014F000006940F002004FF0E021086108464461B5
:10150000006940F00100086110BD000000000220E9
:1015100040420F0010B52948006840F47000274988
:1015200008602748006840F0010025490860084627
:10153000406824490840224948600846006822491A
:1015400008401F4908600846006820F480200860B1
:10155000084640681D490840194948604FF46050EA
:10156000C8624FF4615008634FF41F00886008465A
:10157000C06940F08050C8611548C06840F0010063
:101580001349C8600E48C06920F080500C49C861FA
:101590001048006840F090000E490860FFF7AEFD6B
:1015A0004FF000600549803908600B4800680B491E
:1015B000884201D0FFF7F0FE10BD000088ED00E08A
:1015C0000010024000C0FFF8FFFFF6FEFFFF00F72B
:1015D000007000400020024098F2FF1F424B524929
:1015E00010B50121880700F020F8B8B10121880763
:1015F00000F018F80A4801880088401C084A10804A
:101600004FF6FA70814202D100201146088004484A
:101610000088142802D100200149088010BD000074
:101620000E000220CA430261704730B50246002016
:1016300000230024156905EA0103958905EA0104E0
:1016400013B10CB1012000E0002030BD10B540F214
:101650002551094800F08BF960B1074800F016FAEF
:10166000C4B22146044800F016FA40F2255102485F
:1016700000F0C4F810BD00000050004000B585B077
:10168000012144F20500FFF707FC4FF48060ADF83C
:10169000100004208DF8130004A91C48FFF7CEF8B1
:1016A0004FF40070ADF8100003208DF812001820E0
:1016B0008DF8130004A91548FFF7C0F84FF4E13086
:1016C00000900020ADF80400ADF80600ADF8080069
:1016D000ADF80C000C20ADF80A0069460C4800F08B
:1016E00071F9FFF78EFA012240F22551084800F007
:1016F00094F8012240F22441054800F08EF80121BF
:10170000034800F01BF905B000BD000000080140CF
:101710000038014010B540F22551304800F027F95B
:10172000C8B12E4800F0B2F9C1B22D480288008835
:10173000401C2B4B18802B488154184600884FF6CC
:10174000FE71884202DD00201946088040F22551D2
:10175000224800F053F840F22441204800F007F9F5
:10176000002839D040F224411C4800F047F80120FD
:10177000FFF714FA194800881848001D00881A4815
:10178000007801280CD11648028816491748FEF740
:1017900081FD13480078164908700120154908702A
:1017A000154890F8060401280ED10D4802880D490D
:1017B0001148001DFEF76EFD094800880E49A1F88A
:1017C0000404012081F80704054801880548FEF754
:1017D00088FD00200249088010BD0000003801404B
:1017E00004000220AC00022094000220D01E02203F
:1017F0009600022095000220D801022010B5002298
:10180000002340F66A14A14200D100BF0A1201244D
:101810009440A3B2DC43048010BDF0B5034600241D
:1018200000260025002040F66A17B94200D100BF0B
:101830001846C1F3421401F01F06012707FA06F506
:10184000012C01D10C3004E0022C01D1103000E059
:1018500014301AB107682F43076002E00768AF43EE
:101860000760F0BD10B504462D48844209D101211E
:101870008803FFF721FB00214FF48040FFF71CFB9A
:101880004CE02848844209D101214804FFF7F4FACA
:1018900000214FF40030FFF7EFFA3FE02248844286
:1018A00009D101218804FFF7E7FA00214FF48020D5
:1018B000FFF7E2FA32E01D48844209D10121C80451
:1018C000FFF7DAFA00214FF40020FFF7D5FA25E000
:1018D0001748844209D101210805FFF7CDFA0021FC
:1018E0004FF48010FFF7C8FA18E01248844209D17B
:1018F00001214804FFF7E0FA00214FF40030FFF720
:10190000DBFA0BE00C48844208D101218804FFF780
:10191000D3FA00214FF48020FFF7CEFA10BD00006B
:10192000003801400044004000480040004C0040A6
:1019300000500040005001400054014021B1828914
:1019400042F40052828104E082894DF6FF731A400E
:101950008281704702460020B1F5007F00D100BFB0
:1019600013880B400BB1012000E00020704770B5D8
:101970000246002400230025002040F66A16B142EA
:1019800000D100BFC1F3421501F01F03012606FA82
:1019900003F3012D02D19689334006E0022D02D1D6
:1019A000168A334001E0968A33400C12012606FA6B
:1019B00004F41688344013B10CB1012000E000207B
:1019C00070BD00002DE9F04786B005460F460024A3
:1019D000A24600BF00BF0026B88900B100BF2E4656
:1019E0002C8A4CF6FF700440F88804432C82AC89A2
:1019F0004EF6F3100440B8883989084379890843C2
:101A00000443AC81AC8A4FF6FF400440B8890443DC
:101A1000AC826846FFF76CFA1948864205D019482F
:101A2000864202D01848864202D1DDF80CA001E0BF
:101A3000DDF808A00AEBCA0000EB0A10396889003B
:101A4000B0FBF1F86420B8FBF0F004012009642138
:101A500001FB1080322101EB00106421B0FBF1F991
:101A60000120B0EB191F04D16420B8FBF0F0401C3A
:101A7000040109F00F0004432C8106B0BDE8F08793
:101A80000038014000500140005401400146888860
:101A9000C0F308007047C1F308028280704700BF9E
:101AA000FEE700000FB4054B10B503A9044A0298E5
:101AB00000F018F810BC5DF814FB0000311D0008A0
:101AC000A800022002E008C8121F08C1002AFAD1AB
:101AD00070477047002001E001C1121F002AFBD1AE
:101AE000704700002DE9FF4F8BB09A460F46044621
:101AF000002606E025280BD052460D999047641C1D
:101B0000761C20780028F5D10FB03046BDE8F08F64
:101B10000025A94601227D4900E0054314F8013F54
:101B2000203B02FA03F00842F7D120782E2817D183
:101B300014F8010F45F004052A280ED06FF02F028B
:101B40002078A0F1300109290AD809EB890102EBBC
:101B5000410100EB0109641CF2E757F8049B641C87
:101B600020786C280DD004DC4C2812D06A2811D1C2
:101B700004E074280DD07A280CD10AE045F4001551
:101B800007E0617845F48015814202D1641C05F5B7
:101B90008015641C207869283ED006DC0028B3D06C
:101BA00063280BD0642804D136E0732810D0752840
:101BB0005CD052460D999047761CA5E017F8040BAF
:101BC0008DF8000000208DF80100E846012003E0B8
:101BD00057F8048B4FF0FF3069074FF0000501D430
:101BE0000AE06D1C4D450DDA8542FADB18F8051048
:101BF0000029F6D106E06D1C8542FCDB18F80510C3
:101C00000029F8D12E4404E018F8010B52460D9932
:101C100090476D1EF8D277E000200A90C5F302507D
:101C20004FF00A0B02280CD001CFC117021E71F130
:101C300000020CDA0023D0EB030063EB01012D223C
:101C400008E0FF1D27F00707F7E80201EEE72A0585
:101C500004D52B228DF82420012203E0EA070FD0BF
:101C60002022F7E70DF12008089218E000200A90E2
:101C7000C5F302504FF00A0B022803D001CF002118
:101C80000022EFE7FF1D27F00707F7E80201F7E75B
:101C90005A460A9BFEF730FB303208F8012D50EA15
:101CA0000102F5D1ADEB080000F1200B680701D46B
:101CB0004FF00109D94502DDA9EB0B0000E000203F
:101CC0008146002506E009A85246405D0D999047DF
:101CD0006D1C761C08988542F5DB04E030205246E6
:101CE0000D999047761CB9F10001A9F10109F5DCC5
:101CF00005E018F8010B52460D999047761CBBF190
:101D00000001ABF1010BF4DC641CFAE609280100C8
:101D1000002107E046F2A81100BF0A1EA1F101034D
:101D200099B2FAD1021EA0F1010398B2F2D1704724
:101D300070B504460D460D2C03D1012013490860EF
:101D400016E00A2C11D11148006850B90D21104835
:101D5000FFF7A1FE00BF80210D48FFF7FBFD002823
:101D6000F9D000200949086002E000200749086016
:101D7000E1B20748FFF78FFE00BF80210448FFF75C
:101D8000E9FD0028F9D0204670BD000014000220B3
:101D90000050004070B505460020234908704FF4FC
:101DA00020402249086000BF4FF002112048FEF792
:101DB000E7FD0028F8D001211D48FEF7F6FD2EE0D2
:101DC0001B48FEF7FEFD04461A4884420ED118480F
:101DD000FEF704FE05F8010B13480078401C124979
:101DE00008704FF420401149086018E0102C04D10D
:101DF00001210F48FEF7D9FD12E004F48070B0F520
:101E0000807F03D11720FEF7DCFA08E00749086855
:101E1000411E064A116010B91820FEF7D2FACFE72A
:101E200000BF0148007870BD0C00022008000220AD
:101E3000005800404000020004E0FEF7D5FEC82034
:101E400000F0EEFBF9E705E0FFF7D0FA46F2A81044
:101E500000F0E6FBF8E700001CB5FFF70FFCFEF70B
:101E6000B1FAFEF785FEFEF7A9FEFEF75BFEFFF76F
:101E700031FB00F03BFB1348032100235022CDE946
:101E8000001011A1134800F061FC13480221002347
:101E90005022CDE9001011A1134800F057FC00F0CA
:101EA0004FFB124801881248FEF71BFA00200F4929
:101EB000088005E0FEF798FE42F21070FFF728FF59
:101EC000F8E70000180002206C6564315F746173EC
:101ED0006B000000391E00081C0002206C65643293
:101EE0005F7461736B000000471E0008040002204D
:101EF000AC0002202DE9F04105460E461C4807685B
:101F00001C480068001D00F0A7FA50B91948006885
:101F100090F82C1001208840174909688143164821
:101F20000160681C38B936B112480168091D1348B0
:101F300000F0D0FA1AE07C190E4800684460BC42F8
:101F400007D20C480168091D0D48006800F0A8FA86
:101F50000CE008480168091D0A48006800F0A0FA72
:101F600009480068844201D207480460BDE8F08156
:101F70003C0002202800022040000220BC06022073
:101F8000300002202C0002205800022010B5044628
:101F900000F0ACFA24480068401C2349086023483C
:101FA000006840B9214804600846006801280DD146
:101FB00000F0E6F80AE01E48006838B91B480068DF
:101FC000C06AE16A884201D818480460194800686C
:101FD000401C1849086008460068206494F82C10DA
:101FE0000120884014490968084313490860E16AE0
:101FF00001EB8101114A02EB8100211D00F06AFA18
:1020000000F09EFA0A48006868B108480068C06A93
:10201000E16A884207D24FF0805009490860BFF357
:102020004F8FBFF36F8F10BD3800022028000220B1
:102030004400022054000220400002200806022032
:1020400004ED00E030B54FF4C053174800F007042A
:102050002CB1C01D20F00700134C041B1B1B0246B3
:10206000124C22600024114D6C60D018083820F00A
:1020700007000F4C206000240D4D2D686C600C4D46
:102080002D682C601146441A4C60094C24680C6081
:10209000084D4C682C60084D4C682C604FF0004493
:1020A000064D2C6030BD0000D006022068000220E2
:1020B00070000220780002207400022084000220B8
:1020C0002DE9F05F82460E4690469B460A9F0C9C87
:1020D0004FEA8801A522206BFEF7FCF8A8F1010069
:1020E000216B01EB800929F0070909F0070008B905
:1020F000012000E0002050B900BF502080F311887B
:10210000BFF34F8FBFF36F8F00BF00BFFEE786B1F5
:10211000002507E0715D04F134004155705D00B9A0
:1021200002E06D1C0A2DF5D300BF00213D200155B2
:1021300002E0002084F83400052F00D30427E76272
:10214000A7640020E064201D00F0A7F904F1180046
:1021500000F0A3F92461C7F10500A06164620020CA
:10216000206584F854005A465146484600F05EF90E
:1021700020600B9808B10B980460BDE8F09F000048
:1021800010B5002407E004EB84010F4A02EB810044
:1021900000F076F9641C052CF5D30C4800F070F9BA
:1021A0000B4800F06DF90B4800F06AF90A4800F09E
:1021B00067F90A4800F064F90448094908600448CE
:1021C0000849086010BD0000080602206C060220C5
:1021D0008006022094060220A8060220BC060220E7
:1021E0002C0002203000022010B50146164800E005
:1021F000006803688B42FBD30246436813448B425A
:1022000004D143684C682344436001460A464B6846
:1022100013440468A34211D10C4C03682468A34200
:1022200008D04B680468646823444B6003681B68EB
:102230000B6005E0054B1B680B6001E003680B6059
:10224000884200D0016010BD6800022070000220AA
:1022500009480068006808B9012000E0002020B1AA
:102260004FF0FF300549086005E003480068C0688A
:1022700000680249086070472C00022058000220C4
:102280000E480068401C08B9012000E0002050B949
:1022900000BF502080F31188BFF34F8FBFF36F8FC3
:1022A00000BF00BFFEE700BF502080F31188BFF3DE
:1022B0004F8FBFF36F8F00BF00BFFEE78800022083
:1022C0002DE9F04104464FF0000800F0D7F95148DD
:1022D000006808B9FFF7B6FE4F48006820400028A4
:1022E0007ED13CB304F10800A04223D9083404F0A5
:1022F000070000B304F00700C0F108002044A0422A
:1023000016D904F00700C0F10800044404F00700E7
:1023100008B9012000E0002068B900BF502080F318
:102320001188BFF34F8FBFF36F8F00BF00BFFEE771
:10233000002400E00024002C54D038480068844277
:1023400050D8374E3046056801E02E462D68686843
:10235000A04202D228680028F7D12E4800688542A2
:1023600040D0306800F10808286830606868001BB9
:10237000102819D92F1907F0070008B9012000E02B
:10238000002050B900BF502080F31188BFF34F8F59
:10239000BFF36F8F00BF00BFFEE76868001B786067
:1023A0006C603846FFF720FF1C4968680968081A06
:1023B0001A490860084600681A490968884203D229
:1023C0001648006817490860134968680968084397
:1023D00068600020286014480068401C124900E032
:1023E00000E0086000F09CFA08F0070008B901203E
:1023F00000E0002050B900BF502080F31188BFF3E7
:102400004F8FBFF36F8F00BF00BFFEE74046BDE8B0
:10241000F08100007000022084000220740002207D
:1024200068000220780002207C000220001F4FF08C
:1024300080730360001F21F001030360001F054B40
:10244000036014380260001F6FF00203036020383D
:10245000704700008122000801460A69D1E9013075
:102460009860D1E9010358605068884201D18868BA
:102470005060002008611068401E106010687047AE
:1024800000F1080141604FF0FF31816000F1080167
:10249000C160016100210160704700210161704746
:1024A00010B502460B685C1C0CB9106907E002F11C
:1024B000080000E04068446824689C42FAD94468F7
:1024C0004C604C68A160886041600A611468641CBB
:1024D000146010BD42684A6093688B6093685960CD
:1024E0009160086103685B1C0360704700BF502067
:1024F00080F31188BFF34F8FBFF36F8F00BF0E487B
:102500000068401C0C49086008460068012812D188
:102510000A480068C0B208B9012000E0002050B9A4
:1025200000BF502080F31188BFF34F8FBFF36F8F30
:1025300000BF00BFFEE770478800022004ED00E006
:102540000D48006850B900BF502080F31188BFF3D8
:102550004F8FBFF36F8F00BF00BFFEE706480068D4
:10256000401E054908600846006820B9002080F335
:10257000118800BF00BF70478800022070B5064672
:102580003546002E44D0083D2C4622496068096833
:10259000084008B1012000E0002050B900BF5020E1
:1025A00080F31188BFF34F8FBFF36F8F00BF00BF61
:1025B000FEE7206808B9012000E0002050B900BF04
:1025C000502080F31188BFF34F8FBFF36F8F00BF90
:1025D00000BFFEE70F49606809680840C0B1206885
:1025E000B0B90C49606809688843606000F046F83B
:1025F0000949606809680844074908602046FFF7F0
:10260000F3FD06480068401C0449086000F088F9A2
:1026100070BD0000840002207400022080000220AF
:1026200070B504460025D4B11248006808B90120ED
:1026300000E0002050B900BF502080F31188BFF3A4
:102640004F8FBFF36F8F00BF00BFFEE700F016F89B
:1026500000212046FFF74EFC00F062F905463DB927
:102660004FF0805004490860BFF34F8FBFF36F8F66
:1026700070BD00006400022004ED00E00248006824
:10268000401C014908607047640002201D48006832
:1026900018B101201C49086032E000201A49086086
:1026A0001A480068B0FA80F0C0F11F0101EB810008
:1026B000174A52F8200008B1012000E0002050B96C
:1026C00000BF502080F31188BFF34F8FBFF36F8F8F
:1026D00000BF00BFFEE701EB81020D4B03EB820060
:1026E00042685268426000F108024368934202D196
:1026F0004268526842604268D268064B1A6000BF66
:1027000070470000640002204C00022040000220BC
:10271000080602202800022010B500BF502080F3D8
:102720001188BFF34F8FBFF36F8F00BF00F054F8D5
:1027300018B14FF080500449086000BF002080F3BA
:10274000118800BF10BD000004ED00E02DE9FF4F2F
:1027500085B0804689461746DDE912ABB800FFF721
:10276000AFFD064656B15820FFF7AAFD04460CB14E
:10277000266304E03046FFF701FF00E000247CB14F
:102780000020CDE900ABCDE902403A46494640463B
:10279000089BFFF795FC2046FFF7F8FB012501E0B9
:1027A0004FF0FF35284609B0BDE8F08F05490968AC
:1027B00009B9012005E00449096809B9022000E0CF
:1027C000002070474400022064000220014908688C
:1027D000704700003C0002202DE9F0414FF0000856
:1027E0004448006800287CD143480068451C4248A2
:1027F000056015BB41480068006808B9012000E089
:10280000002050B900BF502080F31188BFF34F8FD4
:10281000BFF36F8F00BF00BFFEE738480768384836
:102820000068364908603648076036480068401C32
:1028300034490860FFF70CFD00BF3348006885424B
:102840003CD300BF2D480068006808B9012000E0B3
:10285000002020B14FF0FF302B4908602DE02748C1
:102860000068C068C4686668B54202D2264806603F
:1028700023E0201DFFF7F0FDA06A18B104F1180055
:10288000FFF7EAFD94F82C10012088401F490968E1
:1028900008431E490860E16A01EB81011C4A02EB12
:1028A0008100211DFFF716FE1A49E06A0968C96A0E
:1028B0008842C7D34FF00108C4E700BF154800683D
:1028C000C06A00EB8000124951F82000012801D9AC
:1028D0004FF001081048006808B14FF0010805E00A
:1028E000FFE70E480068401C0C4908604046BDE800
:1028F000F0810000640002203C0002202C00022035
:102900003000022050000220580002204000022027
:1029100008060220280002204C0002204800022065
:1029200070B5002400263648006850B900BF50201A
:1029300080F31188BFF34F8FBFF36F8F00BF00BFCD
:10294000FEE7FFF7D3FD2E480068401E2C490860C3
:102950000846006800284FD12A48006800284BD05C
:1029600024E02948C068C46804F11800FFF774FD2A
:10297000201DFFF771FD94F82C1001208840234999
:102980000968084321490860E16A01EB8101204A96
:1029900002EB8100211DFFF79DFD1E49E06A0968D9
:1029A000C96A884202D301201B49086016480068A2
:1029B00008B9012000E000200028D2D00CB1FFF7B8
:1029C00047FC1648056865B100BFFFF705FF10B169
:1029D0000120114908606D1E002DF6D100200F491D
:1029E00008600D48006838B1012630070C490860BE
:1029F000BFF34F8FBFF36F8FFFF7A2FD304670BD5F
:102A000064000220380002209406022040000220C8
:102A100008060220280002204C0002204800022064
:102A200004ED00E0000000000102030401020304C1
:102A30000607080901020406080A0C1020202020BD
:102A400020202020010002000400060008000A00E7
:102A50000C00100020004000800000010001000177
:102A600000010001842A000800000220AC000000E0
:102A7000C41A0008302B0008AC00022024340000E7
:102A8000D41A00080044950800000000000000006F
:102A90000000000000000000000000000000000036
:102AA0000000000000000000000000000000000026
:102AB0000000000000000000000000000000000016
:102AC0000000000000000000000000000000000006
:102AD00000000000000000000000000000000000F6
:102AE00000000000040000000000000000000000E2
:102AF00000000000000000000000000000000000D6
:102B0000000000000000000000000000AAAAAAAA1D
:102B1000000000000000000000000000EB090008B9
:102B2000810A0008F1090008E5090008000000001A
:040000050800019955
:00000001FF
