:1000000000000120750300005D0300005F03000095
:1000100061030000630300006503000000000000AE
:100020000000000000000000000000006703000066
:1000300069030000000000006B0300006D03000076
:10004000092900006F030000392200006F0300003F
:100050006F0300006F0300006F0300006F030000D8
:10006000992E00006F0300006F030000D52C0000E4
:100070006F0300006F0300006F0300006F030000B8
:100080006F030000051400006F0300006F03000001
:100090006F0300006F0300006F0300006F03000098
:1000A0006F0300006F0300006F0300006F03000088
:1000B0006F0300006F03000000000000000000005C
:1000C0006F0300006F0300006F0300006F03000068
:1000D0006F0300006F0300006F03000000000000CA
:1000E0000000000000000000000000000000000010
:1000F0000000000000000000000000000000000000
:1001000000000000000000000000000000000000EF
:1001100000000000000000000000000000000000DF
:1001200000000000000000000000000000000000CF
:1001300000000000000000000000000000000000BF
:1001400000000000000000000000000000000000AF
:10015000000000000000000000000000000000009F
:10016000000000000000000000000000000000008F
:10017000000000000000000000000000000000007F
:10018000000000000000000000000000000000006F
:10019000000000000000000000000000000000005F
:1001A000000000000000000000000000000000004F
:1001B000000000000000000000000000000000003F
:1001C000000000000000000000000000000000002F
:1001D000000000000000000000000000000000001F
:1001E000000000000000000000000000000000000F
:1001F00000000000000000000000000000000000FF
:10020000354936480A1A02D0072291438D463449AF
:1002100034480A1A06D00722914381F30988022242
:1002200082F3148830483149314A00F044F83148AB
:100230003149324A00F03FF831483249324A00F041
:100240003AF832483249334A00F035F832483349F7
:10025000334A00F030F833483349344A00F02BF881
:1002600033483449344A00F026F8344834490022EF
:1002700000F02CF833483449002200F027F83348C6
:100280003349091A082902DB002202604160314A21
:1002900090471F481F49884205D00268043003B4C4
:1002A000904703BCF7E700208646EC46002000217B
:1002B000294A9047FEE7884207D0521A05D00378B2
:1002C00001300B700131013AF9D17047884202D0F8
:1002D00002700130FAE770470000012000E00020C2
:1002E0000000012000000120AC3F000000000020C1
:1002F0006C000020D0030000D0030000D8380000BC
:10030000AC3F000000000020000000208839000001
:1003100088390000883900008839000088390000D9
:10032000883900008839000088390000AC3F00009F
:10033000184000006C0000206C0000206C000020C1
:10034000C40F0020C40F0020C40F0020C40F0020E1
:10035000C42F00209D030000952F0000FEE7FEE75C
:10036000FEE7FEE7FEE7FEE7FEE7FEE7FEE7FEE765
:1003700000F002B8FFF7FCBF0F484FF007018843B9
:1003800085460E4880470E48016841F470010160BF
:10039000BFF34F8FBFF36F8FFFF732BF09480A4992
:1003A0000A4A884207D0521A05D0037801300B70F0
:1003B0000131013AF9D170470000012029340000D1
:1003C00088ED00E0883900000000002000000020D7
:1003D0007047000007B5044B0093044A402300F027
:1003E00032F803B05DF804FBF10300006D0000205B
:1003F0002DE9F84388461446B2B10F4B0F4E032542
:10040000002743F00109224608EB0701002002F013
:10041000AFFF0744241A48B933782BB14FF47A4020
:10042000C847013D02D13570BDE8F8830123337020
:10043000002CE8D1F8E700BF903900006C000020E4
:10044000704702F0C5BFF0B595B01D461646084688
:100450000C4602F04FF81A9B0D93CDE90865002574
:100460002B46082205A920460A958DF82C500C959C
:1004700002F05CF8079B0293069B03939DF81430EF
:100480008DF8115003F00302012A1DD1BDF814208C
:10049000059DC3F3C203C2F383168DF81030B2007A
:1004A00008230EA9204602F041F8C5F3952508ABB4
:1004B0000093324602AB0EA9284600F029FB2046E5
:1004C00002F01CF815B0F0BD022AF8D1BDF81650A4
:1004D000C3F3C203C5F389158DF810300827082D22
:1004E0002E4628BF08263B4632460EA9204602F07B
:1004F0001DF8AD1B08AB02AA31460EA8374400F028
:100500006BFB002DEBD1DAE708B5FFF79AFF044843
:10051000042100F067FA034B01225A7108BD00BFA5
:100520007839000000000020037813F0040216D090
:1005300003F00303012B03D0022B09D001207047E5
:100540000A6800880232C0F3831002440A60F5E7AB
:100550000B684288023303EB92130B60EEE7104600
:10056000704700002DE9F04FDFF810A10F4685B06D
:100570000446861C0020154600F00CFEDAF8042024
:100580003A60DAF8083003F580739B1A0AF21C47C8
:100590000AF583690AF21448B34219D30020002DEA
:1005A00068D004F00F039B0143F0050363F30F00D1
:1005B000DAF80430DAB2033233444AF82200002079
:1005C000CAF8043000F0E8FD012005B0BDE8F08F66
:1005D0000121384600F0E3FF484600F0FBFF4046AB
:1005E00000F0F8FFDAF808000090C0B203300AEB20
:1005F00080006946FFF798FF009B30BBDAB20AEB38
:100600008202D16801919A1C0133DBB20AEB8303A9
:100610000092D3F80CB001F00303012B22D0022B7F
:1006200015D08346404600F0D8FF10B1009BCAF8B1
:1006300008305946384600F0B2FFDAF80830DAF8E8
:10064000042003F580739B1AA6E7D8B2CEE7BDF865
:100650000630C3F3891303334FEA1B4B02EB9303BA
:100660000093DFE7BDF80430C3F383134FEA1B4B5D
:100670001344F5E7A40544F0060099E78001002043
:10068000064B074810B500221A7001F0ECFE044634
:1006900010B9044802F010F8204610BD8001002077
:1006A00050390000CC39000030B50A4C71B10A4A0B
:1006B0000A49121BD20800239A4201D1002030BD02
:1006C00031F82350854202D00133F5E7034654F850
:1006D0003300F4E70039000050390000000000202A
:1006E000094B013903EBC000032909D8DFE801F009
:1006F0000A02040604207047007970474079704769
:100700000020704702207047003900007047000049
:10071000034BD3E90130C31A58425841704700BF18
:10072000800100202DE9FF41FFF7F2FF0546002878
:1007300040F0E980754CC4F81804BFF34F8FA368EC
:100740000093DBB2033304EB83006946FFF7ECFE52
:10075000009B18B1D4F81824002A5AD0DAB2991C98
:10076000013304EB8202DBB204EB8303D268DB6863
:10077000029302F00303022B0192009154D1BDF8C1
:1007800006306348C3F38917502F3E4628BF5026D2
:1007900006F1080166F38F13C1F30901ADF80630C5
:1007A00001F079FE0546002800F0988001F0A2FED5
:1007B0000023082201A9284601F0AEFE0099CB4390
:1007C000DBB20133C9B20331B6EB830F4FEA8302C8
:1007D00004EB810125D95FFA82F80823A6EB08060D
:1007E000284601F099FEF6B208F10803494903F0E2
:1007F000FC033246284601F08FFE009B033703EBD3
:1008000097070097D4F81834002B43D1D4F810641C
:1008100053E062689A4294D8A260284604B0BDE8CA
:10082000F08108233246E5E7012B57D1BDF80430AB
:100830003748C3F38311062928BF062161F38913C2
:10084000023101F00F018900ADF8043001F023FE00
:100850000546002842D001F04DFE0023082201A9E0
:10086000284601F059FE0026BDF80420C2F3831289
:10087000B300964203F10803C4D200994A1CC9B2DE
:100880000331009204EB81010422284601F044FE6A
:100890000136E9E7284601F031FEFFF739FF80F025
:1008A0000100C5B2B9E7F3685B7923B13368294623
:1008B0001B6830469847F3681E68002EF3D128461F
:1008C00001F01CFE304600F065FCD4F818340BB97A
:1008D000009BA360002000F05FFCDEE7D4F810442A
:1008E00054B90D4B0D480E49C01AC008000440F021
:1008F000020000F05FF8D0E7236820469B68984725
:10090000E3681C68ECE7002587E700BF8001002052
:10091000503900008C01002000390000203900000F
:10092000B43900002DE9F34704460E46924601A96A
:10093000012218469946FFF715FE1C4F10B3019D82
:100940004FF00008AA1CC84508EB020125D1184841
:10095000002100F0E9FD80F31000000440EA14409B
:10096000E4006B1C04F03804DBB2EDB244F0010487
:1009700007EB8303033544EA881444EA8624D860ED
:1009800047F825403B781BB1FFF7CCFE0028FBD190
:10099000FFF7BCFE02B0BDE8F087C9B207EB8101EA
:1009A0005AF82830CB6008F10108CCE7800100201C
:1009B0009C05002000231A46FFF7B4BF07B50123AA
:1009C000019201AAFFF7AEFF03B05DF804FB07B583
:1009D000CDE9002302236A46FFF7A4FF03B05DF8C8
:1009E00004FB000030B50F4CD4F81024034600205F
:1009F000114631B9D96808714AB9C4F810340A608F
:100A000030BDC9680D79854206D00968F1E7D26822
:100A100014680C601360F3E701300A28E8D14FF046
:100A2000FF30EDE78001002038B5084B0125D3F8F1
:100A300010441D7004B938BDE3685D712368204619
:100A40005B689847E3681C68F4E700BF80010020FA
:100A500030B5C38885B004460D4633B1144A0092C0
:100A60001449154A284600F015FE217A05291DD0A3
:100A7000637A4BB1A088FFF733FE104B104953F84F
:100A80002020284600F006FE227A0E4BA08853F85C
:100A9000222003920021FFF707FE039A0A4903462A
:100AA000284605B0BDE8304000F0F4BD05B030BDCB
:100AB000F8390000E0390000D8390000643A00003D
:100AC000FD390000883A0000003A000007B50346EF
:100AD0000846197A052911D05B7A2BB1094A0A49CF
:100AE000019000F0D7FD01980849019000F0D2FD77
:100AF000019803B05DF804EB00F0C1BD002AF8D006
:100B0000F2E700BFF8390000FD390000F03C0000BA
:100B10002DE9F04385B01F460C9D002395F80C90FD
:100B20002B7306460C46904629463846FFF790FF41
:100B3000B8F1060F09D8DFE808F00412181F2833AF
:100B400040003146284600F0A5FD002229463846DF
:100B5000FFF7BCFF85F80C9005B0BDE8F083226874
:100B60003146284600F096FDEFE7D4E900233146F0
:100B7000284600F08FFDE8E7A36800933146D4E9EA
:100B80000023284600F086FDDFE7E3680193A368B1
:100B900000933146D4E90023284600F07BFDD4E7DA
:100BA00023690293E3680193A36800933146D4E973
:100BB0000023284600F06EFDC7E7636903932369AD
:100BC0000293E3680193A36800933146D4E90023BC
:100BD000284600F05FFDB8E708292DE9F74F804669
:100BE0000E4617461C463CD8002593F80C901D7302
:100BF00019461046FFF72CFFDFF888A0DFF888B011
:100C0000AE4231D918F805205946204600F042FD81
:100C10000135082DF4D11949194DDFF870A020468F
:100C200000F038FD4FF0000B5E4522D918F80B207C
:100C30007E2A05D81046019202F09AFD019A00B969
:100C40002E225146204600F025FD0BF1010BBBF191
:100C5000080FE9D1012221463846FFF737FF84F813
:100C60000C9003B0BDE8F08F5146204600F012FD15
:100C7000CEE72946204600F00DFDE6E7143A0000D5
:100C8000123A0000103A00000A3A0000163A00003A
:100C9000044B1A5C012393404FF0A042C2F8083580
:100CA000704700BF9C3A000008B50020FFF7F0FF36
:100CB0000120FFF7EDFF0220FFF7EAFFBDE8084043
:100CC0000320FFF7E5BF0000074A4FF0A041105C8A
:100CD000D1F804350122824022EA03001340C1F812
:100CE0000805C1F80C3570479C3A0000C20708B5EA
:100CF00001460CD54FF0A0430322C3F84427C3F8A4
:100D00004827C3F84C27C3F85027FFF7CDFF8B07C0
:100D10000AD54FF0A0430C22C3F83427C3F8382774
:100D2000C3F83C27C3F8402708BD1FB50021039036
:100D300001AA44F20100CDE9011100F003F805B069
:100D40005DF804FB38B572B6FFF76EFEFFF7EAFCFC
:100D50000028FBD1104B114C114D1249E41AE40844
:100D6000240444F00100FFF725FED5F8F030DB073E
:100D700000D500BE0C4944F00200FFF71BFEBFF394
:100D80004F8FEA68094B02F4E0621343EB60BFF354
:100D90004F8F00BFFDE700BF003900002039000081
:100DA00000ED00E0A03A0000AC3A00000400FA05B3
:100DB00010B5D0E90243D1E90202A04272EB03036D
:100DC0002CBF0120002010BD08B50A4800F003FB2D
:100DD000094AD2E90031C018084BD3E9002341F198
:100DE0000001904271EB030303D210F1807041F1D6
:100DF000000108BD0800002040060020B8060020C1
:100E000037B505460C460A4801A900F018FB60B149
:100E10000570446001A9064800F03BFB18B1054885
:100E200000F0DEFA002003B030BD0420FBE700BF75
:100E3000A406002008000020234B70B51E7804464D
:100E400016B90026304670BD0028FAD0FFF7BCFF67
:100E5000D4E90223904299412FD3002000F09AF95F
:100E600023692BB94FF0FF324FF0FF33C4E902235F
:100E7000002000F091F9D4E905309847002000F0F7
:100E800089F925696DB1D4E90212B2F1FF3F08BFBB
:100E9000B1F1FF3F0FD0691842F10002C4E902121C
:100EA0003546002000F078F9002DCAD007482146C9
:100EB00001F04AFCC6E70025F3E7B3F1FF3F08BFA6
:100EC000B2F1FF3FBDD0F1E748060020C83A00006C
:100ED00013B5114B11491868019008231048582286
:100EE00000F09AFA044698B90E4A0F4801A900F09A
:100EF00063F9044660B90C48012100F04FFA012360
:100F00000A4A0948194600F0B1F9094B01221A7042
:100F1000204602B010BD00BFC43A00004C060020BD
:100F2000A4060020B90F000008000020FFFF7F008A
:100F30004806002030B56AB103684FF0FF344FF027
:100F4000FF355A614A1E5142C3E9024551411961B8
:100F5000002030BD0720FCE7F8B504460020174606
:100F60000D4600F017F9D4E90223B3F1FF3F08BFA3
:100F7000B2F1FF3F15D1FFF727FF281841F100011B
:100F8000C4E902010126002000F006F95EB12369E0
:100F9000A76103B1256121460020BDE8F840FFF7B5
:100FA0002FBF0026EFE73046F8BD0000014800F0F3
:100FB00012BA00BF080000202DE9F743064600F0F2
:100FC000F5F940B1624AD2E9003113F1807341F181
:100FD0000001C2E900310021304600F0F6F938B1D5
:100FE0005C4C236823B12068FFF726FF00232360B1
:100FF0000121304600F0E9F920B1FFF7E5FE564B3C
:10100000C3E900015548534C01A900F052FA4FF0D2
:10101000FF384FF0FF39A0B9DFF844814D4D40460D
:1010200001F0A8FB002800F08580D0E90223B3F18D
:10103000FF3F08BFB2F1FF3F32D1404601F094FBC1
:10104000EDE70378012B20D0022B08D1444D284630
:1010500001F08AFB002877D0C0E90289F7E75BB985
:101060004168D1E90223B3F1FF3F08BFB2F1FF3F6E
:1010700002D03B4801F068FB01A9384800F044FA6F
:1010800001A9364800F015FAC5E74168236899427E
:1010900002D100232360EFE7314801F06EFBEBE75C
:1010A000296891B12968D1E9020182428B412FD28E
:1010B0002B68D3E90223B3F1FF3F08BFB2F1FF3F32
:1010C00003D02968404601F03FFB404601F04CFB4D
:1010D000D0E902490746FFF777FE201A69EB0109BC
:1010E000012879F1000318DBB0F5350F13D3FFF7B2
:1010F0005DFF1C4A02441C484FF49603002100F097
:10110000D5F890B92B6813B9304600F0A7F82F60D6
:1011100003B0BDE8F0832246EDE71348002100F05C
:101120004AF93846FFF788FE01E00D28F9D0002380
:101130002B6074E7074B1B68002BE9D1304603B0E6
:10114000BDE8F04300F08EB8084B01221A7093E717
:1011500040060020C0060020B8060020A40600209B
:10116000C83A0000FFFFB400080000204806002035
:1011700072B6024A1368013313607047C406002038
:10118000034A1368013B136003B962B6704700BF9E
:10119000C4060020FFF7ECBFFFF7F2BF435882B050
:1011A0003BB10023435043580193019B012002B0FF
:1011B00070471846FBE70000F8B5204B4479204EF5
:1011C00043F824201F4A204B06EBC4049B1A2279C3
:1011D000DB081B0432B143F002001C49FFF7EAFBB5
:1011E0000820F8BD02680C88C2F8084590F9045040
:1011F0008A7804795201002DD2B219DB14494F19B3
:1012000087F8002301226D0904F01F0402FA04F498
:1012100041F82540427906EBC201012446F832002C
:101220000C7143F003000B49FFF7C4FB0020D8E723
:10123000094904F00F040A55ECE700BFD00600206E
:10124000C80600200039000028390000D43A000008
:1012500000E100E0F63A000014ED00E0036801222E
:101260001A607047036801225A60704773B501F134
:101270005005AD000068ADB24FF480348C400026BC
:10128000C0F80843C0F84843465101F5A8714559D4
:10129000019522F07F42019D40F82120C0F844438F
:1012A0000BB1C0F8044302B070BD00002DE9F74F48
:1012B0000D4622F07F4402684FF4803705F1500656
:1012C0008F408046B60002EB8500C2F84873B6B284
:1012D000C2F80873D2F8041599464FF0000BD0F805
:1012E0004035C0F8401542F806B05B1A925900929A
:1012F00023F07F43012B009A4FEA850A0CD1264B3D
:101300004FF4806043F001039847D8F8003043F869
:1013100006B09B590193019BD8F80010D1F80465E1
:10132000C1F84473A31B23F07F43012B1CD11A4B3C
:1013300005F5A875013443F0010341F825404FF449
:1013400080609847D8F80030D3F804359E4209D120
:10135000D8F800300020C3F84473C3F8047303B016
:10136000BDE8F08F0D20FAE78A44C9F1FF13CAF8EF
:101370004045D1F80405221A013A22F07F4203F5D4
:101380007F439342EED3002AE2D10134CAF84045AC
:10139000D1F804359842DAE7103B000003680222D6
:1013A000C3F8442309B1C3F80423704700684FF41D
:1013B0008271FFF7F3BE4FF4803303FA01F1036843
:1013C000C3F84813C3F80813704750318900006808
:1013D00089B2FFF7E3BE0368D3F804057047000045
:1013E00090F90430002B09DB5A09012103F01F0397
:1013F00001FA03F34032024941F82230704700BF3E
:1014000000E100E0024B034A1B681068184700BF68
:10141000D0060020C806002010B561B1B2FBF3F47D
:1014200003FB1424A4B244B9C0E90014846082818F
:10143000C381204610BD0E20FCE70920FAE737B52E
:1014400050E8013F9DB2C48925448489A54228BF44
:101450002D1B0489A54202BFBFF32F8F002207E096
:10146000C5EA030540E80154002CE9D14FF0010220
:101470008DF803200193019A0A609DF8031001F092
:10148000FF0321B1006810FA82F003B030BD1846A6
:10149000FBE70A884B889A4209D150E8012FC2EA3B
:1014A000024240E80123002BF7D1012070470020C1
:1014B000704737B550E8023F1FFAA3F5C488A5422C
:1014C00002BFBFF32F8F00220DE0C4892544848919
:1014D000A54228BF2D1BC3EA054540E80254002C55
:1014E000E8D14FF001028DF803200193019A0A60C0
:1014F0009DF8031001F0FF0321B1006800EB1240DA
:1015000003B030BD1846FBE70A884B889A4209D1E0
:1015100050E8022FC2EA224240E80223002BF7D112
:10152000012070470020704710B5034653E8000FB4
:101530000A4643E8002494F0000FF7D110BD10B51F
:10154000034653E8000F40EA010243E8002494F008
:10155000000FF6D110BD10B5034653E8002F42EA44
:10156000010043E8000494F0000FF6D110BD10B55F
:10157000034653E8000F00EA010243E8002494F018
:10158000000FF6D110BD10B5034653E8002F02EA54
:10159000010043E8000494F0000FF6D110BD10B52F
:1015A000034653E8002F02EB010043E8000494F0E7
:1015B000000FF6D110BD10B5034653E8002FA2EB83
:1015C000010043E8000494F0000FF6D110BD0121A2
:1015D000FFF7B5BF0121FFF7BEBF0021FFF7C7BF6F
:1015E0000021FFF7D0BF10B590B1D0E90123016809
:1015F0009B1ADBB20A60013BDBB2FF2B026802D10F
:101600000020107110BD11684C1C14600B70F2E7C3
:101610000E20F7E738B504460020FFF7BBFD22682F
:1016200063681168994213D9481E106011F8013C93
:10163000E568218A01FB0355A36811791B1ADBB207
:10164000994200D213710020FFF7A6FD284638BD4D
:101650000025F8E738B5054600200C46FFF79AFD4F
:101660002A681368591C1160E968641A298AB4FB56
:10167000F1F41C70BDE838400020FFF78DBD826892
:1016800010B504462AB143690168006998470023F0
:10169000A36010BD0EB403B5039921B104AB01AA38
:1016A000019300F06FF802B05DF804EB03B07047EF
:1016B000826830B40468551C8560A154D0E90132B9
:1016C0009A4202D330BCFFF7DABF30BC704700004B
:1016D0002DE9F84F9846DDE90A43154682460F4644
:1016E0000A464FF00109AA420FD2C14538BFC14690
:1016F00013F0010B01D16CB900240126B8F1010FE0
:101700001BD908F1FF386E43F8E709F10109B2FB74
:10171000F5F2E8E79B070ED5B8F1000F0CBF3026B5
:101720002026A145E9D2013C31465046FFF7C0FFD3
:10173000002CF6D1E0E72026F3E7B7FBF6F39D4255
:10174000E1D9DFF83C80B7FBF6F3504618F80310F8
:1017500006FB1377FFF7ACFF3346AB42B6FBF5F65B
:10176000F1D2BBF1000F02D00CB1A14501D3BDE80D
:10177000F88F20215046013CFFF79AFFF4E700BFA5
:10178000163B00002DE9F74F05461746884600290D
:1017900000F03E8118F8011B49B92B7B002B00F0AB
:1017A0003781284603B0BDE8F04FFFF768BF252911
:1017B00040F0B780002698F800302D2B424608F103
:1017C000010823D0302B24D02B2B25D000242A2B0A
:1017D00002F1010123D13B681A1D1B683A601C44C9
:1017E0000A4613782E2B26D101324FF0000A1046FC
:1017F00010F8011BA1F1300CBCF1090F1DD80A2310
:1018000003FB0A13A3F1300A0246F0E746F0010693
:10181000D1E746F00206CEE746F00406CBE711F822
:10182000013CA3F130000928DBD80A2202FB043472
:10183000303C0A46CBE74FF0000A12F8011B01F0DA
:10184000FB0068289046F8D0782909D86F290CD871
:10185000632962D022D8252963D0582900F08880D6
:1018600098F80030002B95D197E770390829F7D800
:1018700001A353F821F000BFEB190000611800002C
:101880006118000081190000611800005F19000054
:10189000611800006118000071190000642901D06E
:1018A0006929DDD13A68D2F80090111D89EAE97200
:1018B0003960A2EBE9724FF0010B092A35DCD34500
:1018C00038BFD3462CB1B9F1000F01DB720700D548
:1018D000013CB30702D5BAF1000F03D0F00701D4E1
:1018E0004CBB0024B9F1000F2DDAC9F100092D21FC
:1018F0002846FFF7DDFE06F00302022A04D1BAF102
:10190000000F01D11CBB0024CDE9004653460A223A
:1019100049462846FFF7DCFEA2E73B681A1D197806
:101920003A602846FFF7C4FE9AE70A230BF1010B41
:10193000B2FBF3F2C1E7A345D4D220212846013CF3
:10194000FFF7B6FECCE77107D5D52B21D0E7A3452D
:10195000DAD230212846013CFFF7AAFED2E73968E7
:10196000CDE900460A1D3A6053460A220968D0E7CD
:1019700039680A1D3A60CDE9004653461022F5E762
:101980003B681A1D3A6016F00106D3F8009024D186
:10199000B9F1000F03D0484601F06DFF0646B4428E
:1019A0001DD809F1FF3919F8011F00293FF458AF7C
:1019B0002846FFF77DFEF6E728460136FFF778FE5A
:1019C00019F806100029F7D1A642BFF449AF20212B
:1019D0002846013CFFF76CFEF6E70026F0E72021E1
:1019E0002846013CFFF764FED9E73B681A1D3A60C0
:1019F000302128461C68FFF75BFE78212846FFF758
:101A000057FE00220823CDE900322146102280E74C
:101A100003B0BDE8F08F00BF13B504460068FFF7C0
:101A2000F9FD019010B9002002B010BD606801A955
:101A300000F09EFD0028F6D1E269A069D368019903
:101A40000133D360626A00F0EAFB0120ECE77FB566
:101A50000B780446042B58D8DFE803F02110033D2F
:101A6000480001238DF804304B6802938B68039380
:101A7000E3691A68586801A990470EE0C36993F8B2
:101A8000263053B9FFF7C8FF38B9E36993F825202A
:101A9000002A3AD0012283F8262004B070BDC36921
:101AA0008A685E69901B30D01A6902441A614A68DC
:101AB00000253244CDE902208DF8045060685D6154
:101AC0002A4603F1180100F0B8FD0028D0D02846BE
:101AD000FFF72BF9CCE70023CDE901330393022371
:101AE0008DF804300B798DF80830C1E7C369496877
:101AF0001A6958690A44121A1A6100220192039263
:101B000003228DF804200291B3E7002004B0BDE861
:101B10007040FFF70AB90000836930B5DB681A0B23
:101B200043F30733002B85B004460CDB02F01F01A2
:101B30005B0901228A402033174941F82320BFF373
:101B40004F8FBFF36F8FA3695B68D3F84C05E369D0
:101B50001A6982420FD200218DF80410D3E90515CD
:101B6000821A0D44CDE902520A44C3E9040201A9D4
:101B70001A6858689047A369DB681A0B43F3073368
:101B8000002B07DB02F01F0101228A405B0902499A
:101B900041F8232005B030BD00E100E00846FFF722
:101BA000BBBF00002DE9F0434D7F072D8DB00446EB
:101BB0000E4600F0A780C16991F82700002840F088
:101BC000BC80C1E906004B6033690A600861486166
:101BD000C8600B6281F82600337D5A1E5342534180
:101BE00081F82530A368002B7AD0554A1068928876
:101BF0000190ADF8082001A9226A013518468DF838
:101C0000065000F0E7FF014600287AD13269A0684B
:101C10000123520901F01CF8002872D1A3681D6845
:101C200005F1080705F10408E069083005F5A07919
:101C300000F092FE002864D1E069093000F08CFECB
:101C400000285ED1A369D968E3692A46187A01F5AC
:101C5000847100F0CDFE002853D1002F65D1E369D7
:101C60004246587A494600F0C3FE002849D1A3698C
:101C70005968E3694C31587A00F0DAFE002840D107
:101C8000736801933368A5690293B3680393F3689B
:101C90000493EB682B4A03F58873CDE90530B38ACA
:101CA000ADF82430B3690A93737F8DF82C30337FFD
:101CB0008DF82D30CDE907002346284601A900F014
:101CC000EFF80546F0B92068FFF78DFC0546C8B966
:101CD000606800F09CFCE369012283F8272011E092
:101CE000E068F8B10422ADF8042001A9164A8DF885
:101CF0000630013502948DF8075001F039F801469D
:101D000020B1032528460DB0BDE8F08301233269D8
:101D1000E06801F0A7F8E3681D6805F10C0705F11C
:101D2000100881E7FFF701F8EBE7E3693946187A15
:101D300000F07EFE002892D0E3E70825E2E700BF2E
:101D4000363B00004F1A00009D1B000038B50446CA
:101D50000068FFF75FFCE269D3680133D360054692
:101D600008B9FEF7E2FFA36803B31B6801229A607B
:101D7000E369187A00F070FE10B10020FEF7D5FF7D
:101D8000E369587A00F068FE10B10020FEF7CDFF3D
:101D9000E369626A9D61A0690023294600F00AFA9E
:101DA00050B1BDE838400020FEF7BFBFE068002812
:101DB000DED001F053F8DBE738BD806900F0B4B93C
:101DC00038B5C3690446D869656A0244AA42DA6133
:101DD0001AD10025DD61091A2068FFF73BFCE26992
:101DE000D368013BAB42D36002DA2846FEF79DFF81
:101DF000E36993F8263033B12046FFF70DFEE3691F
:101E0000002283F8262038BDFDD9BDE838400020E7
:101E1000FEF78BBF0023435082B043580193019BD0
:101E200002B070477047F8B50546002414272E68A5
:101E3000305D132805D800F025FE305D00F0BAFDB6
:101E400037550134092CF2D12C68607A052803D863
:101E500000F05AFE062363722C68A07A052803D886
:101E600000F052FE0623A372F8BD73B50546CDE916
:101E700000211E4600F070FD80B9DDE900212878C0
:101E800000F0B6FD044628B92EB12878314600F09E
:101E9000CFFD00B10324204602B070BD0424FAE750
:101EA0002DE9F7430446006890F83C600D46002E8B
:101EB00040F02581E1684363FF2380F83A30934B7B
:101EC0004262CB1A18BF0123914A066242F82340AE
:101ED0002B68C660C0E906664FF0A042012000FAF8
:101EE00003F6C2F8086503F5E076032742F826708A
:101EF00095F829606F68002E14BF0326002607F5A9
:101F0000E07CB60042F82C606A6AC1F8242595F896
:101F1000206095F82120864242EA0602C1F86C252D
:101F2000C1F80C35C1F8147500F0EE80794AC1F89B
:101F3000042395F8282041F307335201002BC1F305
:101F40000731D2B2C0F2C28003F160465B099B0048
:101F500003F1604306F5614603F5614301F01F019B
:101F600000FA01F186F80023C3F880111960E368D4
:101F70000822C3F80025684A0023CDE900236946FA
:101F8000664A201D00F0F4FE002840F0B680236869
:101F90001421581E03F1080200F8011F9042FBD1E2
:101FA00006225A729A72E168002301F1080201F5D3
:101FB0009071FFF75AFF0346002840F09B8062684B
:101FC000E1682068083201F584710430FFF74DFFA5
:101FD000002840F08F80D4E90003E268403302F526
:101FE00088710530FFF741FF0746002840F08280E6
:101FF0006B69002B6FD0EB69002B6CD06268E168D5
:102000002068403201F588710630FFF72EFF002866
:1020100070D1266806F1090096F8058000F048FDA9
:10202000002867D10120717A00FA08F000F0A6FDBF
:1020300000285FD1707A00F08BFD00285AD1D4F8C7
:102040000080767A98F8069008F10A0000F030FDDA
:1020500000284FD1012098F80A1000FA09F000F08A
:102060008DFD002846D16368E2682068696998F8A8
:102070000A80443304320230FFF7F7FE002839D1DA
:102080002068274A69694FEAC808F60008F18043CA
:1020900003F5F83332440330FFF7E7FE50BB204B23
:1020A00006F1804606F5F8364344AA6952EA030170
:1020B00013D1296929B1E26820683346FFF7D5FEBC
:1020C000C0B92368012283F83C2019E0154B01F0C8
:1020D0000F015A544BE71E46E7E72068E1680130DC
:1020E00001F5A67113B19C4613466246FFF7BDFE8B
:1020F0000028DED02046FFF796FE032700E00827E1
:10210000384603B0BDE8F0830727F9E70020004018
:10211000D40600201003480000010306251E00001D
:1021200004F0014014ED00E0F8B505460068C3680E
:10213000002B3DD1FF2AC0E90312436128D894B295
:102140000387E868C0F84415C0F848454FF4A87103
:10215000FFF760FEE8680123FF2A836016D9D0F8F4
:102160005031002BFBD04FF4A871FFF753FE2B68C2
:10217000187A132801D800F06FFC2B68EA68198FD1
:10218000DB681C44C2F84445C2F84815002010E042
:10219000FF2302F1FE04B4FBF3F4B2FBF4F4A3B2A8
:1021A000B2FBF3F603FB162616FA84F4A4B2C7E7D3
:1021B0001120F8BD73B51E4603680446986958BBE4
:1021C0001A6329B19961E368C3F83415C3F8382557
:1021D000201D019000F034FE019800F03FFE2368BE
:1021E000E06800254FF48871C3E90A55FFF712FE35
:1021F000E0684FF4A671FFF70DFE2368585D1328C1
:1022000001D800F029FC0135082DF6D116B9E36894
:1022100001221A60002000E0112002B070BD0368A6
:1022200010B5DC6934B9D961C368C3F83415C3F893
:10223000382510BD1962FCE7684B2DE9F0411C6898
:10224000E068D0F8243186B0B3B14FF49271FFF753
:10225000E1FD0023CDE90333059303238DF80C3012
:10226000E268D2F88034C2F880348DF810302368E8
:1022700003A95A6A586B9047E068D0F84C317BB19B
:102280004FF4A671FFF7C6FD0023CDE90333059394
:1022900001238DF80C30236803A95A6A586B9047C4
:1022A000E068D0F81031002B49D04FF48871FFF767
:1022B000B1FD6368D3F84065D3F844752368D3E96A
:1022C0000A52751BC3E90A6701D1974237D0186BD0
:1022D00085422A4628BF02469446A5EB02089A6921
:1022E000CDE9012CDA690021C3E906211A6A8DF8CB
:1022F000001032B1C3E90721E168C1F83425C1F803
:1023000038055A6A586B69469047B8F1000F05D1F5
:1023100023681B6B9D4212D1BE4210D100250423BD
:1023200003958DF80C30236805955A6A586BCDF8E3
:10233000108003A990472368DA69C3E90625E0689D
:10234000D0F858318BB14FF4AC71FFF763FD022325
:102350008DF80C302368DA6804921A69059200221D
:10236000DA60586B5A6A03A99047E068D0F82031C8
:10237000A3B14FF49071FFF74DFD2368E0685969F0
:10238000D0F84C250A4419695A618A4209D14FF4A0
:10239000AC71FFF73FFDE3680122DA6006B0BDE8EB
:1023A000F081891AFF2911D9198F1144DA68D0F800
:1023B00050310A444FF4A871FFF72CFD2168E368FF
:1023C000098FC3F84425C3F84815E7E7187A13289E
:1023D000E4D806B0BDE8F04100F054BBD4060020BC
:1023E0002DE9F84FB0F806A04579D2F800B09DF875
:1023F00028900AFB05F5043D88460BEB0301A94232
:1024000003F1040488BFA5EB030BB4FBFAF60746FF
:102410000AFB1644C2F800B04EB9AAEB04055D45AC
:1024200028BF5D46BBF1000F04D1BDE8F88F3F68BF
:10243000013EF1E7043408EB06003C442A46B9F1BA
:10244000000F0DD02146ABEB050B01F096F9DA45F4
:102450002E443F6855464FF0000428BF5D46E1E733
:1024600001462046EFE7FFF7BEB8F8B546790146CA
:10247000721E0546002393422D6803D30024A64212
:1024800002D8F8BD0133F6E70F682846FFF7E2F8F7
:1024900001343946F3E72DE9F843068ACD1C074697
:1024A000FFF7B8F8043E35440446B5FBF6F5F0B145
:1024B0004FF48073EDB28380C680013D0760814692
:1024C0004FF00008A84512D23846FFF7A3F8064699
:1024D00048B163790133637108F10108C9F800005C
:1024E00007608146EEE72046FFF7BFFF34462046EF
:1024F000BDE8F88301210430FFF751B810B5012180
:1025000004460430FFF757F8C0B220B92046BDE8B2
:102510001040FFF7AABF10BD1FB503920022009222
:1025200003AAFFF75DFF05B05DF804FB1FB503923A
:102530000122009203AAFFF753FF05B05DF804FBE8
:10254000026813685268934291BFD01A80680130C4
:10255000801888BFC01A7047036881681A685B6872
:102560008B4234BF01330023D31A5842584170477D
:1025700070B5044600200D46FEF70CFE2046FFF71E
:10258000EBFF10B1237C002B3BD12368A1685E6870
:102590005A688A4234BF013200225A6028B11A6850
:1025A0008A4234BF013200221A60E2686368511E19
:1025B000072920D8DFE801F004101F141F1F1F187F
:1025C0002A789A552046FFF7BBFF23689A68824213
:1025D00000D29860002415E02A8823F81620F1E73D
:1025E0002A6843F82620EDE7D5E9000103EBC6038E
:1025F000C3E90001E6E7294602FB063001F0BDF819
:10260000E0E704240020FEF7C7FD204670BD10B5AA
:1026100004460020FEF7BEFD20680C22002101F0D8
:10262000D5F8BDE810400020FEF7B6BD0368186875
:102630005B68C31A58425841704770B50546002080
:102640000C461646FEF7A6FD2846FFF7EFFF0028CA
:1026500030D12B6819682EB91A68A868824238BF31
:10266000561C1E60EA686B68501E07281CD8DFE8FD
:1026700000F0040C1B101B1B1B145B5C237000245C
:102680000020FEF789FD204670BD33F8113023800D
:10269000F5E753F821302360F1E703EBC103D3E9F9
:1026A0000023C4E90023EAE701FB0231204601F0E0
:1026B00064F8E4E70524E3E7836800225A60C3E98D
:1026C00004229A60DA601A6070472DE9F84F0746D5
:1026D00080688A469046FEF77AFF814688BBD7E934
:1026E00001431A69013414449A68A41AD8F80020E6
:1026F000944228BF1446C8F800407E689D68354063
:102700000136A6EB050B5C4509D9386851462844CB
:102710005A4601F032F8AD1B2C44DA444D46386875
:1027200022465146284401F028F8B868D8F800201D
:1027300083681344C0E90233FEF752FF4846BDE800
:10274000F88F4FF01109F9E770B5446806460D4659
:10275000206818B1B3682946984718B923682B60D8
:10276000256070BD2468F3E74368186808B1026803
:102770001A6070474368186870474368186800B962
:102780007047884203D102681A60012070470346EF
:102790000068F4E738B5074C051E04F1080318BFBC
:1027A0001C4623682BB11A6822605B68284698474C
:1027B000F7E738BDE406002020B9054B01225A7026
:1027C000FFF7E8BF012802D1014A9070F8E770478F
:1027D000DC06002038B50C4C23789BB90B486360AD
:1027E000A3602361E36000F049F8054600F052F869
:1027F00001232370064BD3F800340BB10123A370DF
:10280000284638BD8525F5E7DC060020B9270000FD
:102810000000014038B5134CA378054603F0FF00D3
:1028200073B115B16B68012098470020FEF7B2FC28
:10283000E3680133E3600020BDE83840FEF7ACBC3C
:10284000FEF7A8FC25B1226913463BB92A60256131
:10285000E368002BECD100F02FF8E9E79D42F7D0B8
:102860001B68F2E7DC06002000F18040002382B004
:10287000036003680193019B02B07047044A137917
:1028800023B9012110609180184670478520704758
:10289000F0060020074B1A68D20704D4C02283F840
:1028A000002301221A604FF080430122C3F818254B
:1028B000704700BF00E100E038B54FF48270FFF7C9
:1028C000D3FF4FF080430222C3F804230C4AD2F80E
:1028D000FC0040F08073C2F8FC300A4B1C6844F0E6
:1028E000010119605D685968491BB1F50A5FFAD3A7
:1028F0001C604FF08043C2F8FC0001229A6038BD92
:1029000000ED00E0001000E04FF0804110B5D1F87C
:10291000003163B14FF48070FFF7A6FF0D4B58797B
:102920000122C1F8082310B95A711B6898474FF06B
:102930008042D2F8043163B14FF48270FFF794FF04
:102940000223C2F80833034BBDE810401B68012086
:10295000184710BDF00600202DE9F84F134DDFF8A1
:10296000508007464FF0000A04264FF001095FFA35
:102970008AFB002009FA0BF4FEF70CFC2C420AD06B
:10298000D8F8003014EA030201BF2343C8F800302E
:1029900087F800B016460020FEF7FEFB1EB1A543E7
:1029A0000AF1010AE3D13046BDE8F88FFFFF0F00BE
:1029B000F8060020012310B503FA00F4C4F3130352
:1029C0007BB1094B0020C3F80845FEF7E3FB074B3A
:1029D000186820EA040018600020FEF7DDFB0020E4
:1029E00010BD0720FCE700BF00F00140F806002002
:1029F00010B5A1B19AB101238340C3F3130484B18C
:102A00000A4C246823420ED0C00000F1804000F53B
:102A1000F830C0F81015C0F81425002010BD0E20A5
:102A2000FCE70720FAE70820F8E700BFF8060020D7
:102A3000074A01231268834013421FBF00F511703B
:102A4000044B43F82010002008BF0820704700BF47
:102A5000F806002000F00140012303FA00F0C0F363
:102A600013031BB1054B1B68184204D0044BC3F879
:102A70000405002070470820704700BFF8060020BA
:102A800000F00140012303FA00F0C0F313031BB16F
:102A9000054B1B68184204D0044BC3F808050020FE
:102AA00070470820704700BFF806002000F0014082
:102AB0002DE9F84FDFF84C8007464FF0000A3F251C
:102AC00004264FF001095FFA8AFB002009FA0BF493
:102AD000FEF760FB2C420AD098F8003013EA04029B
:102AE00001BF234388F8003087F800B01646002065
:102AF000FEF752FB1EB1A5430AF1010AE3D13046AD
:102B0000BDE8F88FFC06002070B5104C012303FAD5
:102B100000F5227815F03F0F14BF002607262A4241
:102B200011D0C00000F1804000F5F8304360002073
:102B3000FEF730FB2378002023EA05032370FEF71D
:102B40002BFB304670BD0826FBE700BFFC060020CB
:102B5000012303FA00F2910608D0064909781142D0
:102B600006D0054A42F830300020704707207047F1
:102B700008207047FC06002000F0014038B5012312
:102B80008B409A0605460C4615D00D4A12781A421B
:102B900013D00020FEF7FEFAA10001F1804101F5FB
:102BA000F831D1F800080543C1F800580020FEF7BD
:102BB000F3FA002038BD0720FCE70820FAE700BF41
:102BC000FC0600200023435082B043580193019B30
:102BD00002B07047F0B51A4C43791A4D44F82320DF
:102BE00003EB4303EB5C43BB90F904408B78027921
:102BF0005B01002CDBB21BDB134E371987F8003367
:102C00000123640902F01F0203FA02F246F82420AD
:102C100003680A88C3F8082543790879C97803EB63
:102C20004303EA18507091700122EA540020F0BD6D
:102C3000064C02F00F02A354EAE70820F7E700BFB2
:102C400000070020FD06002000E100E014ED00E098
:102C50002DE9F04105464FF4803400681C4F8C404C
:102C6000C0F84843C0F8084395F805C00CEB4C0683
:102C70003E4422F07F4296F8018001F5A8764FEAA3
:102C80004C0E40F82620B8F1000F11D0D0F8048582
:102C9000F4446744A8EB0206904538BF06F1FF16DE
:102CA000BA7838BF06F57F46B24201DD0D200CE050
:102CB0003BB15031890089B2FFF784FF2B68C3F81C
:102CC00004432B680020C3F84443BDE8F08100BFF3
:102CD000FD0600202DE9F041224E234FDFF88C80C5
:102CE00000254FF48034D7F8043306F5A041234281
:102CF00089B20CD0336853B1C7F848433846C7F897
:102D00000843FFF75FFFD8F80030E8B29847013575
:102D1000032D4FEA440406F10406E4D11248D0F82A
:102D20000433DA070AD5D0F800313BB14FF4807193
:102D3000FFF748FF0D4B04201B6898470A48D0F85E
:102D400004339B070CD5D0F804314BB14FF482719A
:102D5000FFF738FF054BBDE8F0411B680520184719
:102D6000BDE8F08140B1004000B000400007002005
:102D7000F7B506792F4D0C237343EF183C7A002CDE
:102D800055D1EA504B687B60477903682246A446D8
:102D9000D4B2A7423CD8CA7843F307345201002C7E
:102DA000C3F30733D2B23DDB234F07EB040C8CF89F
:102DB00000230122640903F01F0302FA03F347F81A
:102DC000243003684A78D3F8040502F0030220F0A7
:102DD00003000243C3F80425D3F808058A7820F0DD
:102DE000030002F003020243C3F80825D3F81005DC
:102DF0000A7820F00F0102F00F020A43C3F81025F1
:102E00000C2303FB065501232B72002003B0F0BDF9
:102E1000940004F5A074013243F804C01C590194D5
:102E2000019CB5E7054C03F00F03E254C9E7082005
:102E3000ECE700BF0407002000E100E014ED00E033
:102E4000036801221A600279034B0C2101FB023353
:102E500002221A72704700BF040700200368012293
:102E6000DA60704737B54FF4803400688C407BB12E
:102E70008B0003F5A0730025C550C3580193019B37
:102E8000C0F8044301F5A87140F8212003B030BD1B
:102E9000C0F80843F6E700002DE9F341104C114F4C
:102EA000114E00254FF48038236883B1D7F80433DE
:102EB00008FA05F21A420AD000232360236801931E
:102EC000A4F50040019B80B2D6E900319847013556
:102ED000042D04F10404E7D102B0BDE8F08100BF85
:102EE00040810040008000400407002008B5064BE8
:102EF00006481A6A002101235209FFF7A9FEBDE81E
:102F000008400348FEF708BEAC0C0020383D000026
:102F1000003D000073B50B78012B06460C462BD004
:102F2000022B23D003BB154B154D8A681549ED1AAA
:102F3000ED082D0445F00300FDF740FDA36861682E
:102F40001148019301AAFFF7C0FB024620B10F49C7
:102F500045F00100FDF732FDD4E901123046FEF7DD
:102F60002FFF0B4B01221A7002B070BD002002B07F
:102F7000BDE87040FDF7A8BE0220F8E70039000068
:102F800020390000683B0000F43C00008A3B000050
:102F9000380D002000B5012089B0FDF7A7FEFFF72E
:102FA00019FC08B1FDF7C1FE0020FFF733FC2B48E8
:102FB0004FF48041FDF764FB08B1FDF7B6FEFDF765
:102FC000A3FA0021182202A800F000FC1D221E23F3
:102FD000CDE90023642304934FF0EB73204806935C
:102FE00006238DF81D30FFF767FB1E4B1E4A69460E
:102FF0001846FEF7D7FD08B1FDF797FE1B4B1948A1
:1030000001221A60FEF7A2FE194916482422FEF793
:10301000D4FE08B1FDF789FEFDF75AFF154B16489F
:103020001649C01AC0080004322240F00300FDF720
:10303000C5FC134A13480121FDF77CFF08B1FDF7D9
:1030400074FE1148002240F23331FDF785FF08B1CC
:10305000FDF76BFEFDF766FBFCE700BFAD0F000060
:10306000F43C0000003D0000152F00001807002070
:10307000300000200039000020390000B93B00007A
:1030800009320000403D000010000020F8B5324B2E
:103090001B6804460D4663B9304B31483149C01AAC
:1030A000C008000440F00100FDF784FC082420461D
:1030B000F8BDB1F5807F0CD9284B2948C01AC0084B
:1030C00000040A4640F001002749FDF777FC0C2474
:1030D000EDE7264F0020FEF75DF83E685EB11F4821
:1030E0001F4B23491B1ADB081B042A4643F003002D
:1030F000FDF764FC01260020FEF74EF856BB304673
:10310000FEF748F80123EA1821461A483B6000F010
:1031100034FB184918482A46FEF74FFE044630464D
:10312000FEF73AF8002CC2D00C4B0D483E60C01A96
:10313000C008112C4FEA00400CBF1049104940F064
:1031400001000CBF2A462246FDF738FC2046FDF759
:10315000ECFDACE71124AAE71807002000390000B5
:1031600020390000D23B0000F93B00001C07002082
:10317000173C000028070020003D00004D3C0000E7
:103180006B3C000070B51B4B1B4CC0B0E41A0546ED
:1031900000F071FBE408240403462A46174944F072
:1031A0000300FDF714FC284600F065FBFD280246ED
:1031B00012DC6B46291818468D4215D11146FFF7CF
:1031C00065FF024630B1112804D00D4944F00200D9
:1031D000FDF7F4FB40B070BD0A4944F0020040B076
:1031E000BDE87040FDF7EABB15F8016B03F8016B11
:1031F000E2E700BF0039000020390000873C0000F2
:10320000BF3C0000A53C0000134AD2E90031323334
:1032100041F1000110B5C2E9003110490B680133DA
:10322000642B0B6017DD00230B600D480D4B0E4C1B
:103230000E492268C01AC0080004013240F00200A2
:103240002260FDF7BBFB2368012B04D1BDE81040D1
:103250000748FFF797BF10BD200700201007002088
:10326000203900000039000014070020D83C00007D
:10327000EE3C00000369C26893429CBF80681B1843
:10328000013B981A70472DE9F843D0E902940546AE
:10329000A9EB04084068904520440F46144404D923
:1032A00000F06BFAEC60BDE8F8834246A4EB090439
:1032B00000F063FA6868224607EB0801F0E72DE9A1
:1032C000F843C5680646894617464FF0000834693A
:1032D000B3687068A54228BFE418013C621B5C1B00
:1032E000BC4228BF3C46944228BF14464946284465
:1032F000224600F042FAB3682544AB4208BF0025DD
:103300003F1BA044A144F560E1D14046BDE8F883ED
:1033100010B5114C114AA2610223C4E90433104BC9
:10332000E361A2644FF400730E4A0F492362E26422
:1033300000231022E01DA3626362E362A36563655C
:10334000E365226500F075FA0849204600F071FA3D
:103350002023A37110BD00BF3C0D0020443D0000A0
:10336000C40D0020B40D00204D3D0000513D000073
:1033700070B5164B182400FB04451D4404FB0033B4
:103380001646DC6A012C0ED0022C18D0E4B928466F
:10339000FFF770FF864204D832462846FFF773FFD6
:1033A0003446204670BD2846FFF764FF8642344607
:1033B00028BF044622462846FFF765FFF1E7284666
:1033C000BDE87040FFF77BBF0024EAE73C0D00201A
:1033D000FFF79EBF4FF08053D3F83001421C04BF6B
:1033E0004FF0704393F8E00F831F584258417047E5
:1033F0004FF0704393F8E02F062A09D1D3F8E83F45
:10340000C3F30313033B042B02D8024AD05C70477A
:1034100000207047673D0000024AD2F80034002BBC
:10342000FBD0704700E0014010B5FFF7D3FF40B17B
:103430004FF08053944AD3F82433C3F30423C2F8E3
:103440004035FFF7D5FF10B1904B914A5A67FFF70F
:10345000C1FF48B14FF080534FF08042D3F844325F
:10346000C3F34233C2F83C35FFF7C2FF30B1894A9B
:10347000D2F8FC3023F08073C2F8FC30FFF7AAFFCB
:1034800040B14FF080430022C3F80C21C3F8102153
:10349000C3F83825FFF7ACFF20B14FF0804303227B
:1034A000C3F8A025FFF7A4FF60B17B4B0522C3F84A
:1034B00010260122C3F888260022C3F818263F22CE
:1034C000C3F814264FF08053D3F83021511C09BFA4
:1034D0004FF07043D3F8343193F8E02FD3F8E83F3E
:1034E00008BFC3F30313062A4DD1033B042B03D8B3
:1034F0006A4AD35C002B46D04FF08052684BD2F81A
:103500000414C3F82015D2F80814C3F82415D2F80F
:103510000C14C3F82815D2F81014C3F82C15D2F8DF
:103520001414C3F83015D2F81814C3F83415D2F8AF
:103530001C14C3F84015D2F82014C3F84415D2F86F
:103540002414C3F84815D2F82814C3F84C15D2F83F
:103550002C14C3F85015D2F83014C3F85415D2F80F
:103560003414C3F86015D2F83814C3F86415D2F8CF
:103570003C14C3F86815D2F84014C3F86C15D2F89F
:103580004424C3F87025FFF725FF48B14FF080535E
:103590004FF08042D3F8583203F04F03C2F8E43EB4
:1035A000FFF718FF48B14FF08043D3F80024D2074B
:1035B00044BF6FF00102C3F800244FF08053D3F8EA
:1035C0003021062A0ED1D3F83431033B042B02D824
:1035D000344AD35C33B1344AD2F83C3743F4806385
:1035E000C2F83C372B4AD2F8883043F47003C2F853
:1035F0008830BFF34F8FBFF36F8F4FF08053D3F8F6
:103600003021062A0FD1D3F83431033B042B02D8E2
:10361000264AD35C3BB14FF01023D3F808224FF079
:103620008043C3F858254FF01023D3F80022002A16
:1036300003DBD3F80432002B22DA1D4901234FF0BB
:103640001020C1F804351524FFF7E6FEC0F800424B
:10365000FFF7E2FEC0F80442FFF7DEFE0023C1F8E8
:103660000435FFF7D9FEBFF34F8F0A49114BCA68E3
:1036700002F4E0621343CB60BFF34F8F00BFFDE75E
:103680000D4B0E4A1A6010BD0030014000C00740CB
:103690000DF0ADBA00ED00E000500040583D0000D4
:1036A00000C000405D3D000000100040623D000091
:1036B00000E001400400FA05540000200090D0030F
:1036C0007F2805D8034B185C034B5B5C18407047A0
:1036D00000207047783D0000F83D0000A0F1610334
:1036E000192B98BF20387047A0F14103192B98BFC0
:1036F000203070477F2805D8034B185C034B5B5C78
:103700001840704700207047783D0000F83D0000E9
:10371000A0F16103192B98BF20387047A0F1410335
:10372000192B98BF203070477F299ABF0170012064
:103730006FF02E0070475AB10A787F2A0AD800B17C
:103740000260002119605960501A18BF01207047AB
:10375000002070476FF02E007047000008B5034B43
:103760005B689B681B68984708BD00BF5800002035
:1037700008B50921FFF7F2FF08BD844640EA0103BE
:1037800013F0030F18D18446202A0BD32DE9F0073C
:10379000B1E8F807A0E8F807A2F12002202AF7D242
:1037A000BDE8F007042A07D351F8043B40F8043B76
:1037B000A2F10402042AF7D2002A05D011F8013B35
:1037C00000F8013B013AF9D1604670478446002A6F
:1037D0002DD010F0030F04D000F8011B013A26D0C1
:1037E000F7E7C9B241EA012141EA0141202A12D397
:1037F000A2F120022DE9F0030B460C460D460E46C1
:103800000F4688468946A0E8FA03203AFBD2BDE875
:10381000F00320320BD0042A05D340F8041B043AED
:1038200005D0042AF9D200F8011B013AFBD1604609
:103830007047024610F0030F16D111F0030F13D199
:103840002DE9F0004FF001374FF0803351F8044B71
:10385000A4EB070525EA04051D4002D142F8044BFC
:10386000F4E7A1F10401F0BC11F8013B02F8013BBF
:10387000002BF9D1704700F1010110F0030F11D0B6
:1038800010F8012B002A23D010F0030F0AD010F8F3
:10389000012B002A1CD010F0030F03D010F8012BCD
:1038A000002A15D02DE970004FF001324FF080331F
:1038B00050F8044BA4EB020525EA04051D4000D195
:1038C000F6E7A0F1040070BC10F8012B002AFBD130
:0838D000A0EB010070470000AD
:1038D8002C0D0020D40C00200A0000000800000075
:1038E80001000000A00C0020900C00200300000044
:0838F8000400000001000000C3
:10390000543B0000000000005A3B00000000000093
:103910005E3B000000000000623B00000000000071
:10392000C539000000000303B93A000000000000A0
:103930004E3B0000000000003C3B00000000000087
:10394000263B000000000000453B00000000000096
:10395000B00000207801002080010020B800002085
:1039600018000000840900208C0C00208F0C00201F
:083970008C0900200001000099
:103978009839000000000000A43900000000002071
:1039880000000000000000000338FDD87047000068
:10399800D503000041040000D10300007274745F75
:1039A8006C6F675F6261636B656E64004261636B35
:1039B800656E647320666C75736865640061707009
:1039C80000000000A00500207F0000002006002065
:1039D8001B5B313B33316D0025734C6F677320647B
:1039E800726F70706564202825642925730D0A009C
:1039F8001B5B306D002573003C25733E2025733A10
:103A08002000202530327800202020007C0025630B
:103A1800001B5B313B33306D001B5B313B33326D38
:103A2800001B5B313B33336D001B5B313B33346D23
:103A3800001B5B313B33356D001B5B313B33366D0F
:103A4800001B5B313B33376D007761726E696E67BF
:103A580000696E666F00646562756700F83900007A
:103A6800193A0000D8390000213A0000293A00002C
:103A7800313A0000393A0000413A0000493A000062
:103A880000000000A63A0000513A0000593A000030
:103A98005E3A000011121314466174616C2065725D
:103AA800726F720053797374656D207265736574F3
:103AB800006170705F74696D657200000100060036
:103AC8000000000038060020B10D000052544320C9
:103AD800696E7374616E636520616C726561647987
:103AE80020696E697469616C697A65642E00525444
:103AF800433A20696E697469616C697A65642E005D
:103B080000000000000000000338FDD87047303185
:103B180032333435363738394142434445466C6987
:103B28006255415254455F6173796E63000000002D
:103B3800064100006C6962554152544500736F722A
:103B4800746C69737400636C6F636B00434C4F4310
:103B58004B00505049005254430054494D455200BF
:103B68004E52465F4C494255415254455F41535964
:103B78004E435F4556545F52585F44415441202597
:103B88006400756172745F626C6F636B5F74782038
:103B98006E72665F72696E676275665F6370795F81
:103BA800707574206572726F7220307825303458C1
:103BB800007374617274207469636B2074696D6535
:103BC800722061742025646D7300756172745F6280
:103BD8006C6F636B5F74782063616C6C20776865C9
:103BE8006E20636C6F7365643B2061626F72742131
:103BF80000756172745F626C6F636B5F74782074B8
:103C08006F6F206C61726765206C656E3A20006783
:103C18005561727454784275737920756172745F56
:103C2800626C6F636B5F74782061646420746F20CA
:103C380072696E6720627566666572206C656E20B3
:103C48003D20256400756172745F626C6F636B5F01
:103C580074782062757379206E6F742073656E6452
:103C6800656400756172745F626C6F636B5F747812
:103C7800206661696C65642030782530345800739B
:103C8800656E6441736369694F76657255617274D4
:103C98003A202573206C656E3A2025640055415200
:103CA800542054583A206C656E206572726F723DCC
:103CB80030782530345800554152542054583A2011
:103CC8006572725F636F64653D30782530345800E3
:103CD80074696D65725F68616E646C65725F746942
:103CE800636B2025640041540D0A00002A08002057
:103CF800FF0000002C09002064390000EC380000A7
:103D0800383D000000000000000000000000000036
:103D1800283D0000AC0C0020ED2E0000FF00000044
:103D280044090020008000400004000000200040FA
:103D380000B000400B000300100000205465726DB5
:103D4800696E616C00525454005345474745520010
:103D58000000010101000000010100000000010154
:103D68000000000043000000504F53495800000075
:103D780020202020202020202068282828282020D3
:103D8800202020202020202020202020202020202B
:103D980048101010101010101010101010101010E3
:103DA8008484848484848484848410101010101083
:103DB80010818181818181010101010101010101DC
:103DC8000101010101010101010101101010101090
:103DD80010828282828282020202020202020202AD
:103DE8000202020202020202020202101010102055
:103DF8000007032004170201085710408000000044
:103E08006C3D0000703E0000843F000053756E005A
:103E18004D6F6E00547565005765640054687500F1
:103E28004672690053617400000000004A616E0028
:103E3800466562004D617200417072004D61790003
:103E48004A756E004A756C004175670053657000CD
:103E58004F6374004E6F76004465630000000000F5
:103E6800414D00504D000000A83F0000A43F000055
:103E7800A43F0000A43F0000A43F0000A43F0000AE
:103E8800A43F0000A43F0000A43F0000A43F00009E
:103E9800FFFFFFFFFFFFFFFFFFFFFFFFFFFF000028
:103EA800E43E0000143E0000203F0000343E0000C5
:103EB800683E0000C83E0000783F0000D43E000085
:103EC800256D2F25642F2579000000002561202508
:103ED80062202565202554202559000053756E64FD
:103EE8006179004D6F6E6461790054756573646122
:103EF80079005765646E65736461790054687572FA
:103F080073646179004672696461790053617475FC
:103F180072646179000000004A616E75617279000F
:103F28004665627275617279004D6172636800411D
:103F38007072696C004D6179004A756E65004A754A
:103F48006C79004175677573740053657074656D9D
:103F5800626572004F63746F626572004E6F7665BA
:103F68006D62657200446563656D6265720000008C
:103F780025483A254D3A255300000000C136000077
:103F8800DD360000E9360000F53600001137000084
:103F98001D370000293700003737000000000000F7
:043FA8002E000000E7
:103FAC0000000000FF0000000010014011000400A0
:103FBC000000000000000000FFFFFFFFFFFFFFFFFD
:103FCC0000000000000000000000000000000000E5
:103FDC0055415254206578616D706C652073746125
:103FEC00727465642E0D0A204C6F6F706261636B86
:103FFC003A0D0A000090D003083E0000083E000075
:0C400C00083E0000083E0000083E0000D6
:040000030000037581
:00000001FF
